{
  "_format": "hh-sol-artifact-1",
  "contractName": "FundMe",
  "sourceName": "contracts/FundMe.sol",
  "abi": [
    {
      "inputs": [],
      "stateMutability": "nonpayable",
      "type": "constructor"
    },
    {
      "inputs": [],
      "name": "NotOwner",
      "type": "error"
    },
    {
      "stateMutability": "payable",
      "type": "fallback"
    },
    {
      "inputs": [],
      "name": "MINIMUM_USD",
      "outputs": [
        {
          "internalType": "uint256",
          "name": "",
          "type": "uint256"
        }
      ],
      "stateMutability": "view",
      "type": "function"
    },
    {
      "inputs": [
        {
          "internalType": "address",
          "name": "",
          "type": "address"
        }
      ],
      "name": "addressToAmountFunded",
      "outputs": [
        {
          "internalType": "uint256",
          "name": "",
          "type": "uint256"
        }
      ],
      "stateMutability": "view",
      "type": "function"
    },
    {
      "inputs": [],
      "name": "fund",
      "outputs": [],
      "stateMutability": "payable",
      "type": "function"
    },
    {
      "inputs": [
        {
          "internalType": "uint256",
          "name": "",
          "type": "uint256"
        }
      ],
      "name": "funders",
      "outputs": [
        {
          "internalType": "address",
          "name": "",
          "type": "address"
        }
      ],
      "stateMutability": "view",
      "type": "function"
    },
    {
      "inputs": [],
      "name": "i_owner",
      "outputs": [
        {
          "internalType": "address",
          "name": "",
          "type": "address"
        }
      ],
      "stateMutability": "view",
      "type": "function"
    },
    {
      "inputs": [],
      "name": "myValue",
      "outputs": [
        {
          "internalType": "uint256",
          "name": "",
          "type": "uint256"
        }
      ],
      "stateMutability": "view",
      "type": "function"
    },
    {
      "inputs": [],
      "name": "withdraw",
      "outputs": [],
      "stateMutability": "nonpayable",
      "type": "function"
    },
    {
      "stateMutability": "payable",
      "type": "receive"
    }
  ],
  "bytecode": "0x60a0604052600160005534801561001557600080fd5b503373ffffffffffffffffffffffffffffffffffffffff1660808173ffffffffffffffffffffffffffffffffffffffff1681525050608051610cad61006c600039600081816102ce01526105330152610cad6000f3fe6080604052600436106100745760003560e01c80636b69a5921161004e5780636b69a5921461010c578063b60d428814610137578063dba6335f14610141578063dc0d3dff1461016c57610083565b80633ccfd60b1461008d5780633e47d6f3146100a457806347f1aae7146100e157610083565b36610083576100816101a9565b005b61008b6101a9565b005b34801561009957600080fd5b506100a26102cc565b005b3480156100b057600080fd5b506100cb60048036038101906100c69190610781565b610507565b6040516100d891906107c7565b60405180910390f35b3480156100ed57600080fd5b506100f661051f565b60405161010391906107c7565b60405180910390f35b34801561011857600080fd5b50610121610525565b60405161012e91906107c7565b60405180910390f35b61013f6101a9565b005b34801561014d57600080fd5b50610156610531565b60405161016391906107f1565b60405180910390f35b34801561017857600080fd5b50610193600480360381019061018e9190610838565b610555565b6040516101a091906107f1565b60405180910390f35b60026000546101b89190610894565b600081905550674563918244f400006101d034610594565b1015610211576040517f08c379a000000000000000000000000000000000000000000000000000000000815260040161020890610925565b60405180910390fd5b6001339080600181540180825580915050600190039060005260206000200160009091909190916101000a81548173ffffffffffffffffffffffffffffffffffffffff021916908373ffffffffffffffffffffffffffffffffffffffff16021790555034600260003373ffffffffffffffffffffffffffffffffffffffff1673ffffffffffffffffffffffffffffffffffffffff16815260200190815260200160002060008282546102c39190610894565b92505081905550565b7f000000000000000000000000000000000000000000000000000000000000000073ffffffffffffffffffffffffffffffffffffffff163373ffffffffffffffffffffffffffffffffffffffff1614610351576040517f30cd747100000000000000000000000000000000000000000000000000000000815260040160405180910390fd5b60005b6001805490508110156103f75760006001828154811061037757610376610945565b5b9060005260206000200160009054906101000a900473ffffffffffffffffffffffffffffffffffffffff1690506000600260008373ffffffffffffffffffffffffffffffffffffffff1673ffffffffffffffffffffffffffffffffffffffff16815260200190815260200160002081905550508080600101915050610354565b50600067ffffffffffffffff81111561041357610412610974565b5b6040519080825280602002602001820160405280156104415781602001602082028036833780820191505090505b5060019080519060200190610457929190610677565b5060003373ffffffffffffffffffffffffffffffffffffffff164760405161047e906109d4565b60006040518083038185875af1925050503d80600081146104bb576040519150601f19603f3d011682016040523d82523d6000602084013e6104c0565b606091505b5050905080610504576040517f08c379a00000000000000000000000000000000000000000000000000000000081526004016104fb90610a35565b60405180910390fd5b50565b60026020528060005260406000206000915090505481565b60005481565b674563918244f4000081565b7f000000000000000000000000000000000000000000000000000000000000000081565b6001818154811061056557600080fd5b906000526020600020016000915054906101000a900473ffffffffffffffffffffffffffffffffffffffff1681565b60008061059f6105ce565b90506000670de0b6b3a764000084836105b89190610a55565b6105c29190610ac6565b90508092505050919050565b60008073694aa1769357215de4fac081bf1f309adc325306905060008173ffffffffffffffffffffffffffffffffffffffff1663feaf968c6040518163ffffffff1660e01b815260040160a060405180830381865afa158015610635573d6000803e3d6000fd5b505050506040513d601f19601f820116820180604052508101906106599190610b84565b5050509150506402540be400816106709190610bff565b9250505090565b8280548282559060005260206000209081019282156106f0579160200282015b828111156106ef5782518260006101000a81548173ffffffffffffffffffffffffffffffffffffffff021916908373ffffffffffffffffffffffffffffffffffffffff16021790555091602001919060010190610697565b5b5090506106fd9190610701565b5090565b5b8082111561071a576000816000905550600101610702565b5090565b600080fd5b600073ffffffffffffffffffffffffffffffffffffffff82169050919050565b600061074e82610723565b9050919050565b61075e81610743565b811461076957600080fd5b50565b60008135905061077b81610755565b92915050565b6000602082840312156107975761079661071e565b5b60006107a58482850161076c565b91505092915050565b6000819050919050565b6107c1816107ae565b82525050565b60006020820190506107dc60008301846107b8565b92915050565b6107eb81610743565b82525050565b600060208201905061080660008301846107e2565b92915050565b610815816107ae565b811461082057600080fd5b50565b6000813590506108328161080c565b92915050565b60006020828403121561084e5761084d61071e565b5b600061085c84828501610823565b91505092915050565b7f4e487b7100000000000000000000000000000000000000000000000000000000600052601160045260246000fd5b600061089f826107ae565b91506108aa836107ae565b92508282019050808211156108c2576108c1610865565b5b92915050565b600082825260208201905092915050565b7f4469646e27742073656e6420656e6f7567682045544800000000000000000000600082015250565b600061090f6016836108c8565b915061091a826108d9565b602082019050919050565b6000602082019050818103600083015261093e81610902565b9050919050565b7f4e487b7100000000000000000000000000000000000000000000000000000000600052603260045260246000fd5b7f4e487b7100000000000000000000000000000000000000000000000000000000600052604160045260246000fd5b600081905092915050565b50565b60006109be6000836109a3565b91506109c9826109ae565b600082019050919050565b60006109df826109b1565b9150819050919050565b7f5472616e73616374696f6e206661696c65640000000000000000000000000000600082015250565b6000610a1f6012836108c8565b9150610a2a826109e9565b602082019050919050565b60006020820190508181036000830152610a4e81610a12565b9050919050565b6000610a60826107ae565b9150610a6b836107ae565b9250828202610a79816107ae565b91508282048414831517610a9057610a8f610865565b5b5092915050565b7f4e487b7100000000000000000000000000000000000000000000000000000000600052601260045260246000fd5b6000610ad1826107ae565b9150610adc836107ae565b925082610aec57610aeb610a97565b5b828204905092915050565b600069ffffffffffffffffffff82169050919050565b610b1681610af7565b8114610b2157600080fd5b50565b600081519050610b3381610b0d565b92915050565b6000819050919050565b610b4c81610b39565b8114610b5757600080fd5b50565b600081519050610b6981610b43565b92915050565b600081519050610b7e8161080c565b92915050565b600080600080600060a08688031215610ba057610b9f61071e565b5b6000610bae88828901610b24565b9550506020610bbf88828901610b5a565b9450506040610bd088828901610b6f565b9350506060610be188828901610b6f565b9250506080610bf288828901610b24565b9150509295509295909350565b6000610c0a82610b39565b9150610c1583610b39565b9250828202610c2381610b39565b91507f80000000000000000000000000000000000000000000000000000000000000008414600084121615610c5b57610c5a610865565b5b8282058414831517610c7057610c6f610865565b5b509291505056fea2646970667358221220fba52b6d84ad0e601ebc13409e88f0c6343f3693f495a0ee624908bef732b88564736f6c63430008180033",
  "linkReferences": {},
  "deployedLinkReferences": {}
}