{
  "_format": "hh-sol-artifact-1",
  "contractName": "Voting",
  "sourceName": "contracts/Voting.sol",
  "abi": [
    {
      "inputs": [
        {
          "internalType": "string[]",
          "name": "_candidateNames",
          "type": "string[]"
        },
        {
          "internalType": "uint256",
          "name": "_durationInMinutes",
          "type": "uint256"
        }
      ],
      "stateMutability": "nonpayable",
      "type": "constructor"
    },
    {
      "anonymous": false,
      "inputs": [
        {
          "indexed": false,
          "internalType": "string",
          "name": "name",
          "type": "string"
        }
      ],
      "name": "CandidateAdded",
      "type": "event"
    },
    {
      "anonymous": false,
      "inputs": [
        {
          "indexed": false,
          "internalType": "uint256",
          "name": "candidateIndex",
          "type": "uint256"
        },
        {
          "indexed": false,
          "internalType": "uint256",
          "name": "newVoteCount",
          "type": "uint256"
        }
      ],
      "name": "VoteCountUpdated",
      "type": "event"
    },
    {
      "anonymous": false,
      "inputs": [
        {
          "indexed": false,
          "internalType": "address",
          "name": "voter",
          "type": "address"
        },
        {
          "indexed": false,
          "internalType": "uint256",
          "name": "candidateIndex",
          "type": "uint256"
        }
      ],
      "name": "Voted",
      "type": "event"
    },
    {
      "anonymous": false,
      "inputs": [],
      "name": "VotingEndedEarly",
      "type": "event"
    },
    {
      "inputs": [
        {
          "internalType": "string",
          "name": "_name",
          "type": "string"
        }
      ],
      "name": "addCandidate",
      "outputs": [],
      "stateMutability": "nonpayable",
      "type": "function"
    },
    {
      "inputs": [
        {
          "internalType": "uint256",
          "name": "",
          "type": "uint256"
        }
      ],
      "name": "candidates",
      "outputs": [
        {
          "internalType": "string",
          "name": "name",
          "type": "string"
        },
        {
          "internalType": "uint256",
          "name": "voteCount",
          "type": "uint256"
        }
      ],
      "stateMutability": "view",
      "type": "function"
    },
    {
      "inputs": [],
      "name": "endVotingEarly",
      "outputs": [],
      "stateMutability": "nonpayable",
      "type": "function"
    },
    {
      "inputs": [],
      "name": "getAllVotesOfCandidates",
      "outputs": [
        {
          "components": [
            {
              "internalType": "string",
              "name": "name",
              "type": "string"
            },
            {
              "internalType": "uint256",
              "name": "voteCount",
              "type": "uint256"
            }
          ],
          "internalType": "struct Voting.Candidate[]",
          "name": "",
          "type": "tuple[]"
        }
      ],
      "stateMutability": "view",
      "type": "function"
    },
    {
      "inputs": [
        {
          "internalType": "uint256",
          "name": "_index",
          "type": "uint256"
        }
      ],
      "name": "getCandidate",
      "outputs": [
        {
          "internalType": "string",
          "name": "name",
          "type": "string"
        },
        {
          "internalType": "uint256",
          "name": "voteCount",
          "type": "uint256"
        }
      ],
      "stateMutability": "view",
      "type": "function"
    },
    {
      "inputs": [],
      "name": "getOwner",
      "outputs": [
        {
          "internalType": "address",
          "name": "",
          "type": "address"
        }
      ],
      "stateMutability": "view",
      "type": "function"
    },
    {
      "inputs": [],
      "name": "getRemainingTime",
      "outputs": [
        {
          "internalType": "uint256",
          "name": "",
          "type": "uint256"
        }
      ],
      "stateMutability": "view",
      "type": "function"
    },
    {
      "inputs": [
        {
          "internalType": "uint256",
          "name": "_candidateIndex",
          "type": "uint256"
        }
      ],
      "name": "getVoteCount",
      "outputs": [
        {
          "internalType": "uint256",
          "name": "",
          "type": "uint256"
        }
      ],
      "stateMutability": "view",
      "type": "function"
    },
    {
      "inputs": [],
      "name": "getVotingStatus",
      "outputs": [
        {
          "internalType": "bool",
          "name": "",
          "type": "bool"
        }
      ],
      "stateMutability": "view",
      "type": "function"
    },
    {
      "inputs": [
        {
          "internalType": "address",
          "name": "voter",
          "type": "address"
        }
      ],
      "name": "hasVoted",
      "outputs": [
        {
          "internalType": "bool",
          "name": "",
          "type": "bool"
        }
      ],
      "stateMutability": "view",
      "type": "function"
    },
    {
      "inputs": [],
      "name": "owner",
      "outputs": [
        {
          "internalType": "address",
          "name": "",
          "type": "address"
        }
      ],
      "stateMutability": "view",
      "type": "function"
    },
    {
      "inputs": [
        {
          "internalType": "address",
          "name": "newOwner",
          "type": "address"
        }
      ],
      "name": "transferOwnership",
      "outputs": [],
      "stateMutability": "nonpayable",
      "type": "function"
    },
    {
      "inputs": [
        {
          "internalType": "uint256",
          "name": "_candidateIndex",
          "type": "uint256"
        }
      ],
      "name": "vote",
      "outputs": [],
      "stateMutability": "nonpayable",
      "type": "function"
    },
    {
      "inputs": [
        {
          "internalType": "address",
          "name": "",
          "type": "address"
        }
      ],
      "name": "voters",
      "outputs": [
        {
          "internalType": "bool",
          "name": "",
          "type": "bool"
        }
      ],
      "stateMutability": "view",
      "type": "function"
    },
    {
      "inputs": [],
      "name": "votingEnd",
      "outputs": [
        {
          "internalType": "uint256",
          "name": "",
          "type": "uint256"
        }
      ],
      "stateMutability": "view",
      "type": "function"
    },
    {
      "inputs": [],
      "name": "votingStart",
      "outputs": [
        {
          "internalType": "uint256",
          "name": "",
          "type": "uint256"
        }
      ],
      "stateMutability": "view",
      "type": "function"
    }
  ],
  "bytecode": "0x60806040523480156200001157600080fd5b50604051620023fa380380620023fa8339818101604052810190620000379190620004ae565b60008251116200007e576040517f08c379a000000000000000000000000000000000000000000000000000000000815260040162000075906200059b565b60405180910390fd5b60005b8251811015620001715760006040518060400160405280858481518110620000ae57620000ad620005bd565b5b602002602001015181526020016000815250908060018154018082558091505060019003906000526020600020906002020160009091909190915060008201518160000190816200010091906200082d565b506020820151816001015550507ff29562dad1599aea0ebb142466120aab326d5efa8f839df82a9c064bf78e8938838281518110620001445762000143620005bd565b5b60200260200101516040516200015b919062000955565b60405180910390a1808060010191505062000081565b5033600160006101000a81548173ffffffffffffffffffffffffffffffffffffffff021916908373ffffffffffffffffffffffffffffffffffffffff16021790555042600381905550603c81620001c99190620009a8565b42620001d69190620009f3565b600481905550505062000a2e565b6000604051905090565b600080fd5b600080fd5b600080fd5b6000601f19601f8301169050919050565b7f4e487b7100000000000000000000000000000000000000000000000000000000600052604160045260246000fd5b6200024882620001fd565b810181811067ffffffffffffffff821117156200026a57620002696200020e565b5b80604052505050565b60006200027f620001e4565b90506200028d82826200023d565b919050565b600067ffffffffffffffff821115620002b057620002af6200020e565b5b602082029050602081019050919050565b600080fd5b600080fd5b600067ffffffffffffffff821115620002e957620002e86200020e565b5b620002f482620001fd565b9050602081019050919050565b60005b838110156200032157808201518184015260208101905062000304565b60008484015250505050565b6000620003446200033e84620002cb565b62000273565b905082815260208101848484011115620003635762000362620002c6565b5b6200037084828562000301565b509392505050565b600082601f83011262000390576200038f620001f8565b5b8151620003a28482602086016200032d565b91505092915050565b6000620003c2620003bc8462000292565b62000273565b90508083825260208201905060208402830185811115620003e857620003e7620002c1565b5b835b818110156200043657805167ffffffffffffffff811115620004115762000410620001f8565b5b80860162000420898262000378565b85526020850194505050602081019050620003ea565b5050509392505050565b600082601f830112620004585762000457620001f8565b5b81516200046a848260208601620003ab565b91505092915050565b6000819050919050565b620004888162000473565b81146200049457600080fd5b50565b600081519050620004a8816200047d565b92915050565b60008060408385031215620004c857620004c7620001ee565b5b600083015167ffffffffffffffff811115620004e957620004e8620001f3565b5b620004f78582860162000440565b92505060206200050a8582860162000497565b9150509250929050565b600082825260208201905092915050565b7f4174206c65617374206f6e652063616e6469646174652069732072657175697260008201527f65642e0000000000000000000000000000000000000000000000000000000000602082015250565b60006200058360238362000514565b9150620005908262000525565b604082019050919050565b60006020820190508181036000830152620005b68162000574565b9050919050565b7f4e487b7100000000000000000000000000000000000000000000000000000000600052603260045260246000fd5b600081519050919050565b7f4e487b7100000000000000000000000000000000000000000000000000000000600052602260045260246000fd5b600060028204905060018216806200063f57607f821691505b602082108103620006555762000654620005f7565b5b50919050565b60008190508160005260206000209050919050565b60006020601f8301049050919050565b600082821b905092915050565b600060088302620006bf7fffffffffffffffffffffffffffffffffffffffffffffffffffffffffffffffff8262000680565b620006cb868362000680565b95508019841693508086168417925050509392505050565b6000819050919050565b60006200070e62000708620007028462000473565b620006e3565b62000473565b9050919050565b6000819050919050565b6200072a83620006ed565b62000742620007398262000715565b8484546200068d565b825550505050565b600090565b620007596200074a565b620007668184846200071f565b505050565b5b818110156200078e57620007826000826200074f565b6001810190506200076c565b5050565b601f821115620007dd57620007a7816200065b565b620007b28462000670565b81016020851015620007c2578190505b620007da620007d18562000670565b8301826200076b565b50505b505050565b600082821c905092915050565b60006200080260001984600802620007e2565b1980831691505092915050565b60006200081d8383620007ef565b9150826002028217905092915050565b6200083882620005ec565b67ffffffffffffffff8111156200085457620008536200020e565b5b62000860825462000626565b6200086d82828562000792565b600060209050601f831160018114620008a5576000841562000890578287015190505b6200089c85826200080f565b8655506200090c565b601f198416620008b5866200065b565b60005b82811015620008df57848901518255600182019150602085019450602081019050620008b8565b86831015620008ff5784890151620008fb601f891682620007ef565b8355505b6001600288020188555050505b505050505050565b60006200092182620005ec565b6200092d818562000514565b93506200093f81856020860162000301565b6200094a81620001fd565b840191505092915050565b6000602082019050818103600083015262000971818462000914565b905092915050565b7f4e487b7100000000000000000000000000000000000000000000000000000000600052601160045260246000fd5b6000620009b58262000473565b9150620009c28362000473565b9250828202620009d28162000473565b91508282048414831517620009ec57620009eb62000979565b5b5092915050565b600062000a008262000473565b915062000a0d8362000473565b925082820190508082111562000a285762000a2762000979565b5b92915050565b6119bc8062000a3e6000396000f3fe608060405234801561001057600080fd5b50600436106101005760003560e01c806385a3863511610097578063a3ec138d11610066578063a3ec138d1461028d578063b2c2f2e8146102bd578063efb98bcf146102ed578063f2fde38b1461030b57610100565b806385a3863514610215578063893d20e8146102335780638da5cb5b1461025157806390a9ab901461026f57610100565b806335b8e820116100d357806335b8e820146101a05780633973b4c5146101d1578063462e91ec146101db578063581c281c146101f757610100565b80630121b93f1461010557806309eef43e14610121578063101158af146101515780633477ee2e1461016f575b600080fd5b61011f600480360381019061011a9190610d8c565b610327565b005b61013b60048036038101906101369190610e17565b61057a565b6040516101489190610e5f565b60405180910390f35b6101596105d0565b6040516101669190610e89565b60405180910390f35b61018960048036038101906101849190610d8c565b6105d6565b604051610197929190610f34565b60405180910390f35b6101ba60048036038101906101b59190610d8c565b610692565b6040516101c8929190610f34565b60405180910390f35b6101d96107a0565b005b6101f560048036038101906101f09190611099565b610865565b005b6101ff610992565b60405161020c9190610e5f565b60405180910390f35b61021d6109ac565b60405161022a9190610e89565b60405180910390f35b61023b6109b2565b60405161024891906110f1565b60405180910390f35b6102596109dc565b60405161026691906110f1565b60405180910390f35b610277610a02565b6040516102849190611264565b60405180910390f35b6102a760048036038101906102a29190610e17565b610afd565b6040516102b49190610e5f565b60405180910390f35b6102d760048036038101906102d29190610d8c565b610b1d565b6040516102e49190610e89565b60405180910390f35b6102f5610b92565b6040516103029190610e89565b60405180910390f35b61032560048036038101906103209190610e17565b610bff565b005b600354421015801561033a575060045442105b610379576040517f08c379a0000000000000000000000000000000000000000000000000000000008152600401610370906112d2565b60405180910390fd5b600260003373ffffffffffffffffffffffffffffffffffffffff1673ffffffffffffffffffffffffffffffffffffffff16815260200190815260200160002060009054906101000a900460ff1615610406576040517f08c379a00000000000000000000000000000000000000000000000000000000081526004016103fd9061133e565b60405180910390fd5b600080549050811061044d576040517f08c379a0000000000000000000000000000000000000000000000000000000008152600401610444906113aa565b60405180910390fd5b60008181548110610461576104606113ca565b5b9060005260206000209060020201600101600081548092919061048390611428565b91905055506001600260003373ffffffffffffffffffffffffffffffffffffffff1673ffffffffffffffffffffffffffffffffffffffff16815260200190815260200160002060006101000a81548160ff0219169083151502179055507f4d99b957a2bc29a30ebd96a7be8e68fe50a3c701db28a91436490b7d53870ca43382604051610511929190611470565b60405180910390a17fc3b568847e4d9f70a862998fac816cdd2561ad41779f54cc2de4e4c3ed4443a7816000838154811061054f5761054e6113ca565b5b90600052602060002090600202016001015460405161056f929190611499565b60405180910390a150565b6000600260008373ffffffffffffffffffffffffffffffffffffffff1673ffffffffffffffffffffffffffffffffffffffff16815260200190815260200160002060009054906101000a900460ff169050919050565b60035481565b600081815481106105e657600080fd5b9060005260206000209060020201600091509050806000018054610609906114f1565b80601f0160208091040260200160405190810160405280929190818152602001828054610635906114f1565b80156106825780601f1061065757610100808354040283529160200191610682565b820191906000526020600020905b81548152906001019060200180831161066557829003601f168201915b5050505050908060010154905082565b60606000808054905083106106dc576040517f08c379a00000000000000000000000000000000000000000000000000000000081526004016106d3906113aa565b60405180910390fd5b60008084815481106106f1576106f06113ca565b5b90600052602060002090600202019050806000018160010154818054610716906114f1565b80601f0160208091040260200160405190810160405280929190818152602001828054610742906114f1565b801561078f5780601f106107645761010080835404028352916020019161078f565b820191906000526020600020905b81548152906001019060200180831161077257829003601f168201915b505050505091509250925050915091565b600160009054906101000a900473ffffffffffffffffffffffffffffffffffffffff1673ffffffffffffffffffffffffffffffffffffffff163373ffffffffffffffffffffffffffffffffffffffff1614610830576040517f08c379a000000000000000000000000000000000000000000000000000000000815260040161082790611594565b60405180910390fd5b426004819055507f76d936dea03beb6e021f3c9992197617ad7e60efee896fcb15e8bd1fbed8877660405160405180910390a1565b600160009054906101000a900473ffffffffffffffffffffffffffffffffffffffff1673ffffffffffffffffffffffffffffffffffffffff163373ffffffffffffffffffffffffffffffffffffffff16146108f5576040517f08c379a00000000000000000000000000000000000000000000000000000000081526004016108ec90611594565b60405180910390fd5b6000604051806040016040528083815260200160008152509080600181540180825580915050600190039060005260206000209060020201600090919091909150600082015181600001908161094b9190611760565b506020820151816001015550507ff29562dad1599aea0ebb142466120aab326d5efa8f839df82a9c064bf78e8938816040516109879190611832565b60405180910390a150565b600060035442101580156109a7575060045442105b905090565b60045481565b6000600160009054906101000a900473ffffffffffffffffffffffffffffffffffffffff16905090565b600160009054906101000a900473ffffffffffffffffffffffffffffffffffffffff1681565b60606000805480602002602001604051908101604052809291908181526020016000905b82821015610af45783829060005260206000209060020201604051806040016040529081600082018054610a59906114f1565b80601f0160208091040260200160405190810160405280929190818152602001828054610a85906114f1565b8015610ad25780601f10610aa757610100808354040283529160200191610ad2565b820191906000526020600020905b815481529060010190602001808311610ab557829003601f168201915b5050505050815260200160018201548152505081526020019060010190610a26565b50505050905090565b60026020528060005260406000206000915054906101000a900460ff1681565b600080805490508210610b65576040517f08c379a0000000000000000000000000000000000000000000000000000000008152600401610b5c906113aa565b60405180910390fd5b60008281548110610b7957610b786113ca565b5b9060005260206000209060020201600101549050919050565b6000600354421015610bd9576040517f08c379a0000000000000000000000000000000000000000000000000000000008152600401610bd0906118a0565b60405180910390fd5b6004544210610beb5760009050610bfc565b42600454610bf991906118c0565b90505b90565b600160009054906101000a900473ffffffffffffffffffffffffffffffffffffffff1673ffffffffffffffffffffffffffffffffffffffff163373ffffffffffffffffffffffffffffffffffffffff1614610c8f576040517f08c379a0000000000000000000000000000000000000000000000000000000008152600401610c8690611594565b60405180910390fd5b600073ffffffffffffffffffffffffffffffffffffffff168173ffffffffffffffffffffffffffffffffffffffff1603610cfe576040517f08c379a0000000000000000000000000000000000000000000000000000000008152600401610cf590611966565b60405180910390fd5b80600160006101000a81548173ffffffffffffffffffffffffffffffffffffffff021916908373ffffffffffffffffffffffffffffffffffffffff16021790555050565b6000604051905090565b600080fd5b600080fd5b6000819050919050565b610d6981610d56565b8114610d7457600080fd5b50565b600081359050610d8681610d60565b92915050565b600060208284031215610da257610da1610d4c565b5b6000610db084828501610d77565b91505092915050565b600073ffffffffffffffffffffffffffffffffffffffff82169050919050565b6000610de482610db9565b9050919050565b610df481610dd9565b8114610dff57600080fd5b50565b600081359050610e1181610deb565b92915050565b600060208284031215610e2d57610e2c610d4c565b5b6000610e3b84828501610e02565b91505092915050565b60008115159050919050565b610e5981610e44565b82525050565b6000602082019050610e746000830184610e50565b92915050565b610e8381610d56565b82525050565b6000602082019050610e9e6000830184610e7a565b92915050565b600081519050919050565b600082825260208201905092915050565b60005b83811015610ede578082015181840152602081019050610ec3565b60008484015250505050565b6000601f19601f8301169050919050565b6000610f0682610ea4565b610f108185610eaf565b9350610f20818560208601610ec0565b610f2981610eea565b840191505092915050565b60006040820190508181036000830152610f4e8185610efb565b9050610f5d6020830184610e7a565b9392505050565b600080fd5b600080fd5b7f4e487b7100000000000000000000000000000000000000000000000000000000600052604160045260246000fd5b610fa682610eea565b810181811067ffffffffffffffff82111715610fc557610fc4610f6e565b5b80604052505050565b6000610fd8610d42565b9050610fe48282610f9d565b919050565b600067ffffffffffffffff82111561100457611003610f6e565b5b61100d82610eea565b9050602081019050919050565b82818337600083830152505050565b600061103c61103784610fe9565b610fce565b90508281526020810184848401111561105857611057610f69565b5b61106384828561101a565b509392505050565b600082601f8301126110805761107f610f64565b5b8135611090848260208601611029565b91505092915050565b6000602082840312156110af576110ae610d4c565b5b600082013567ffffffffffffffff8111156110cd576110cc610d51565b5b6110d98482850161106b565b91505092915050565b6110eb81610dd9565b82525050565b600060208201905061110660008301846110e2565b92915050565b600081519050919050565b600082825260208201905092915050565b6000819050602082019050919050565b600082825260208201905092915050565b600061115482610ea4565b61115e8185611138565b935061116e818560208601610ec0565b61117781610eea565b840191505092915050565b61118b81610d56565b82525050565b600060408301600083015184820360008601526111ae8282611149565b91505060208301516111c36020860182611182565b508091505092915050565b60006111da8383611191565b905092915050565b6000602082019050919050565b60006111fa8261110c565b6112048185611117565b93508360208202850161121685611128565b8060005b85811015611252578484038952815161123385826111ce565b945061123e836111e2565b925060208a0199505060018101905061121a565b50829750879550505050505092915050565b6000602082019050818103600083015261127e81846111ef565b905092915050565b7f566f74696e67206973206e6f742063757272656e746c7920616c6c6f7765642e600082015250565b60006112bc602083610eaf565b91506112c782611286565b602082019050919050565b600060208201905081810360008301526112eb816112af565b9050919050565b7f596f75206861766520616c726561647920766f7465642e000000000000000000600082015250565b6000611328601783610eaf565b9150611333826112f2565b602082019050919050565b600060208201905081810360008301526113578161131b565b9050919050565b7f496e76616c69642063616e64696461746520696e6465782e0000000000000000600082015250565b6000611394601883610eaf565b915061139f8261135e565b602082019050919050565b600060208201905081810360008301526113c381611387565b9050919050565b7f4e487b7100000000000000000000000000000000000000000000000000000000600052603260045260246000fd5b7f4e487b7100000000000000000000000000000000000000000000000000000000600052601160045260246000fd5b600061143382610d56565b91507fffffffffffffffffffffffffffffffffffffffffffffffffffffffffffffffff8203611465576114646113f9565b5b600182019050919050565b600060408201905061148560008301856110e2565b6114926020830184610e7a565b9392505050565b60006040820190506114ae6000830185610e7a565b6114bb6020830184610e7a565b9392505050565b7f4e487b7100000000000000000000000000000000000000000000000000000000600052602260045260246000fd5b6000600282049050600182168061150957607f821691505b60208210810361151c5761151b6114c2565b5b50919050565b7f4f6e6c7920746865206f776e65722063616e20706572666f726d20746869732060008201527f616374696f6e2e00000000000000000000000000000000000000000000000000602082015250565b600061157e602783610eaf565b915061158982611522565b604082019050919050565b600060208201905081810360008301526115ad81611571565b9050919050565b60008190508160005260206000209050919050565b60006020601f8301049050919050565b600082821b905092915050565b6000600883026116167fffffffffffffffffffffffffffffffffffffffffffffffffffffffffffffffff826115d9565b61162086836115d9565b95508019841693508086168417925050509392505050565b6000819050919050565b600061165d61165861165384610d56565b611638565b610d56565b9050919050565b6000819050919050565b61167783611642565b61168b61168382611664565b8484546115e6565b825550505050565b600090565b6116a0611693565b6116ab81848461166e565b505050565b5b818110156116cf576116c4600082611698565b6001810190506116b1565b5050565b601f821115611714576116e5816115b4565b6116ee846115c9565b810160208510156116fd578190505b611711611709856115c9565b8301826116b0565b50505b505050565b600082821c905092915050565b600061173760001984600802611719565b1980831691505092915050565b60006117508383611726565b9150826002028217905092915050565b61176982610ea4565b67ffffffffffffffff81111561178257611781610f6e565b5b61178c82546114f1565b6117978282856116d3565b600060209050601f8311600181146117ca57600084156117b8578287015190505b6117c28582611744565b86555061182a565b601f1984166117d8866115b4565b60005b82811015611800578489015182556001820191506020850194506020810190506117db565b8683101561181d5784890151611819601f891682611726565b8355505b6001600288020188555050505b505050505050565b6000602082019050818103600083015261184c8184610efb565b905092915050565b7f566f74696e6720686173206e6f742073746172746564207965742e0000000000600082015250565b600061188a601b83610eaf565b915061189582611854565b602082019050919050565b600060208201905081810360008301526118b98161187d565b9050919050565b60006118cb82610d56565b91506118d683610d56565b92508282039050818111156118ee576118ed6113f9565b5b92915050565b7f4e6577206f776e657220616464726573732063616e6e6f74206265207a65726f60008201527f2e00000000000000000000000000000000000000000000000000000000000000602082015250565b6000611950602183610eaf565b915061195b826118f4565b604082019050919050565b6000602082019050818103600083015261197f81611943565b905091905056fea26469706673582212206d2ba16fbd65cddcd35f29b5e0a45cb83577aaa9088ffaa33ee09649ba6d6e4b64736f6c63430008180033",
  "linkReferences": {},
  "deployedLinkReferences": {}
}