{
	"contracts/FundMe.sol": {
		"FundMe": {
			"abi": [
				{
					"inputs": [],
					"stateMutability": "nonpayable",
					"type": "constructor"
				},
				{
					"inputs": [],
					"name": "NotOwner",
					"type": "error"
				},
				{
					"stateMutability": "payable",
					"type": "fallback"
				},
				{
					"inputs": [],
					"name": "MINIMUM_USD",
					"outputs": [
						{
							"internalType": "uint256",
							"name": "",
							"type": "uint256"
						}
					],
					"stateMutability": "view",
					"type": "function"
				},
				{
					"inputs": [
						{
							"internalType": "address",
							"name": "",
							"type": "address"
						}
					],
					"name": "addressToAmountFunded",
					"outputs": [
						{
							"internalType": "uint256",
							"name": "",
							"type": "uint256"
						}
					],
					"stateMutability": "view",
					"type": "function"
				},
				{
					"inputs": [],
					"name": "fund",
					"outputs": [],
					"stateMutability": "payable",
					"type": "function"
				},
				{
					"inputs": [
						{
							"internalType": "uint256",
							"name": "",
							"type": "uint256"
						}
					],
					"name": "funders",
					"outputs": [
						{
							"internalType": "address",
							"name": "",
							"type": "address"
						}
					],
					"stateMutability": "view",
					"type": "function"
				},
				{
					"inputs": [],
					"name": "i_owner",
					"outputs": [
						{
							"internalType": "address",
							"name": "",
							"type": "address"
						}
					],
					"stateMutability": "view",
					"type": "function"
				},
				{
					"inputs": [],
					"name": "myValue",
					"outputs": [
						{
							"internalType": "uint256",
							"name": "",
							"type": "uint256"
						}
					],
					"stateMutability": "view",
					"type": "function"
				},
				{
					"inputs": [],
					"name": "withdraw",
					"outputs": [],
					"stateMutability": "nonpayable",
					"type": "function"
				},
				{
					"stateMutability": "payable",
					"type": "receive"
				}
			],
			"devdoc": {
				"kind": "dev",
				"methods": {},
				"version": 1
			},
			"evm": {
				"assembly": "    /* \"contracts/FundMe.sol\":476:2940  contract FundMe {... */\n  mstore(0x40, 0xa0)\n    /* \"contracts/FundMe.sol\":694:695  1 */\n  0x01\n    /* \"contracts/FundMe.sol\":669:695  uint256 public myValue = 1 */\n  0x00\n  sstore\n    /* \"contracts/FundMe.sol\":1284:1335  constructor() {... */\n  callvalue\n  dup1\n  iszero\n  tag_1\n  jumpi\n  0x00\n  dup1\n  revert\ntag_1:\n  pop\n    /* \"contracts/FundMe.sol\":1318:1328  msg.sender */\n  caller\n    /* \"contracts/FundMe.sol\":1308:1328  i_owner = msg.sender */\n  0xffffffffffffffffffffffffffffffffffffffff\n  and\n  0x80\n  dup2\n  0xffffffffffffffffffffffffffffffffffffffff\n  and\n  dup2\n  mstore\n  pop\n  pop\n    /* \"contracts/FundMe.sol\":476:2940  contract FundMe {... */\n  mload(0x80)\n  codecopy(0x00, dataOffset(sub_0), dataSize(sub_0))\n  0x00\n  assignImmutable(\"0xcc143a676b82d5e07b2c9d57717b403ab3c58caa273a42cdb95b15980141a86c\")\n  return(0x00, dataSize(sub_0))\nstop\n\nsub_0: assembly {\n        /* \"contracts/FundMe.sol\":476:2940  contract FundMe {... */\n      mstore(0x40, 0x80)\n      jumpi(tag_1, lt(calldatasize, 0x04))\n      shr(0xe0, calldataload(0x00))\n      dup1\n      0x6b69a592\n      gt\n      tag_10\n      jumpi\n      dup1\n      0x6b69a592\n      eq\n      tag_6\n      jumpi\n      dup1\n      0xb60d4288\n      eq\n      tag_7\n      jumpi\n      dup1\n      0xdba6335f\n      eq\n      tag_8\n      jumpi\n      dup1\n      0xdc0d3dff\n      eq\n      tag_9\n      jumpi\n      jump(tag_2)\n    tag_10:\n      dup1\n      0x3ccfd60b\n      eq\n      tag_3\n      jumpi\n      dup1\n      0x3e47d6f3\n      eq\n      tag_4\n      jumpi\n      dup1\n      0x47f1aae7\n      eq\n      tag_5\n      jumpi\n      jump(tag_2)\n    tag_1:\n      jumpi(tag_2, calldatasize)\n        /* \"contracts/FundMe.sol\":2868:2874  fund() */\n      tag_13\n        /* \"contracts/FundMe.sol\":2868:2872  fund */\n      tag_14\n        /* \"contracts/FundMe.sol\":2868:2874  fund() */\n      jump\t// in\n    tag_13:\n        /* \"contracts/FundMe.sol\":476:2940  contract FundMe {... */\n      stop\n    tag_2:\n        /* \"contracts/FundMe.sol\":2925:2931  fund() */\n      tag_17\n        /* \"contracts/FundMe.sol\":2925:2929  fund */\n      tag_14\n        /* \"contracts/FundMe.sol\":2925:2931  fund() */\n      jump\t// in\n    tag_17:\n        /* \"contracts/FundMe.sol\":476:2940  contract FundMe {... */\n      stop\n        /* \"contracts/FundMe.sol\":1940:2610  function withdraw() public onlyOwner {... */\n    tag_3:\n      callvalue\n      dup1\n      iszero\n      tag_18\n      jumpi\n      0x00\n      dup1\n      revert\n    tag_18:\n      pop\n      tag_19\n      tag_20\n      jump\t// in\n    tag_19:\n      stop\n        /* \"contracts/FundMe.sol\":841:897  mapping(address => uint256) public addressToAmountFunded */\n    tag_4:\n      callvalue\n      dup1\n      iszero\n      tag_21\n      jumpi\n      0x00\n      dup1\n      revert\n    tag_21:\n      pop\n      tag_22\n      0x04\n      dup1\n      calldatasize\n      sub\n      dup2\n      add\n      swap1\n      tag_23\n      swap2\n      swap1\n      tag_24\n      jump\t// in\n    tag_23:\n      tag_25\n      jump\t// in\n    tag_22:\n      mload(0x40)\n      tag_26\n      swap2\n      swap1\n      tag_27\n      jump\t// in\n    tag_26:\n      mload(0x40)\n      dup1\n      swap2\n      sub\n      swap1\n      return\n        /* \"contracts/FundMe.sol\":669:695  uint256 public myValue = 1 */\n    tag_5:\n      callvalue\n      dup1\n      iszero\n      tag_28\n      jumpi\n      0x00\n      dup1\n      revert\n    tag_28:\n      pop\n      tag_29\n      tag_30\n      jump\t// in\n    tag_29:\n      mload(0x40)\n      tag_31\n      swap2\n      swap1\n      tag_27\n      jump\t// in\n    tag_31:\n      mload(0x40)\n      dup1\n      swap2\n      sub\n      swap1\n      return\n        /* \"contracts/FundMe.sol\":1138:1180  uint256 public constant MINIMUM_USD = 5e18 */\n    tag_6:\n      callvalue\n      dup1\n      iszero\n      tag_32\n      jumpi\n      0x00\n      dup1\n      revert\n    tag_32:\n      pop\n      tag_33\n      tag_34\n      jump\t// in\n    tag_33:\n      mload(0x40)\n      tag_35\n      swap2\n      swap1\n      tag_27\n      jump\t// in\n    tag_35:\n      mload(0x40)\n      dup1\n      swap2\n      sub\n      swap1\n      return\n        /* \"contracts/FundMe.sol\":1378:1878  function fund() public payable {... */\n    tag_7:\n      tag_36\n      tag_14\n      jump\t// in\n    tag_36:\n      stop\n        /* \"contracts/FundMe.sol\":971:1003  address public immutable i_owner */\n    tag_8:\n      callvalue\n      dup1\n      iszero\n      tag_37\n      jumpi\n      0x00\n      dup1\n      revert\n    tag_37:\n      pop\n      tag_38\n      tag_39\n      jump\t// in\n    tag_38:\n      mload(0x40)\n      tag_40\n      swap2\n      swap1\n      tag_41\n      jump\t// in\n    tag_40:\n      mload(0x40)\n      dup1\n      swap2\n      sub\n      swap1\n      return\n        /* \"contracts/FundMe.sol\":745:769  address[] public funders */\n    tag_9:\n      callvalue\n      dup1\n      iszero\n      tag_42\n      jumpi\n      0x00\n      dup1\n      revert\n    tag_42:\n      pop\n      tag_43\n      0x04\n      dup1\n      calldatasize\n      sub\n      dup2\n      add\n      swap1\n      tag_44\n      swap2\n      swap1\n      tag_45\n      jump\t// in\n    tag_44:\n      tag_46\n      jump\t// in\n    tag_43:\n      mload(0x40)\n      tag_47\n      swap2\n      swap1\n      tag_41\n      jump\t// in\n    tag_47:\n      mload(0x40)\n      dup1\n      swap2\n      sub\n      swap1\n      return\n        /* \"contracts/FundMe.sol\":1378:1878  function fund() public payable {... */\n    tag_14:\n        /* \"contracts/FundMe.sol\":1517:1518  2 */\n      0x02\n        /* \"contracts/FundMe.sol\":1507:1514  myValue */\n      sload(0x00)\n        /* \"contracts/FundMe.sol\":1507:1518  myValue + 2 */\n      tag_49\n      swap2\n      swap1\n      tag_50\n      jump\t// in\n    tag_49:\n        /* \"contracts/FundMe.sol\":1497:1504  myValue */\n      0x00\n        /* \"contracts/FundMe.sol\":1497:1518  myValue = myValue + 2 */\n      dup2\n      swap1\n      sstore\n      pop\n        /* \"contracts/FundMe.sol\":1176:1180  5e18 */\n      0x4563918244f40000\n        /* \"contracts/FundMe.sol\":1622:1651  msg.value.getConversionRate() */\n      tag_51\n        /* \"contracts/FundMe.sol\":1622:1631  msg.value */\n      callvalue\n        /* \"contracts/FundMe.sol\":1622:1649  msg.value.getConversionRate */\n      tag_52\n        /* \"contracts/FundMe.sol\":1622:1651  msg.value.getConversionRate() */\n      jump\t// in\n    tag_51:\n        /* \"contracts/FundMe.sol\":1622:1666  msg.value.getConversionRate() >= MINIMUM_USD */\n      lt\n      iszero\n        /* \"contracts/FundMe.sol\":1601:1714  require(... */\n      tag_53\n      jumpi\n      mload(0x40)\n      0x08c379a000000000000000000000000000000000000000000000000000000000\n      dup2\n      mstore\n      0x04\n      add\n      tag_54\n      swap1\n      tag_55\n      jump\t// in\n    tag_54:\n      mload(0x40)\n      dup1\n      swap2\n      sub\n      swap1\n      revert\n    tag_53:\n        /* \"contracts/FundMe.sol\":1791:1798  funders */\n      0x01\n        /* \"contracts/FundMe.sol\":1804:1814  msg.sender */\n      caller\n        /* \"contracts/FundMe.sol\":1791:1815  funders.push(msg.sender) */\n      swap1\n      dup1\n      0x01\n      dup2\n      sload\n      add\n      dup1\n      dup3\n      sstore\n      dup1\n      swap2\n      pop\n      pop\n      0x01\n      swap1\n      sub\n      swap1\n      0x00\n      mstore\n      keccak256(0x00, 0x20)\n      add\n      0x00\n      swap1\n      swap2\n      swap1\n      swap2\n      swap1\n      swap2\n      0x0100\n      exp\n      dup2\n      sload\n      dup2\n      0xffffffffffffffffffffffffffffffffffffffff\n      mul\n      not\n      and\n      swap1\n      dup4\n      0xffffffffffffffffffffffffffffffffffffffff\n      and\n      mul\n      or\n      swap1\n      sstore\n      pop\n        /* \"contracts/FundMe.sol\":1862:1871  msg.value */\n      callvalue\n        /* \"contracts/FundMe.sol\":1825:1846  addressToAmountFunded */\n      0x02\n        /* \"contracts/FundMe.sol\":1825:1858  addressToAmountFunded[msg.sender] */\n      0x00\n        /* \"contracts/FundMe.sol\":1847:1857  msg.sender */\n      caller\n        /* \"contracts/FundMe.sol\":1825:1858  addressToAmountFunded[msg.sender] */\n      0xffffffffffffffffffffffffffffffffffffffff\n      and\n      0xffffffffffffffffffffffffffffffffffffffff\n      and\n      dup2\n      mstore\n      0x20\n      add\n      swap1\n      dup2\n      mstore\n      0x20\n      add\n      0x00\n      keccak256\n      0x00\n        /* \"contracts/FundMe.sol\":1825:1871  addressToAmountFunded[msg.sender] += msg.value */\n      dup3\n      dup3\n      sload\n      tag_57\n      swap2\n      swap1\n      tag_50\n      jump\t// in\n    tag_57:\n      swap3\n      pop\n      pop\n      dup2\n      swap1\n      sstore\n      pop\n        /* \"contracts/FundMe.sol\":1378:1878  function fund() public payable {... */\n      jump\t// out\n        /* \"contracts/FundMe.sol\":1940:2610  function withdraw() public onlyOwner {... */\n    tag_20:\n        /* \"contracts/FundMe.sol\":2757:2764  i_owner */\n      immutable(\"0xcc143a676b82d5e07b2c9d57717b403ab3c58caa273a42cdb95b15980141a86c\")\n        /* \"contracts/FundMe.sol\":2743:2764  msg.sender != i_owner */\n      0xffffffffffffffffffffffffffffffffffffffff\n      and\n        /* \"contracts/FundMe.sol\":2743:2753  msg.sender */\n      caller\n        /* \"contracts/FundMe.sol\":2743:2764  msg.sender != i_owner */\n      0xffffffffffffffffffffffffffffffffffffffff\n      and\n      eq\n        /* \"contracts/FundMe.sol\":2739:2808  if (msg.sender != i_owner) {... */\n      tag_59\n      jumpi\n        /* \"contracts/FundMe.sol\":2787:2797  NotOwner() */\n      mload(0x40)\n      0x30cd747100000000000000000000000000000000000000000000000000000000\n      dup2\n      mstore\n      0x04\n      add\n      mload(0x40)\n      dup1\n      swap2\n      sub\n      swap1\n      revert\n        /* \"contracts/FundMe.sol\":2739:2808  if (msg.sender != i_owner) {... */\n    tag_59:\n        /* \"contracts/FundMe.sol\":2061:2080  uint256 funderIndex */\n      0x00\n        /* \"contracts/FundMe.sol\":2043:2273  for (... */\n    tag_61:\n        /* \"contracts/FundMe.sol\":2112:2119  funders */\n      0x01\n        /* \"contracts/FundMe.sol\":2112:2126  funders.length */\n      dup1\n      sload\n      swap1\n      pop\n        /* \"contracts/FundMe.sol\":2098:2109  funderIndex */\n      dup2\n        /* \"contracts/FundMe.sol\":2098:2126  funderIndex < funders.length */\n      lt\n        /* \"contracts/FundMe.sol\":2043:2273  for (... */\n      iszero\n      tag_62\n      jumpi\n        /* \"contracts/FundMe.sol\":2178:2192  address funder */\n      0x00\n        /* \"contracts/FundMe.sol\":2195:2202  funders */\n      0x01\n        /* \"contracts/FundMe.sol\":2203:2214  funderIndex */\n      dup3\n        /* \"contracts/FundMe.sol\":2195:2215  funders[funderIndex] */\n      dup2\n      sload\n      dup2\n      lt\n      tag_64\n      jumpi\n      tag_65\n      tag_66\n      jump\t// in\n    tag_65:\n    tag_64:\n      swap1\n      0x00\n      mstore\n      keccak256(0x00, 0x20)\n      add\n      0x00\n      swap1\n      sload\n      swap1\n      0x0100\n      exp\n      swap1\n      div\n      0xffffffffffffffffffffffffffffffffffffffff\n      and\n        /* \"contracts/FundMe.sol\":2178:2215  address funder = funders[funderIndex] */\n      swap1\n      pop\n        /* \"contracts/FundMe.sol\":2261:2262  0 */\n      0x00\n        /* \"contracts/FundMe.sol\":2229:2250  addressToAmountFunded */\n      0x02\n        /* \"contracts/FundMe.sol\":2229:2258  addressToAmountFunded[funder] */\n      0x00\n        /* \"contracts/FundMe.sol\":2251:2257  funder */\n      dup4\n        /* \"contracts/FundMe.sol\":2229:2258  addressToAmountFunded[funder] */\n      0xffffffffffffffffffffffffffffffffffffffff\n      and\n      0xffffffffffffffffffffffffffffffffffffffff\n      and\n      dup2\n      mstore\n      0x20\n      add\n      swap1\n      dup2\n      mstore\n      0x20\n      add\n      0x00\n      keccak256\n        /* \"contracts/FundMe.sol\":2229:2262  addressToAmountFunded[funder] = 0 */\n      dup2\n      swap1\n      sstore\n      pop\n        /* \"contracts/FundMe.sol\":2164:2273  {... */\n      pop\n        /* \"contracts/FundMe.sol\":2140:2153  funderIndex++ */\n      dup1\n      dup1\n      0x01\n      add\n      swap2\n      pop\n      pop\n        /* \"contracts/FundMe.sol\":2043:2273  for (... */\n      jump(tag_61)\n    tag_62:\n      pop\n        /* \"contracts/FundMe.sol\":2342:2343  0 */\n      0x00\n        /* \"contracts/FundMe.sol\":2328:2344  new address[](0) */\n      0xffffffffffffffff\n      dup2\n      gt\n      iszero\n      tag_68\n      jumpi\n      tag_69\n      tag_70\n      jump\t// in\n    tag_69:\n    tag_68:\n      mload(0x40)\n      swap1\n      dup1\n      dup3\n      mstore\n      dup1\n      0x20\n      mul\n      0x20\n      add\n      dup3\n      add\n      0x40\n      mstore\n      dup1\n      iszero\n      tag_71\n      jumpi\n      dup2\n      0x20\n      add\n      0x20\n      dup3\n      mul\n      dup1\n      calldatasize\n      dup4\n      calldatacopy\n      dup1\n      dup3\n      add\n      swap2\n      pop\n      pop\n      swap1\n      pop\n    tag_71:\n      pop\n        /* \"contracts/FundMe.sol\":2318:2325  funders */\n      0x01\n        /* \"contracts/FundMe.sol\":2318:2344  funders = new address[](0) */\n      swap1\n      dup1\n      mload\n      swap1\n      0x20\n      add\n      swap1\n      tag_72\n      swap3\n      swap2\n      swap1\n      tag_73\n      jump\t// in\n    tag_72:\n      pop\n        /* \"contracts/FundMe.sol\":2449:2465  bool callSuccess */\n      0x00\n        /* \"contracts/FundMe.sol\":2479:2489  msg.sender */\n      caller\n        /* \"contracts/FundMe.sol\":2471:2495  payable(msg.sender).call */\n      0xffffffffffffffffffffffffffffffffffffffff\n      and\n        /* \"contracts/FundMe.sol\":2516:2537  address(this).balance */\n      selfbalance\n        /* \"contracts/FundMe.sol\":2471:2551  payable(msg.sender).call{... */\n      mload(0x40)\n      tag_74\n      swap1\n      tag_75\n      jump\t// in\n    tag_74:\n      0x00\n      mload(0x40)\n      dup1\n      dup4\n      sub\n      dup2\n      dup6\n      dup8\n      gas\n      call\n      swap3\n      pop\n      pop\n      pop\n      returndatasize\n      dup1\n      0x00\n      dup2\n      eq\n      tag_78\n      jumpi\n      mload(0x40)\n      swap2\n      pop\n      and(add(returndatasize, 0x3f), not(0x1f))\n      dup3\n      add\n      0x40\n      mstore\n      returndatasize\n      dup3\n      mstore\n      returndatasize\n      0x00\n      0x20\n      dup5\n      add\n      returndatacopy\n      jump(tag_77)\n    tag_78:\n      0x60\n      swap2\n      pop\n    tag_77:\n      pop\n        /* \"contracts/FundMe.sol\":2448:2551  (bool callSuccess, ) = payable(msg.sender).call{... */\n      pop\n      swap1\n      pop\n        /* \"contracts/FundMe.sol\":2569:2580  callSuccess */\n      dup1\n        /* \"contracts/FundMe.sol\":2561:2603  require(callSuccess, \"Transaction failed\") */\n      tag_79\n      jumpi\n      mload(0x40)\n      0x08c379a000000000000000000000000000000000000000000000000000000000\n      dup2\n      mstore\n      0x04\n      add\n      tag_80\n      swap1\n      tag_81\n      jump\t// in\n    tag_80:\n      mload(0x40)\n      dup1\n      swap2\n      sub\n      swap1\n      revert\n    tag_79:\n        /* \"contracts/FundMe.sol\":1977:2610  {... */\n      pop\n        /* \"contracts/FundMe.sol\":1940:2610  function withdraw() public onlyOwner {... */\n      jump\t// out\n        /* \"contracts/FundMe.sol\":841:897  mapping(address => uint256) public addressToAmountFunded */\n    tag_25:\n      mstore(0x20, 0x02)\n      dup1\n      0x00\n      mstore\n      keccak256(0x00, 0x40)\n      0x00\n      swap2\n      pop\n      swap1\n      pop\n      sload\n      dup2\n      jump\t// out\n        /* \"contracts/FundMe.sol\":669:695  uint256 public myValue = 1 */\n    tag_30:\n      sload(0x00)\n      dup2\n      jump\t// out\n        /* \"contracts/FundMe.sol\":1138:1180  uint256 public constant MINIMUM_USD = 5e18 */\n    tag_34:\n        /* \"contracts/FundMe.sol\":1176:1180  5e18 */\n      0x4563918244f40000\n        /* \"contracts/FundMe.sol\":1138:1180  uint256 public constant MINIMUM_USD = 5e18 */\n      dup2\n      jump\t// out\n        /* \"contracts/FundMe.sol\":971:1003  address public immutable i_owner */\n    tag_39:\n      immutable(\"0xcc143a676b82d5e07b2c9d57717b403ab3c58caa273a42cdb95b15980141a86c\")\n      dup2\n      jump\t// out\n        /* \"contracts/FundMe.sol\":745:769  address[] public funders */\n    tag_46:\n      0x01\n      dup2\n      dup2\n      sload\n      dup2\n      lt\n      tag_82\n      jumpi\n      0x00\n      dup1\n      revert\n    tag_82:\n      swap1\n      0x00\n      mstore\n      keccak256(0x00, 0x20)\n      add\n      0x00\n      swap2\n      pop\n      sload\n      swap1\n      0x0100\n      exp\n      swap1\n      div\n      0xffffffffffffffffffffffffffffffffffffffff\n      and\n      dup2\n      jump\t// out\n        /* \"contracts/PriceConverter.sol\":1502:1905  function getConversionRate(uint256 ethAmount)... */\n    tag_52:\n        /* \"contracts/PriceConverter.sol\":1595:1602  uint256 */\n      0x00\n        /* \"contracts/PriceConverter.sol\":1665:1681  uint256 ethPrice */\n      dup1\n        /* \"contracts/PriceConverter.sol\":1684:1694  getPrice() */\n      tag_85\n        /* \"contracts/PriceConverter.sol\":1684:1692  getPrice */\n      tag_86\n        /* \"contracts/PriceConverter.sol\":1684:1694  getPrice() */\n      jump\t// in\n    tag_85:\n        /* \"contracts/PriceConverter.sol\":1665:1694  uint256 ethPrice = getPrice() */\n      swap1\n      pop\n        /* \"contracts/PriceConverter.sol\":1769:1791  uint256 ethAmountInUsd */\n      0x00\n        /* \"contracts/PriceConverter.sol\":1819:1823  1e18 */\n      0x0de0b6b3a7640000\n        /* \"contracts/PriceConverter.sol\":1806:1815  ethAmount */\n      dup5\n        /* \"contracts/PriceConverter.sol\":1795:1803  ethPrice */\n      dup4\n        /* \"contracts/PriceConverter.sol\":1795:1815  ethPrice * ethAmount */\n      tag_87\n      swap2\n      swap1\n      tag_88\n      jump\t// in\n    tag_87:\n        /* \"contracts/PriceConverter.sol\":1794:1823  (ethPrice * ethAmount) / 1e18 */\n      tag_89\n      swap2\n      swap1\n      tag_90\n      jump\t// in\n    tag_89:\n        /* \"contracts/PriceConverter.sol\":1769:1823  uint256 ethAmountInUsd = (ethPrice * ethAmount) / 1e18 */\n      swap1\n      pop\n        /* \"contracts/PriceConverter.sol\":1884:1898  ethAmountInUsd */\n      dup1\n        /* \"contracts/PriceConverter.sol\":1877:1898  return ethAmountInUsd */\n      swap3\n      pop\n      pop\n      pop\n        /* \"contracts/PriceConverter.sol\":1502:1905  function getConversionRate(uint256 ethAmount)... */\n      swap2\n      swap1\n      pop\n      jump\t// out\n        /* \"contracts/PriceConverter.sol\":357:1102  function getPrice() internal view returns (uint256) {... */\n    tag_86:\n        /* \"contracts/PriceConverter.sol\":400:407  uint256 */\n      0x00\n        /* \"contracts/PriceConverter.sol\":489:520  AggregatorV3Interface priceFeed */\n      dup1\n        /* \"contracts/PriceConverter.sol\":558:600  0x694AA1769357215DE4FAC081bf1f309aDC325306 */\n      0x694aa1769357215de4fac081bf1f309adc325306\n        /* \"contracts/PriceConverter.sol\":489:610  AggregatorV3Interface priceFeed = AggregatorV3Interface(... */\n      swap1\n      pop\n        /* \"contracts/PriceConverter.sol\":724:737  int256 answer */\n      0x00\n        /* \"contracts/PriceConverter.sol\":920:929  priceFeed */\n      dup2\n        /* \"contracts/PriceConverter.sol\":920:945  priceFeed.latestRoundData */\n      0xffffffffffffffffffffffffffffffffffffffff\n      and\n      0xfeaf968c\n        /* \"contracts/PriceConverter.sol\":920:947  priceFeed.latestRoundData() */\n      mload(0x40)\n      dup2\n      0xffffffff\n      and\n      0xe0\n      shl\n      dup2\n      mstore\n      0x04\n      add\n      0xa0\n      mload(0x40)\n      dup1\n      dup4\n      sub\n      dup2\n      dup7\n      gas\n      staticcall\n      iszero\n      dup1\n      iszero\n      tag_93\n      jumpi\n      returndatasize\n      0x00\n      dup1\n      returndatacopy\n      revert(0x00, returndatasize)\n    tag_93:\n      pop\n      pop\n      pop\n      pop\n      mload(0x40)\n      returndatasize\n      not(0x1f)\n      0x1f\n      dup3\n      add\n      and\n      dup3\n      add\n      dup1\n      0x40\n      mstore\n      pop\n      dup2\n      add\n      swap1\n      tag_94\n      swap2\n      swap1\n      tag_95\n      jump\t// in\n    tag_94:\n        /* \"contracts/PriceConverter.sol\":663:947  (... */\n      pop\n      pop\n      pop\n      swap2\n      pop\n      pop\n        /* \"contracts/PriceConverter.sol\":1049:1053  1e10 */\n      0x02540be400\n        /* \"contracts/PriceConverter.sol\":1040:1046  answer */\n      dup2\n        /* \"contracts/PriceConverter.sol\":1040:1053  answer * 1e10 */\n      tag_96\n      swap2\n      swap1\n      tag_97\n      jump\t// in\n    tag_96:\n        /* \"contracts/PriceConverter.sol\":1025:1054  return uint256(answer * 1e10) */\n      swap3\n      pop\n      pop\n      pop\n        /* \"contracts/PriceConverter.sol\":357:1102  function getPrice() internal view returns (uint256) {... */\n      swap1\n      jump\t// out\n    tag_73:\n      dup3\n      dup1\n      sload\n      dup3\n      dup3\n      sstore\n      swap1\n      0x00\n      mstore\n      keccak256(0x00, 0x20)\n      swap1\n      dup2\n      add\n      swap3\n      dup3\n      iszero\n      tag_98\n      jumpi\n      swap2\n      0x20\n      mul\n      dup3\n      add\n    tag_99:\n      dup3\n      dup2\n      gt\n      iszero\n      tag_100\n      jumpi\n      dup3\n      mload\n      dup3\n      exp(0x0100, 0x00)\n      dup2\n      sload\n      dup2\n      0xffffffffffffffffffffffffffffffffffffffff\n      mul\n      not\n      and\n      swap1\n      dup4\n      0xffffffffffffffffffffffffffffffffffffffff\n      and\n      mul\n      or\n      swap1\n      sstore\n      pop\n      swap2\n      0x20\n      add\n      swap2\n      swap1\n      0x01\n      add\n      swap1\n      jump(tag_99)\n    tag_100:\n    tag_98:\n      pop\n      swap1\n      pop\n      tag_101\n      swap2\n      swap1\n      tag_102\n      jump\t// in\n    tag_101:\n      pop\n      swap1\n      jump\t// out\n    tag_102:\n    tag_103:\n      dup1\n      dup3\n      gt\n      iszero\n      tag_104\n      jumpi\n      0x00\n      dup2\n      0x00\n      swap1\n      sstore\n      pop\n      0x01\n      add\n      jump(tag_103)\n    tag_104:\n      pop\n      swap1\n      jump\t// out\n        /* \"#utility.yul\":88:205   */\n    tag_106:\n        /* \"#utility.yul\":197:198   */\n      0x00\n        /* \"#utility.yul\":194:195   */\n      dup1\n        /* \"#utility.yul\":187:199   */\n      revert\n        /* \"#utility.yul\":334:460   */\n    tag_108:\n        /* \"#utility.yul\":371:378   */\n      0x00\n        /* \"#utility.yul\":411:453   */\n      0xffffffffffffffffffffffffffffffffffffffff\n        /* \"#utility.yul\":404:409   */\n      dup3\n        /* \"#utility.yul\":400:454   */\n      and\n        /* \"#utility.yul\":389:454   */\n      swap1\n      pop\n        /* \"#utility.yul\":334:460   */\n      swap2\n      swap1\n      pop\n      jump\t// out\n        /* \"#utility.yul\":466:562   */\n    tag_109:\n        /* \"#utility.yul\":503:510   */\n      0x00\n        /* \"#utility.yul\":532:556   */\n      tag_140\n        /* \"#utility.yul\":550:555   */\n      dup3\n        /* \"#utility.yul\":532:556   */\n      tag_108\n      jump\t// in\n    tag_140:\n        /* \"#utility.yul\":521:556   */\n      swap1\n      pop\n        /* \"#utility.yul\":466:562   */\n      swap2\n      swap1\n      pop\n      jump\t// out\n        /* \"#utility.yul\":568:690   */\n    tag_110:\n        /* \"#utility.yul\":641:665   */\n      tag_142\n        /* \"#utility.yul\":659:664   */\n      dup2\n        /* \"#utility.yul\":641:665   */\n      tag_109\n      jump\t// in\n    tag_142:\n        /* \"#utility.yul\":634:639   */\n      dup2\n        /* \"#utility.yul\":631:666   */\n      eq\n        /* \"#utility.yul\":621:684   */\n      tag_143\n      jumpi\n        /* \"#utility.yul\":680:681   */\n      0x00\n        /* \"#utility.yul\":677:678   */\n      dup1\n        /* \"#utility.yul\":670:682   */\n      revert\n        /* \"#utility.yul\":621:684   */\n    tag_143:\n        /* \"#utility.yul\":568:690   */\n      pop\n      jump\t// out\n        /* \"#utility.yul\":696:835   */\n    tag_111:\n        /* \"#utility.yul\":742:747   */\n      0x00\n        /* \"#utility.yul\":780:786   */\n      dup2\n        /* \"#utility.yul\":767:787   */\n      calldataload\n        /* \"#utility.yul\":758:787   */\n      swap1\n      pop\n        /* \"#utility.yul\":796:829   */\n      tag_145\n        /* \"#utility.yul\":823:828   */\n      dup2\n        /* \"#utility.yul\":796:829   */\n      tag_110\n      jump\t// in\n    tag_145:\n        /* \"#utility.yul\":696:835   */\n      swap3\n      swap2\n      pop\n      pop\n      jump\t// out\n        /* \"#utility.yul\":841:1170   */\n    tag_24:\n        /* \"#utility.yul\":900:906   */\n      0x00\n        /* \"#utility.yul\":949:951   */\n      0x20\n        /* \"#utility.yul\":937:946   */\n      dup3\n        /* \"#utility.yul\":928:935   */\n      dup5\n        /* \"#utility.yul\":924:947   */\n      sub\n        /* \"#utility.yul\":920:952   */\n      slt\n        /* \"#utility.yul\":917:1036   */\n      iszero\n      tag_147\n      jumpi\n        /* \"#utility.yul\":955:1034   */\n      tag_148\n      tag_106\n      jump\t// in\n    tag_148:\n        /* \"#utility.yul\":917:1036   */\n    tag_147:\n        /* \"#utility.yul\":1075:1076   */\n      0x00\n        /* \"#utility.yul\":1100:1153   */\n      tag_149\n        /* \"#utility.yul\":1145:1152   */\n      dup5\n        /* \"#utility.yul\":1136:1142   */\n      dup3\n        /* \"#utility.yul\":1125:1134   */\n      dup6\n        /* \"#utility.yul\":1121:1143   */\n      add\n        /* \"#utility.yul\":1100:1153   */\n      tag_111\n      jump\t// in\n    tag_149:\n        /* \"#utility.yul\":1090:1153   */\n      swap2\n      pop\n        /* \"#utility.yul\":1046:1163   */\n      pop\n        /* \"#utility.yul\":841:1170   */\n      swap3\n      swap2\n      pop\n      pop\n      jump\t// out\n        /* \"#utility.yul\":1176:1253   */\n    tag_112:\n        /* \"#utility.yul\":1213:1220   */\n      0x00\n        /* \"#utility.yul\":1242:1247   */\n      dup2\n        /* \"#utility.yul\":1231:1247   */\n      swap1\n      pop\n        /* \"#utility.yul\":1176:1253   */\n      swap2\n      swap1\n      pop\n      jump\t// out\n        /* \"#utility.yul\":1259:1377   */\n    tag_113:\n        /* \"#utility.yul\":1346:1370   */\n      tag_152\n        /* \"#utility.yul\":1364:1369   */\n      dup2\n        /* \"#utility.yul\":1346:1370   */\n      tag_112\n      jump\t// in\n    tag_152:\n        /* \"#utility.yul\":1341:1344   */\n      dup3\n        /* \"#utility.yul\":1334:1371   */\n      mstore\n        /* \"#utility.yul\":1259:1377   */\n      pop\n      pop\n      jump\t// out\n        /* \"#utility.yul\":1383:1605   */\n    tag_27:\n        /* \"#utility.yul\":1476:1480   */\n      0x00\n        /* \"#utility.yul\":1514:1516   */\n      0x20\n        /* \"#utility.yul\":1503:1512   */\n      dup3\n        /* \"#utility.yul\":1499:1517   */\n      add\n        /* \"#utility.yul\":1491:1517   */\n      swap1\n      pop\n        /* \"#utility.yul\":1527:1598   */\n      tag_154\n        /* \"#utility.yul\":1595:1596   */\n      0x00\n        /* \"#utility.yul\":1584:1593   */\n      dup4\n        /* \"#utility.yul\":1580:1597   */\n      add\n        /* \"#utility.yul\":1571:1577   */\n      dup5\n        /* \"#utility.yul\":1527:1598   */\n      tag_113\n      jump\t// in\n    tag_154:\n        /* \"#utility.yul\":1383:1605   */\n      swap3\n      swap2\n      pop\n      pop\n      jump\t// out\n        /* \"#utility.yul\":1611:1729   */\n    tag_114:\n        /* \"#utility.yul\":1698:1722   */\n      tag_156\n        /* \"#utility.yul\":1716:1721   */\n      dup2\n        /* \"#utility.yul\":1698:1722   */\n      tag_109\n      jump\t// in\n    tag_156:\n        /* \"#utility.yul\":1693:1696   */\n      dup3\n        /* \"#utility.yul\":1686:1723   */\n      mstore\n        /* \"#utility.yul\":1611:1729   */\n      pop\n      pop\n      jump\t// out\n        /* \"#utility.yul\":1735:1957   */\n    tag_41:\n        /* \"#utility.yul\":1828:1832   */\n      0x00\n        /* \"#utility.yul\":1866:1868   */\n      0x20\n        /* \"#utility.yul\":1855:1864   */\n      dup3\n        /* \"#utility.yul\":1851:1869   */\n      add\n        /* \"#utility.yul\":1843:1869   */\n      swap1\n      pop\n        /* \"#utility.yul\":1879:1950   */\n      tag_158\n        /* \"#utility.yul\":1947:1948   */\n      0x00\n        /* \"#utility.yul\":1936:1945   */\n      dup4\n        /* \"#utility.yul\":1932:1949   */\n      add\n        /* \"#utility.yul\":1923:1929   */\n      dup5\n        /* \"#utility.yul\":1879:1950   */\n      tag_114\n      jump\t// in\n    tag_158:\n        /* \"#utility.yul\":1735:1957   */\n      swap3\n      swap2\n      pop\n      pop\n      jump\t// out\n        /* \"#utility.yul\":1963:2085   */\n    tag_115:\n        /* \"#utility.yul\":2036:2060   */\n      tag_160\n        /* \"#utility.yul\":2054:2059   */\n      dup2\n        /* \"#utility.yul\":2036:2060   */\n      tag_112\n      jump\t// in\n    tag_160:\n        /* \"#utility.yul\":2029:2034   */\n      dup2\n        /* \"#utility.yul\":2026:2061   */\n      eq\n        /* \"#utility.yul\":2016:2079   */\n      tag_161\n      jumpi\n        /* \"#utility.yul\":2075:2076   */\n      0x00\n        /* \"#utility.yul\":2072:2073   */\n      dup1\n        /* \"#utility.yul\":2065:2077   */\n      revert\n        /* \"#utility.yul\":2016:2079   */\n    tag_161:\n        /* \"#utility.yul\":1963:2085   */\n      pop\n      jump\t// out\n        /* \"#utility.yul\":2091:2230   */\n    tag_116:\n        /* \"#utility.yul\":2137:2142   */\n      0x00\n        /* \"#utility.yul\":2175:2181   */\n      dup2\n        /* \"#utility.yul\":2162:2182   */\n      calldataload\n        /* \"#utility.yul\":2153:2182   */\n      swap1\n      pop\n        /* \"#utility.yul\":2191:2224   */\n      tag_163\n        /* \"#utility.yul\":2218:2223   */\n      dup2\n        /* \"#utility.yul\":2191:2224   */\n      tag_115\n      jump\t// in\n    tag_163:\n        /* \"#utility.yul\":2091:2230   */\n      swap3\n      swap2\n      pop\n      pop\n      jump\t// out\n        /* \"#utility.yul\":2236:2565   */\n    tag_45:\n        /* \"#utility.yul\":2295:2301   */\n      0x00\n        /* \"#utility.yul\":2344:2346   */\n      0x20\n        /* \"#utility.yul\":2332:2341   */\n      dup3\n        /* \"#utility.yul\":2323:2330   */\n      dup5\n        /* \"#utility.yul\":2319:2342   */\n      sub\n        /* \"#utility.yul\":2315:2347   */\n      slt\n        /* \"#utility.yul\":2312:2431   */\n      iszero\n      tag_165\n      jumpi\n        /* \"#utility.yul\":2350:2429   */\n      tag_166\n      tag_106\n      jump\t// in\n    tag_166:\n        /* \"#utility.yul\":2312:2431   */\n    tag_165:\n        /* \"#utility.yul\":2470:2471   */\n      0x00\n        /* \"#utility.yul\":2495:2548   */\n      tag_167\n        /* \"#utility.yul\":2540:2547   */\n      dup5\n        /* \"#utility.yul\":2531:2537   */\n      dup3\n        /* \"#utility.yul\":2520:2529   */\n      dup6\n        /* \"#utility.yul\":2516:2538   */\n      add\n        /* \"#utility.yul\":2495:2548   */\n      tag_116\n      jump\t// in\n    tag_167:\n        /* \"#utility.yul\":2485:2548   */\n      swap2\n      pop\n        /* \"#utility.yul\":2441:2558   */\n      pop\n        /* \"#utility.yul\":2236:2565   */\n      swap3\n      swap2\n      pop\n      pop\n      jump\t// out\n        /* \"#utility.yul\":2571:2751   */\n    tag_117:\n        /* \"#utility.yul\":2619:2696   */\n      0x4e487b7100000000000000000000000000000000000000000000000000000000\n        /* \"#utility.yul\":2616:2617   */\n      0x00\n        /* \"#utility.yul\":2609:2697   */\n      mstore\n        /* \"#utility.yul\":2716:2720   */\n      0x11\n        /* \"#utility.yul\":2713:2714   */\n      0x04\n        /* \"#utility.yul\":2706:2721   */\n      mstore\n        /* \"#utility.yul\":2740:2744   */\n      0x24\n        /* \"#utility.yul\":2737:2738   */\n      0x00\n        /* \"#utility.yul\":2730:2745   */\n      revert\n        /* \"#utility.yul\":2757:2948   */\n    tag_50:\n        /* \"#utility.yul\":2797:2800   */\n      0x00\n        /* \"#utility.yul\":2816:2836   */\n      tag_170\n        /* \"#utility.yul\":2834:2835   */\n      dup3\n        /* \"#utility.yul\":2816:2836   */\n      tag_112\n      jump\t// in\n    tag_170:\n        /* \"#utility.yul\":2811:2836   */\n      swap2\n      pop\n        /* \"#utility.yul\":2850:2870   */\n      tag_171\n        /* \"#utility.yul\":2868:2869   */\n      dup4\n        /* \"#utility.yul\":2850:2870   */\n      tag_112\n      jump\t// in\n    tag_171:\n        /* \"#utility.yul\":2845:2870   */\n      swap3\n      pop\n        /* \"#utility.yul\":2893:2894   */\n      dup3\n        /* \"#utility.yul\":2890:2891   */\n      dup3\n        /* \"#utility.yul\":2886:2895   */\n      add\n        /* \"#utility.yul\":2879:2895   */\n      swap1\n      pop\n        /* \"#utility.yul\":2914:2917   */\n      dup1\n        /* \"#utility.yul\":2911:2912   */\n      dup3\n        /* \"#utility.yul\":2908:2918   */\n      gt\n        /* \"#utility.yul\":2905:2941   */\n      iszero\n      tag_172\n      jumpi\n        /* \"#utility.yul\":2921:2939   */\n      tag_173\n      tag_117\n      jump\t// in\n    tag_173:\n        /* \"#utility.yul\":2905:2941   */\n    tag_172:\n        /* \"#utility.yul\":2757:2948   */\n      swap3\n      swap2\n      pop\n      pop\n      jump\t// out\n        /* \"#utility.yul\":2954:3123   */\n    tag_118:\n        /* \"#utility.yul\":3038:3049   */\n      0x00\n        /* \"#utility.yul\":3072:3078   */\n      dup3\n        /* \"#utility.yul\":3067:3070   */\n      dup3\n        /* \"#utility.yul\":3060:3079   */\n      mstore\n        /* \"#utility.yul\":3112:3116   */\n      0x20\n        /* \"#utility.yul\":3107:3110   */\n      dup3\n        /* \"#utility.yul\":3103:3117   */\n      add\n        /* \"#utility.yul\":3088:3117   */\n      swap1\n      pop\n        /* \"#utility.yul\":2954:3123   */\n      swap3\n      swap2\n      pop\n      pop\n      jump\t// out\n        /* \"#utility.yul\":3129:3301   */\n    tag_119:\n        /* \"#utility.yul\":3269:3293   */\n      0x4469646e27742073656e6420656e6f7567682045544800000000000000000000\n        /* \"#utility.yul\":3265:3266   */\n      0x00\n        /* \"#utility.yul\":3257:3263   */\n      dup3\n        /* \"#utility.yul\":3253:3267   */\n      add\n        /* \"#utility.yul\":3246:3294   */\n      mstore\n        /* \"#utility.yul\":3129:3301   */\n      pop\n      jump\t// out\n        /* \"#utility.yul\":3307:3673   */\n    tag_120:\n        /* \"#utility.yul\":3449:3452   */\n      0x00\n        /* \"#utility.yul\":3470:3537   */\n      tag_177\n        /* \"#utility.yul\":3534:3536   */\n      0x16\n        /* \"#utility.yul\":3529:3532   */\n      dup4\n        /* \"#utility.yul\":3470:3537   */\n      tag_118\n      jump\t// in\n    tag_177:\n        /* \"#utility.yul\":3463:3537   */\n      swap2\n      pop\n        /* \"#utility.yul\":3546:3639   */\n      tag_178\n        /* \"#utility.yul\":3635:3638   */\n      dup3\n        /* \"#utility.yul\":3546:3639   */\n      tag_119\n      jump\t// in\n    tag_178:\n        /* \"#utility.yul\":3664:3666   */\n      0x20\n        /* \"#utility.yul\":3659:3662   */\n      dup3\n        /* \"#utility.yul\":3655:3667   */\n      add\n        /* \"#utility.yul\":3648:3667   */\n      swap1\n      pop\n        /* \"#utility.yul\":3307:3673   */\n      swap2\n      swap1\n      pop\n      jump\t// out\n        /* \"#utility.yul\":3679:4098   */\n    tag_55:\n        /* \"#utility.yul\":3845:3849   */\n      0x00\n        /* \"#utility.yul\":3883:3885   */\n      0x20\n        /* \"#utility.yul\":3872:3881   */\n      dup3\n        /* \"#utility.yul\":3868:3886   */\n      add\n        /* \"#utility.yul\":3860:3886   */\n      swap1\n      pop\n        /* \"#utility.yul\":3932:3941   */\n      dup2\n        /* \"#utility.yul\":3926:3930   */\n      dup2\n        /* \"#utility.yul\":3922:3942   */\n      sub\n        /* \"#utility.yul\":3918:3919   */\n      0x00\n        /* \"#utility.yul\":3907:3916   */\n      dup4\n        /* \"#utility.yul\":3903:3920   */\n      add\n        /* \"#utility.yul\":3896:3943   */\n      mstore\n        /* \"#utility.yul\":3960:4091   */\n      tag_180\n        /* \"#utility.yul\":4086:4090   */\n      dup2\n        /* \"#utility.yul\":3960:4091   */\n      tag_120\n      jump\t// in\n    tag_180:\n        /* \"#utility.yul\":3952:4091   */\n      swap1\n      pop\n        /* \"#utility.yul\":3679:4098   */\n      swap2\n      swap1\n      pop\n      jump\t// out\n        /* \"#utility.yul\":4104:4284   */\n    tag_66:\n        /* \"#utility.yul\":4152:4229   */\n      0x4e487b7100000000000000000000000000000000000000000000000000000000\n        /* \"#utility.yul\":4149:4150   */\n      0x00\n        /* \"#utility.yul\":4142:4230   */\n      mstore\n        /* \"#utility.yul\":4249:4253   */\n      0x32\n        /* \"#utility.yul\":4246:4247   */\n      0x04\n        /* \"#utility.yul\":4239:4254   */\n      mstore\n        /* \"#utility.yul\":4273:4277   */\n      0x24\n        /* \"#utility.yul\":4270:4271   */\n      0x00\n        /* \"#utility.yul\":4263:4278   */\n      revert\n        /* \"#utility.yul\":4290:4470   */\n    tag_70:\n        /* \"#utility.yul\":4338:4415   */\n      0x4e487b7100000000000000000000000000000000000000000000000000000000\n        /* \"#utility.yul\":4335:4336   */\n      0x00\n        /* \"#utility.yul\":4328:4416   */\n      mstore\n        /* \"#utility.yul\":4435:4439   */\n      0x41\n        /* \"#utility.yul\":4432:4433   */\n      0x04\n        /* \"#utility.yul\":4425:4440   */\n      mstore\n        /* \"#utility.yul\":4459:4463   */\n      0x24\n        /* \"#utility.yul\":4456:4457   */\n      0x00\n        /* \"#utility.yul\":4449:4464   */\n      revert\n        /* \"#utility.yul\":4476:4623   */\n    tag_121:\n        /* \"#utility.yul\":4577:4588   */\n      0x00\n        /* \"#utility.yul\":4614:4617   */\n      dup2\n        /* \"#utility.yul\":4599:4617   */\n      swap1\n      pop\n        /* \"#utility.yul\":4476:4623   */\n      swap3\n      swap2\n      pop\n      pop\n      jump\t// out\n        /* \"#utility.yul\":4629:4743   */\n    tag_122:\n      pop\n      jump\t// out\n        /* \"#utility.yul\":4749:5147   */\n    tag_123:\n        /* \"#utility.yul\":4908:4911   */\n      0x00\n        /* \"#utility.yul\":4929:5012   */\n      tag_186\n        /* \"#utility.yul\":5010:5011   */\n      0x00\n        /* \"#utility.yul\":5005:5008   */\n      dup4\n        /* \"#utility.yul\":4929:5012   */\n      tag_121\n      jump\t// in\n    tag_186:\n        /* \"#utility.yul\":4922:5012   */\n      swap2\n      pop\n        /* \"#utility.yul\":5021:5114   */\n      tag_187\n        /* \"#utility.yul\":5110:5113   */\n      dup3\n        /* \"#utility.yul\":5021:5114   */\n      tag_122\n      jump\t// in\n    tag_187:\n        /* \"#utility.yul\":5139:5140   */\n      0x00\n        /* \"#utility.yul\":5134:5137   */\n      dup3\n        /* \"#utility.yul\":5130:5141   */\n      add\n        /* \"#utility.yul\":5123:5141   */\n      swap1\n      pop\n        /* \"#utility.yul\":4749:5147   */\n      swap2\n      swap1\n      pop\n      jump\t// out\n        /* \"#utility.yul\":5153:5532   */\n    tag_75:\n        /* \"#utility.yul\":5337:5340   */\n      0x00\n        /* \"#utility.yul\":5359:5506   */\n      tag_189\n        /* \"#utility.yul\":5502:5505   */\n      dup3\n        /* \"#utility.yul\":5359:5506   */\n      tag_123\n      jump\t// in\n    tag_189:\n        /* \"#utility.yul\":5352:5506   */\n      swap2\n      pop\n        /* \"#utility.yul\":5523:5526   */\n      dup2\n        /* \"#utility.yul\":5516:5526   */\n      swap1\n      pop\n        /* \"#utility.yul\":5153:5532   */\n      swap2\n      swap1\n      pop\n      jump\t// out\n        /* \"#utility.yul\":5538:5706   */\n    tag_124:\n        /* \"#utility.yul\":5678:5698   */\n      0x5472616e73616374696f6e206661696c65640000000000000000000000000000\n        /* \"#utility.yul\":5674:5675   */\n      0x00\n        /* \"#utility.yul\":5666:5672   */\n      dup3\n        /* \"#utility.yul\":5662:5676   */\n      add\n        /* \"#utility.yul\":5655:5699   */\n      mstore\n        /* \"#utility.yul\":5538:5706   */\n      pop\n      jump\t// out\n        /* \"#utility.yul\":5712:6078   */\n    tag_125:\n        /* \"#utility.yul\":5854:5857   */\n      0x00\n        /* \"#utility.yul\":5875:5942   */\n      tag_192\n        /* \"#utility.yul\":5939:5941   */\n      0x12\n        /* \"#utility.yul\":5934:5937   */\n      dup4\n        /* \"#utility.yul\":5875:5942   */\n      tag_118\n      jump\t// in\n    tag_192:\n        /* \"#utility.yul\":5868:5942   */\n      swap2\n      pop\n        /* \"#utility.yul\":5951:6044   */\n      tag_193\n        /* \"#utility.yul\":6040:6043   */\n      dup3\n        /* \"#utility.yul\":5951:6044   */\n      tag_124\n      jump\t// in\n    tag_193:\n        /* \"#utility.yul\":6069:6071   */\n      0x20\n        /* \"#utility.yul\":6064:6067   */\n      dup3\n        /* \"#utility.yul\":6060:6072   */\n      add\n        /* \"#utility.yul\":6053:6072   */\n      swap1\n      pop\n        /* \"#utility.yul\":5712:6078   */\n      swap2\n      swap1\n      pop\n      jump\t// out\n        /* \"#utility.yul\":6084:6503   */\n    tag_81:\n        /* \"#utility.yul\":6250:6254   */\n      0x00\n        /* \"#utility.yul\":6288:6290   */\n      0x20\n        /* \"#utility.yul\":6277:6286   */\n      dup3\n        /* \"#utility.yul\":6273:6291   */\n      add\n        /* \"#utility.yul\":6265:6291   */\n      swap1\n      pop\n        /* \"#utility.yul\":6337:6346   */\n      dup2\n        /* \"#utility.yul\":6331:6335   */\n      dup2\n        /* \"#utility.yul\":6327:6347   */\n      sub\n        /* \"#utility.yul\":6323:6324   */\n      0x00\n        /* \"#utility.yul\":6312:6321   */\n      dup4\n        /* \"#utility.yul\":6308:6325   */\n      add\n        /* \"#utility.yul\":6301:6348   */\n      mstore\n        /* \"#utility.yul\":6365:6496   */\n      tag_195\n        /* \"#utility.yul\":6491:6495   */\n      dup2\n        /* \"#utility.yul\":6365:6496   */\n      tag_125\n      jump\t// in\n    tag_195:\n        /* \"#utility.yul\":6357:6496   */\n      swap1\n      pop\n        /* \"#utility.yul\":6084:6503   */\n      swap2\n      swap1\n      pop\n      jump\t// out\n        /* \"#utility.yul\":6509:6919   */\n    tag_88:\n        /* \"#utility.yul\":6549:6556   */\n      0x00\n        /* \"#utility.yul\":6572:6592   */\n      tag_197\n        /* \"#utility.yul\":6590:6591   */\n      dup3\n        /* \"#utility.yul\":6572:6592   */\n      tag_112\n      jump\t// in\n    tag_197:\n        /* \"#utility.yul\":6567:6592   */\n      swap2\n      pop\n        /* \"#utility.yul\":6606:6626   */\n      tag_198\n        /* \"#utility.yul\":6624:6625   */\n      dup4\n        /* \"#utility.yul\":6606:6626   */\n      tag_112\n      jump\t// in\n    tag_198:\n        /* \"#utility.yul\":6601:6626   */\n      swap3\n      pop\n        /* \"#utility.yul\":6661:6662   */\n      dup3\n        /* \"#utility.yul\":6658:6659   */\n      dup3\n        /* \"#utility.yul\":6654:6663   */\n      mul\n        /* \"#utility.yul\":6683:6713   */\n      tag_199\n        /* \"#utility.yul\":6701:6712   */\n      dup2\n        /* \"#utility.yul\":6683:6713   */\n      tag_112\n      jump\t// in\n    tag_199:\n        /* \"#utility.yul\":6672:6713   */\n      swap2\n      pop\n        /* \"#utility.yul\":6862:6863   */\n      dup3\n        /* \"#utility.yul\":6853:6860   */\n      dup3\n        /* \"#utility.yul\":6849:6864   */\n      div\n        /* \"#utility.yul\":6846:6847   */\n      dup5\n        /* \"#utility.yul\":6843:6865   */\n      eq\n        /* \"#utility.yul\":6823:6824   */\n      dup4\n        /* \"#utility.yul\":6816:6825   */\n      iszero\n        /* \"#utility.yul\":6796:6879   */\n      or\n        /* \"#utility.yul\":6773:6912   */\n      tag_200\n      jumpi\n        /* \"#utility.yul\":6892:6910   */\n      tag_201\n      tag_117\n      jump\t// in\n    tag_201:\n        /* \"#utility.yul\":6773:6912   */\n    tag_200:\n        /* \"#utility.yul\":6557:6919   */\n      pop\n        /* \"#utility.yul\":6509:6919   */\n      swap3\n      swap2\n      pop\n      pop\n      jump\t// out\n        /* \"#utility.yul\":6925:7105   */\n    tag_126:\n        /* \"#utility.yul\":6973:7050   */\n      0x4e487b7100000000000000000000000000000000000000000000000000000000\n        /* \"#utility.yul\":6970:6971   */\n      0x00\n        /* \"#utility.yul\":6963:7051   */\n      mstore\n        /* \"#utility.yul\":7070:7074   */\n      0x12\n        /* \"#utility.yul\":7067:7068   */\n      0x04\n        /* \"#utility.yul\":7060:7075   */\n      mstore\n        /* \"#utility.yul\":7094:7098   */\n      0x24\n        /* \"#utility.yul\":7091:7092   */\n      0x00\n        /* \"#utility.yul\":7084:7099   */\n      revert\n        /* \"#utility.yul\":7111:7296   */\n    tag_90:\n        /* \"#utility.yul\":7151:7152   */\n      0x00\n        /* \"#utility.yul\":7168:7188   */\n      tag_204\n        /* \"#utility.yul\":7186:7187   */\n      dup3\n        /* \"#utility.yul\":7168:7188   */\n      tag_112\n      jump\t// in\n    tag_204:\n        /* \"#utility.yul\":7163:7188   */\n      swap2\n      pop\n        /* \"#utility.yul\":7202:7222   */\n      tag_205\n        /* \"#utility.yul\":7220:7221   */\n      dup4\n        /* \"#utility.yul\":7202:7222   */\n      tag_112\n      jump\t// in\n    tag_205:\n        /* \"#utility.yul\":7197:7222   */\n      swap3\n      pop\n        /* \"#utility.yul\":7241:7242   */\n      dup3\n        /* \"#utility.yul\":7231:7266   */\n      tag_206\n      jumpi\n        /* \"#utility.yul\":7246:7264   */\n      tag_207\n      tag_126\n      jump\t// in\n    tag_207:\n        /* \"#utility.yul\":7231:7266   */\n    tag_206:\n        /* \"#utility.yul\":7288:7289   */\n      dup3\n        /* \"#utility.yul\":7285:7286   */\n      dup3\n        /* \"#utility.yul\":7281:7290   */\n      div\n        /* \"#utility.yul\":7276:7290   */\n      swap1\n      pop\n        /* \"#utility.yul\":7111:7296   */\n      swap3\n      swap2\n      pop\n      pop\n      jump\t// out\n        /* \"#utility.yul\":7302:7407   */\n    tag_127:\n        /* \"#utility.yul\":7338:7345   */\n      0x00\n        /* \"#utility.yul\":7378:7400   */\n      0xffffffffffffffffffff\n        /* \"#utility.yul\":7371:7376   */\n      dup3\n        /* \"#utility.yul\":7367:7401   */\n      and\n        /* \"#utility.yul\":7356:7401   */\n      swap1\n      pop\n        /* \"#utility.yul\":7302:7407   */\n      swap2\n      swap1\n      pop\n      jump\t// out\n        /* \"#utility.yul\":7413:7533   */\n    tag_128:\n        /* \"#utility.yul\":7485:7508   */\n      tag_210\n        /* \"#utility.yul\":7502:7507   */\n      dup2\n        /* \"#utility.yul\":7485:7508   */\n      tag_127\n      jump\t// in\n    tag_210:\n        /* \"#utility.yul\":7478:7483   */\n      dup2\n        /* \"#utility.yul\":7475:7509   */\n      eq\n        /* \"#utility.yul\":7465:7527   */\n      tag_211\n      jumpi\n        /* \"#utility.yul\":7523:7524   */\n      0x00\n        /* \"#utility.yul\":7520:7521   */\n      dup1\n        /* \"#utility.yul\":7513:7525   */\n      revert\n        /* \"#utility.yul\":7465:7527   */\n    tag_211:\n        /* \"#utility.yul\":7413:7533   */\n      pop\n      jump\t// out\n        /* \"#utility.yul\":7539:7680   */\n    tag_129:\n        /* \"#utility.yul\":7595:7600   */\n      0x00\n        /* \"#utility.yul\":7626:7632   */\n      dup2\n        /* \"#utility.yul\":7620:7633   */\n      mload\n        /* \"#utility.yul\":7611:7633   */\n      swap1\n      pop\n        /* \"#utility.yul\":7642:7674   */\n      tag_213\n        /* \"#utility.yul\":7668:7673   */\n      dup2\n        /* \"#utility.yul\":7642:7674   */\n      tag_128\n      jump\t// in\n    tag_213:\n        /* \"#utility.yul\":7539:7680   */\n      swap3\n      swap2\n      pop\n      pop\n      jump\t// out\n        /* \"#utility.yul\":7686:7762   */\n    tag_130:\n        /* \"#utility.yul\":7722:7729   */\n      0x00\n        /* \"#utility.yul\":7751:7756   */\n      dup2\n        /* \"#utility.yul\":7740:7756   */\n      swap1\n      pop\n        /* \"#utility.yul\":7686:7762   */\n      swap2\n      swap1\n      pop\n      jump\t// out\n        /* \"#utility.yul\":7768:7888   */\n    tag_131:\n        /* \"#utility.yul\":7840:7863   */\n      tag_216\n        /* \"#utility.yul\":7857:7862   */\n      dup2\n        /* \"#utility.yul\":7840:7863   */\n      tag_130\n      jump\t// in\n    tag_216:\n        /* \"#utility.yul\":7833:7838   */\n      dup2\n        /* \"#utility.yul\":7830:7864   */\n      eq\n        /* \"#utility.yul\":7820:7882   */\n      tag_217\n      jumpi\n        /* \"#utility.yul\":7878:7879   */\n      0x00\n        /* \"#utility.yul\":7875:7876   */\n      dup1\n        /* \"#utility.yul\":7868:7880   */\n      revert\n        /* \"#utility.yul\":7820:7882   */\n    tag_217:\n        /* \"#utility.yul\":7768:7888   */\n      pop\n      jump\t// out\n        /* \"#utility.yul\":7894:8035   */\n    tag_132:\n        /* \"#utility.yul\":7950:7955   */\n      0x00\n        /* \"#utility.yul\":7981:7987   */\n      dup2\n        /* \"#utility.yul\":7975:7988   */\n      mload\n        /* \"#utility.yul\":7966:7988   */\n      swap1\n      pop\n        /* \"#utility.yul\":7997:8029   */\n      tag_219\n        /* \"#utility.yul\":8023:8028   */\n      dup2\n        /* \"#utility.yul\":7997:8029   */\n      tag_131\n      jump\t// in\n    tag_219:\n        /* \"#utility.yul\":7894:8035   */\n      swap3\n      swap2\n      pop\n      pop\n      jump\t// out\n        /* \"#utility.yul\":8041:8184   */\n    tag_133:\n        /* \"#utility.yul\":8098:8103   */\n      0x00\n        /* \"#utility.yul\":8129:8135   */\n      dup2\n        /* \"#utility.yul\":8123:8136   */\n      mload\n        /* \"#utility.yul\":8114:8136   */\n      swap1\n      pop\n        /* \"#utility.yul\":8145:8178   */\n      tag_221\n        /* \"#utility.yul\":8172:8177   */\n      dup2\n        /* \"#utility.yul\":8145:8178   */\n      tag_115\n      jump\t// in\n    tag_221:\n        /* \"#utility.yul\":8041:8184   */\n      swap3\n      swap2\n      pop\n      pop\n      jump\t// out\n        /* \"#utility.yul\":8190:9161   */\n    tag_95:\n        /* \"#utility.yul\":8293:8299   */\n      0x00\n        /* \"#utility.yul\":8301:8307   */\n      dup1\n        /* \"#utility.yul\":8309:8315   */\n      0x00\n        /* \"#utility.yul\":8317:8323   */\n      dup1\n        /* \"#utility.yul\":8325:8331   */\n      0x00\n        /* \"#utility.yul\":8374:8377   */\n      0xa0\n        /* \"#utility.yul\":8362:8371   */\n      dup7\n        /* \"#utility.yul\":8353:8360   */\n      dup9\n        /* \"#utility.yul\":8349:8372   */\n      sub\n        /* \"#utility.yul\":8345:8378   */\n      slt\n        /* \"#utility.yul\":8342:8462   */\n      iszero\n      tag_223\n      jumpi\n        /* \"#utility.yul\":8381:8460   */\n      tag_224\n      tag_106\n      jump\t// in\n    tag_224:\n        /* \"#utility.yul\":8342:8462   */\n    tag_223:\n        /* \"#utility.yul\":8501:8502   */\n      0x00\n        /* \"#utility.yul\":8526:8589   */\n      tag_225\n        /* \"#utility.yul\":8581:8588   */\n      dup9\n        /* \"#utility.yul\":8572:8578   */\n      dup3\n        /* \"#utility.yul\":8561:8570   */\n      dup10\n        /* \"#utility.yul\":8557:8579   */\n      add\n        /* \"#utility.yul\":8526:8589   */\n      tag_129\n      jump\t// in\n    tag_225:\n        /* \"#utility.yul\":8516:8589   */\n      swap6\n      pop\n        /* \"#utility.yul\":8472:8599   */\n      pop\n        /* \"#utility.yul\":8638:8640   */\n      0x20\n        /* \"#utility.yul\":8664:8727   */\n      tag_226\n        /* \"#utility.yul\":8719:8726   */\n      dup9\n        /* \"#utility.yul\":8710:8716   */\n      dup3\n        /* \"#utility.yul\":8699:8708   */\n      dup10\n        /* \"#utility.yul\":8695:8717   */\n      add\n        /* \"#utility.yul\":8664:8727   */\n      tag_132\n      jump\t// in\n    tag_226:\n        /* \"#utility.yul\":8654:8727   */\n      swap5\n      pop\n        /* \"#utility.yul\":8609:8737   */\n      pop\n        /* \"#utility.yul\":8776:8778   */\n      0x40\n        /* \"#utility.yul\":8802:8866   */\n      tag_227\n        /* \"#utility.yul\":8858:8865   */\n      dup9\n        /* \"#utility.yul\":8849:8855   */\n      dup3\n        /* \"#utility.yul\":8838:8847   */\n      dup10\n        /* \"#utility.yul\":8834:8856   */\n      add\n        /* \"#utility.yul\":8802:8866   */\n      tag_133\n      jump\t// in\n    tag_227:\n        /* \"#utility.yul\":8792:8866   */\n      swap4\n      pop\n        /* \"#utility.yul\":8747:8876   */\n      pop\n        /* \"#utility.yul\":8915:8917   */\n      0x60\n        /* \"#utility.yul\":8941:9005   */\n      tag_228\n        /* \"#utility.yul\":8997:9004   */\n      dup9\n        /* \"#utility.yul\":8988:8994   */\n      dup3\n        /* \"#utility.yul\":8977:8986   */\n      dup10\n        /* \"#utility.yul\":8973:8995   */\n      add\n        /* \"#utility.yul\":8941:9005   */\n      tag_133\n      jump\t// in\n    tag_228:\n        /* \"#utility.yul\":8931:9005   */\n      swap3\n      pop\n        /* \"#utility.yul\":8886:9015   */\n      pop\n        /* \"#utility.yul\":9054:9057   */\n      0x80\n        /* \"#utility.yul\":9081:9144   */\n      tag_229\n        /* \"#utility.yul\":9136:9143   */\n      dup9\n        /* \"#utility.yul\":9127:9133   */\n      dup3\n        /* \"#utility.yul\":9116:9125   */\n      dup10\n        /* \"#utility.yul\":9112:9134   */\n      add\n        /* \"#utility.yul\":9081:9144   */\n      tag_129\n      jump\t// in\n    tag_229:\n        /* \"#utility.yul\":9071:9144   */\n      swap2\n      pop\n        /* \"#utility.yul\":9025:9154   */\n      pop\n        /* \"#utility.yul\":8190:9161   */\n      swap3\n      swap6\n      pop\n      swap3\n      swap6\n      swap1\n      swap4\n      pop\n      jump\t// out\n        /* \"#utility.yul\":9167:9723   */\n    tag_97:\n        /* \"#utility.yul\":9206:9213   */\n      0x00\n        /* \"#utility.yul\":9229:9248   */\n      tag_231\n        /* \"#utility.yul\":9246:9247   */\n      dup3\n        /* \"#utility.yul\":9229:9248   */\n      tag_130\n      jump\t// in\n    tag_231:\n        /* \"#utility.yul\":9224:9248   */\n      swap2\n      pop\n        /* \"#utility.yul\":9262:9281   */\n      tag_232\n        /* \"#utility.yul\":9279:9280   */\n      dup4\n        /* \"#utility.yul\":9262:9281   */\n      tag_130\n      jump\t// in\n    tag_232:\n        /* \"#utility.yul\":9257:9281   */\n      swap3\n      pop\n        /* \"#utility.yul\":9316:9317   */\n      dup3\n        /* \"#utility.yul\":9313:9314   */\n      dup3\n        /* \"#utility.yul\":9309:9318   */\n      mul\n        /* \"#utility.yul\":9338:9367   */\n      tag_233\n        /* \"#utility.yul\":9355:9366   */\n      dup2\n        /* \"#utility.yul\":9338:9367   */\n      tag_130\n      jump\t// in\n    tag_233:\n        /* \"#utility.yul\":9327:9367   */\n      swap2\n      pop\n        /* \"#utility.yul\":9425:9491   */\n      0x8000000000000000000000000000000000000000000000000000000000000000\n        /* \"#utility.yul\":9422:9423   */\n      dup5\n        /* \"#utility.yul\":9419:9492   */\n      eq\n        /* \"#utility.yul\":9415:9416   */\n      0x00\n        /* \"#utility.yul\":9412:9413   */\n      dup5\n        /* \"#utility.yul\":9408:9417   */\n      slt\n        /* \"#utility.yul\":9404:9493   */\n      and\n        /* \"#utility.yul\":9401:9516   */\n      iszero\n      tag_234\n      jumpi\n        /* \"#utility.yul\":9496:9514   */\n      tag_235\n      tag_117\n      jump\t// in\n    tag_235:\n        /* \"#utility.yul\":9401:9516   */\n    tag_234:\n        /* \"#utility.yul\":9666:9667   */\n      dup3\n        /* \"#utility.yul\":9657:9664   */\n      dup3\n        /* \"#utility.yul\":9652:9668   */\n      sdiv\n        /* \"#utility.yul\":9649:9650   */\n      dup5\n        /* \"#utility.yul\":9646:9669   */\n      eq\n        /* \"#utility.yul\":9626:9627   */\n      dup4\n        /* \"#utility.yul\":9619:9628   */\n      iszero\n        /* \"#utility.yul\":9599:9683   */\n      or\n        /* \"#utility.yul\":9576:9716   */\n      tag_236\n      jumpi\n        /* \"#utility.yul\":9696:9714   */\n      tag_237\n      tag_117\n      jump\t// in\n    tag_237:\n        /* \"#utility.yul\":9576:9716   */\n    tag_236:\n        /* \"#utility.yul\":9214:9723   */\n      pop\n        /* \"#utility.yul\":9167:9723   */\n      swap3\n      swap2\n      pop\n      pop\n      jump\t// out\n\n    auxdata: 0xa26469706673582212205eb4d857876c2fb364f46af06b927bbc5380417df159c355117d999fc0c4681864736f6c63430008180033\n}\n",
				"bytecode": {
					"linkReferences": {},
					"object": "60a060405260015f55348015610013575f80fd5b503373ffffffffffffffffffffffffffffffffffffffff1660808173ffffffffffffffffffffffffffffffffffffffff1681525050608051610c486100675f395f81816102bf01526105130152610c485ff3fe608060405260043610610073575f3560e01c80636b69a5921161004d5780636b69a59214610108578063b60d428814610132578063dba6335f1461013c578063dc0d3dff1461016657610082565b80633ccfd60b1461008c5780633e47d6f3146100a257806347f1aae7146100de57610082565b36610082576100806101a2565b005b61008a6101a2565b005b348015610097575f80fd5b506100a06102bd565b005b3480156100ad575f80fd5b506100c860048036038101906100c3919061074d565b6104eb565b6040516100d59190610790565b60405180910390f35b3480156100e9575f80fd5b506100f2610500565b6040516100ff9190610790565b60405180910390f35b348015610113575f80fd5b5061011c610505565b6040516101299190610790565b60405180910390f35b61013a6101a2565b005b348015610147575f80fd5b50610150610511565b60405161015d91906107b8565b60405180910390f35b348015610171575f80fd5b5061018c600480360381019061018791906107fb565b610535565b60405161019991906107b8565b60405180910390f35b60025f546101b09190610853565b5f81905550674563918244f400006101c734610570565b1015610208576040517f08c379a00000000000000000000000000000000000000000000000000000000081526004016101ff906108e0565b60405180910390fd5b600133908060018154018082558091505060019003905f5260205f20015f9091909190916101000a81548173ffffffffffffffffffffffffffffffffffffffff021916908373ffffffffffffffffffffffffffffffffffffffff1602179055503460025f3373ffffffffffffffffffffffffffffffffffffffff1673ffffffffffffffffffffffffffffffffffffffff1681526020019081526020015f205f8282546102b49190610853565b92505081905550565b7f000000000000000000000000000000000000000000000000000000000000000073ffffffffffffffffffffffffffffffffffffffff163373ffffffffffffffffffffffffffffffffffffffff1614610342576040517f30cd747100000000000000000000000000000000000000000000000000000000815260040160405180910390fd5b5f5b6001805490508110156103e0575f60018281548110610366576103656108fe565b5b905f5260205f20015f9054906101000a900473ffffffffffffffffffffffffffffffffffffffff1690505f60025f8373ffffffffffffffffffffffffffffffffffffffff1673ffffffffffffffffffffffffffffffffffffffff1681526020019081526020015f2081905550508080600101915050610344565b505f67ffffffffffffffff8111156103fb576103fa61092b565b5b6040519080825280602002602001820160405280156104295781602001602082028036833780820191505090505b506001908051906020019061043f92919061064d565b505f3373ffffffffffffffffffffffffffffffffffffffff164760405161046590610985565b5f6040518083038185875af1925050503d805f811461049f576040519150601f19603f3d011682016040523d82523d5f602084013e6104a4565b606091505b50509050806104e8576040517f08c379a00000000000000000000000000000000000000000000000000000000081526004016104df906109e3565b60405180910390fd5b50565b6002602052805f5260405f205f915090505481565b5f5481565b674563918244f4000081565b7f000000000000000000000000000000000000000000000000000000000000000081565b60018181548110610544575f80fd5b905f5260205f20015f915054906101000a900473ffffffffffffffffffffffffffffffffffffffff1681565b5f8061057a6105a8565b90505f670de0b6b3a764000084836105929190610a01565b61059c9190610a6f565b90508092505050919050565b5f8073694aa1769357215de4fac081bf1f309adc32530690505f8173ffffffffffffffffffffffffffffffffffffffff1663feaf968c6040518163ffffffff1660e01b815260040160a060405180830381865afa15801561060b573d5f803e3d5ffd5b505050506040513d601f19601f8201168201806040525081019061062f9190610b25565b5050509150506402540be400816106469190610b9c565b9250505090565b828054828255905f5260205f209081019282156106c3579160200282015b828111156106c2578251825f6101000a81548173ffffffffffffffffffffffffffffffffffffffff021916908373ffffffffffffffffffffffffffffffffffffffff1602179055509160200191906001019061066b565b5b5090506106d091906106d4565b5090565b5b808211156106eb575f815f9055506001016106d5565b5090565b5f80fd5b5f73ffffffffffffffffffffffffffffffffffffffff82169050919050565b5f61071c826106f3565b9050919050565b61072c81610712565b8114610736575f80fd5b50565b5f8135905061074781610723565b92915050565b5f60208284031215610762576107616106ef565b5b5f61076f84828501610739565b91505092915050565b5f819050919050565b61078a81610778565b82525050565b5f6020820190506107a35f830184610781565b92915050565b6107b281610712565b82525050565b5f6020820190506107cb5f8301846107a9565b92915050565b6107da81610778565b81146107e4575f80fd5b50565b5f813590506107f5816107d1565b92915050565b5f602082840312156108105761080f6106ef565b5b5f61081d848285016107e7565b91505092915050565b7f4e487b71000000000000000000000000000000000000000000000000000000005f52601160045260245ffd5b5f61085d82610778565b915061086883610778565b92508282019050808211156108805761087f610826565b5b92915050565b5f82825260208201905092915050565b7f4469646e27742073656e6420656e6f75676820455448000000000000000000005f82015250565b5f6108ca601683610886565b91506108d582610896565b602082019050919050565b5f6020820190508181035f8301526108f7816108be565b9050919050565b7f4e487b71000000000000000000000000000000000000000000000000000000005f52603260045260245ffd5b7f4e487b71000000000000000000000000000000000000000000000000000000005f52604160045260245ffd5b5f81905092915050565b50565b5f6109705f83610958565b915061097b82610962565b5f82019050919050565b5f61098f82610965565b9150819050919050565b7f5472616e73616374696f6e206661696c656400000000000000000000000000005f82015250565b5f6109cd601283610886565b91506109d882610999565b602082019050919050565b5f6020820190508181035f8301526109fa816109c1565b9050919050565b5f610a0b82610778565b9150610a1683610778565b9250828202610a2481610778565b91508282048414831517610a3b57610a3a610826565b5b5092915050565b7f4e487b71000000000000000000000000000000000000000000000000000000005f52601260045260245ffd5b5f610a7982610778565b9150610a8483610778565b925082610a9457610a93610a42565b5b828204905092915050565b5f69ffffffffffffffffffff82169050919050565b610abd81610a9f565b8114610ac7575f80fd5b50565b5f81519050610ad881610ab4565b92915050565b5f819050919050565b610af081610ade565b8114610afa575f80fd5b50565b5f81519050610b0b81610ae7565b92915050565b5f81519050610b1f816107d1565b92915050565b5f805f805f60a08688031215610b3e57610b3d6106ef565b5b5f610b4b88828901610aca565b9550506020610b5c88828901610afd565b9450506040610b6d88828901610b11565b9350506060610b7e88828901610b11565b9250506080610b8f88828901610aca565b9150509295509295909350565b5f610ba682610ade565b9150610bb183610ade565b9250828202610bbf81610ade565b91507f800000000000000000000000000000000000000000000000000000000000000084145f84121615610bf657610bf5610826565b5b8282058414831517610c0b57610c0a610826565b5b509291505056fea26469706673582212205eb4d857876c2fb364f46af06b927bbc5380417df159c355117d999fc0c4681864736f6c63430008180033",
					"opcodes": "PUSH1 0xA0 PUSH1 0x40 MSTORE PUSH1 0x1 PUSH0 SSTORE CALLVALUE DUP1 ISZERO PUSH2 0x13 JUMPI PUSH0 DUP1 REVERT JUMPDEST POP CALLER PUSH20 0xFFFFFFFFFFFFFFFFFFFFFFFFFFFFFFFFFFFFFFFF AND PUSH1 0x80 DUP2 PUSH20 0xFFFFFFFFFFFFFFFFFFFFFFFFFFFFFFFFFFFFFFFF AND DUP2 MSTORE POP POP PUSH1 0x80 MLOAD PUSH2 0xC48 PUSH2 0x67 PUSH0 CODECOPY PUSH0 DUP2 DUP2 PUSH2 0x2BF ADD MSTORE PUSH2 0x513 ADD MSTORE PUSH2 0xC48 PUSH0 RETURN INVALID PUSH1 0x80 PUSH1 0x40 MSTORE PUSH1 0x4 CALLDATASIZE LT PUSH2 0x73 JUMPI PUSH0 CALLDATALOAD PUSH1 0xE0 SHR DUP1 PUSH4 0x6B69A592 GT PUSH2 0x4D JUMPI DUP1 PUSH4 0x6B69A592 EQ PUSH2 0x108 JUMPI DUP1 PUSH4 0xB60D4288 EQ PUSH2 0x132 JUMPI DUP1 PUSH4 0xDBA6335F EQ PUSH2 0x13C JUMPI DUP1 PUSH4 0xDC0D3DFF EQ PUSH2 0x166 JUMPI PUSH2 0x82 JUMP JUMPDEST DUP1 PUSH4 0x3CCFD60B EQ PUSH2 0x8C JUMPI DUP1 PUSH4 0x3E47D6F3 EQ PUSH2 0xA2 JUMPI DUP1 PUSH4 0x47F1AAE7 EQ PUSH2 0xDE JUMPI PUSH2 0x82 JUMP JUMPDEST CALLDATASIZE PUSH2 0x82 JUMPI PUSH2 0x80 PUSH2 0x1A2 JUMP JUMPDEST STOP JUMPDEST PUSH2 0x8A PUSH2 0x1A2 JUMP JUMPDEST STOP JUMPDEST CALLVALUE DUP1 ISZERO PUSH2 0x97 JUMPI PUSH0 DUP1 REVERT JUMPDEST POP PUSH2 0xA0 PUSH2 0x2BD JUMP JUMPDEST STOP JUMPDEST CALLVALUE DUP1 ISZERO PUSH2 0xAD JUMPI PUSH0 DUP1 REVERT JUMPDEST POP PUSH2 0xC8 PUSH1 0x4 DUP1 CALLDATASIZE SUB DUP2 ADD SWAP1 PUSH2 0xC3 SWAP2 SWAP1 PUSH2 0x74D JUMP JUMPDEST PUSH2 0x4EB JUMP JUMPDEST PUSH1 0x40 MLOAD PUSH2 0xD5 SWAP2 SWAP1 PUSH2 0x790 JUMP JUMPDEST PUSH1 0x40 MLOAD DUP1 SWAP2 SUB SWAP1 RETURN JUMPDEST CALLVALUE DUP1 ISZERO PUSH2 0xE9 JUMPI PUSH0 DUP1 REVERT JUMPDEST POP PUSH2 0xF2 PUSH2 0x500 JUMP JUMPDEST PUSH1 0x40 MLOAD PUSH2 0xFF SWAP2 SWAP1 PUSH2 0x790 JUMP JUMPDEST PUSH1 0x40 MLOAD DUP1 SWAP2 SUB SWAP1 RETURN JUMPDEST CALLVALUE DUP1 ISZERO PUSH2 0x113 JUMPI PUSH0 DUP1 REVERT JUMPDEST POP PUSH2 0x11C PUSH2 0x505 JUMP JUMPDEST PUSH1 0x40 MLOAD PUSH2 0x129 SWAP2 SWAP1 PUSH2 0x790 JUMP JUMPDEST PUSH1 0x40 MLOAD DUP1 SWAP2 SUB SWAP1 RETURN JUMPDEST PUSH2 0x13A PUSH2 0x1A2 JUMP JUMPDEST STOP JUMPDEST CALLVALUE DUP1 ISZERO PUSH2 0x147 JUMPI PUSH0 DUP1 REVERT JUMPDEST POP PUSH2 0x150 PUSH2 0x511 JUMP JUMPDEST PUSH1 0x40 MLOAD PUSH2 0x15D SWAP2 SWAP1 PUSH2 0x7B8 JUMP JUMPDEST PUSH1 0x40 MLOAD DUP1 SWAP2 SUB SWAP1 RETURN JUMPDEST CALLVALUE DUP1 ISZERO PUSH2 0x171 JUMPI PUSH0 DUP1 REVERT JUMPDEST POP PUSH2 0x18C PUSH1 0x4 DUP1 CALLDATASIZE SUB DUP2 ADD SWAP1 PUSH2 0x187 SWAP2 SWAP1 PUSH2 0x7FB JUMP JUMPDEST PUSH2 0x535 JUMP JUMPDEST PUSH1 0x40 MLOAD PUSH2 0x199 SWAP2 SWAP1 PUSH2 0x7B8 JUMP JUMPDEST PUSH1 0x40 MLOAD DUP1 SWAP2 SUB SWAP1 RETURN JUMPDEST PUSH1 0x2 PUSH0 SLOAD PUSH2 0x1B0 SWAP2 SWAP1 PUSH2 0x853 JUMP JUMPDEST PUSH0 DUP2 SWAP1 SSTORE POP PUSH8 0x4563918244F40000 PUSH2 0x1C7 CALLVALUE PUSH2 0x570 JUMP JUMPDEST LT ISZERO PUSH2 0x208 JUMPI PUSH1 0x40 MLOAD PUSH32 0x8C379A000000000000000000000000000000000000000000000000000000000 DUP2 MSTORE PUSH1 0x4 ADD PUSH2 0x1FF SWAP1 PUSH2 0x8E0 JUMP JUMPDEST PUSH1 0x40 MLOAD DUP1 SWAP2 SUB SWAP1 REVERT JUMPDEST PUSH1 0x1 CALLER SWAP1 DUP1 PUSH1 0x1 DUP2 SLOAD ADD DUP1 DUP3 SSTORE DUP1 SWAP2 POP POP PUSH1 0x1 SWAP1 SUB SWAP1 PUSH0 MSTORE PUSH1 0x20 PUSH0 KECCAK256 ADD PUSH0 SWAP1 SWAP2 SWAP1 SWAP2 SWAP1 SWAP2 PUSH2 0x100 EXP DUP2 SLOAD DUP2 PUSH20 0xFFFFFFFFFFFFFFFFFFFFFFFFFFFFFFFFFFFFFFFF MUL NOT AND SWAP1 DUP4 PUSH20 0xFFFFFFFFFFFFFFFFFFFFFFFFFFFFFFFFFFFFFFFF AND MUL OR SWAP1 SSTORE POP CALLVALUE PUSH1 0x2 PUSH0 CALLER PUSH20 0xFFFFFFFFFFFFFFFFFFFFFFFFFFFFFFFFFFFFFFFF AND PUSH20 0xFFFFFFFFFFFFFFFFFFFFFFFFFFFFFFFFFFFFFFFF AND DUP2 MSTORE PUSH1 0x20 ADD SWAP1 DUP2 MSTORE PUSH1 0x20 ADD PUSH0 KECCAK256 PUSH0 DUP3 DUP3 SLOAD PUSH2 0x2B4 SWAP2 SWAP1 PUSH2 0x853 JUMP JUMPDEST SWAP3 POP POP DUP2 SWAP1 SSTORE POP JUMP JUMPDEST PUSH32 0x0 PUSH20 0xFFFFFFFFFFFFFFFFFFFFFFFFFFFFFFFFFFFFFFFF AND CALLER PUSH20 0xFFFFFFFFFFFFFFFFFFFFFFFFFFFFFFFFFFFFFFFF AND EQ PUSH2 0x342 JUMPI PUSH1 0x40 MLOAD PUSH32 0x30CD747100000000000000000000000000000000000000000000000000000000 DUP2 MSTORE PUSH1 0x4 ADD PUSH1 0x40 MLOAD DUP1 SWAP2 SUB SWAP1 REVERT JUMPDEST PUSH0 JUMPDEST PUSH1 0x1 DUP1 SLOAD SWAP1 POP DUP2 LT ISZERO PUSH2 0x3E0 JUMPI PUSH0 PUSH1 0x1 DUP3 DUP2 SLOAD DUP2 LT PUSH2 0x366 JUMPI PUSH2 0x365 PUSH2 0x8FE JUMP JUMPDEST JUMPDEST SWAP1 PUSH0 MSTORE PUSH1 0x20 PUSH0 KECCAK256 ADD PUSH0 SWAP1 SLOAD SWAP1 PUSH2 0x100 EXP SWAP1 DIV PUSH20 0xFFFFFFFFFFFFFFFFFFFFFFFFFFFFFFFFFFFFFFFF AND SWAP1 POP PUSH0 PUSH1 0x2 PUSH0 DUP4 PUSH20 0xFFFFFFFFFFFFFFFFFFFFFFFFFFFFFFFFFFFFFFFF AND PUSH20 0xFFFFFFFFFFFFFFFFFFFFFFFFFFFFFFFFFFFFFFFF AND DUP2 MSTORE PUSH1 0x20 ADD SWAP1 DUP2 MSTORE PUSH1 0x20 ADD PUSH0 KECCAK256 DUP2 SWAP1 SSTORE POP POP DUP1 DUP1 PUSH1 0x1 ADD SWAP2 POP POP PUSH2 0x344 JUMP JUMPDEST POP PUSH0 PUSH8 0xFFFFFFFFFFFFFFFF DUP2 GT ISZERO PUSH2 0x3FB JUMPI PUSH2 0x3FA PUSH2 0x92B JUMP JUMPDEST JUMPDEST PUSH1 0x40 MLOAD SWAP1 DUP1 DUP3 MSTORE DUP1 PUSH1 0x20 MUL PUSH1 0x20 ADD DUP3 ADD PUSH1 0x40 MSTORE DUP1 ISZERO PUSH2 0x429 JUMPI DUP2 PUSH1 0x20 ADD PUSH1 0x20 DUP3 MUL DUP1 CALLDATASIZE DUP4 CALLDATACOPY DUP1 DUP3 ADD SWAP2 POP POP SWAP1 POP JUMPDEST POP PUSH1 0x1 SWAP1 DUP1 MLOAD SWAP1 PUSH1 0x20 ADD SWAP1 PUSH2 0x43F SWAP3 SWAP2 SWAP1 PUSH2 0x64D JUMP JUMPDEST POP PUSH0 CALLER PUSH20 0xFFFFFFFFFFFFFFFFFFFFFFFFFFFFFFFFFFFFFFFF AND SELFBALANCE PUSH1 0x40 MLOAD PUSH2 0x465 SWAP1 PUSH2 0x985 JUMP JUMPDEST PUSH0 PUSH1 0x40 MLOAD DUP1 DUP4 SUB DUP2 DUP6 DUP8 GAS CALL SWAP3 POP POP POP RETURNDATASIZE DUP1 PUSH0 DUP2 EQ PUSH2 0x49F JUMPI PUSH1 0x40 MLOAD SWAP2 POP PUSH1 0x1F NOT PUSH1 0x3F RETURNDATASIZE ADD AND DUP3 ADD PUSH1 0x40 MSTORE RETURNDATASIZE DUP3 MSTORE RETURNDATASIZE PUSH0 PUSH1 0x20 DUP5 ADD RETURNDATACOPY PUSH2 0x4A4 JUMP JUMPDEST PUSH1 0x60 SWAP2 POP JUMPDEST POP POP SWAP1 POP DUP1 PUSH2 0x4E8 JUMPI PUSH1 0x40 MLOAD PUSH32 0x8C379A000000000000000000000000000000000000000000000000000000000 DUP2 MSTORE PUSH1 0x4 ADD PUSH2 0x4DF SWAP1 PUSH2 0x9E3 JUMP JUMPDEST PUSH1 0x40 MLOAD DUP1 SWAP2 SUB SWAP1 REVERT JUMPDEST POP JUMP JUMPDEST PUSH1 0x2 PUSH1 0x20 MSTORE DUP1 PUSH0 MSTORE PUSH1 0x40 PUSH0 KECCAK256 PUSH0 SWAP2 POP SWAP1 POP SLOAD DUP2 JUMP JUMPDEST PUSH0 SLOAD DUP2 JUMP JUMPDEST PUSH8 0x4563918244F40000 DUP2 JUMP JUMPDEST PUSH32 0x0 DUP2 JUMP JUMPDEST PUSH1 0x1 DUP2 DUP2 SLOAD DUP2 LT PUSH2 0x544 JUMPI PUSH0 DUP1 REVERT JUMPDEST SWAP1 PUSH0 MSTORE PUSH1 0x20 PUSH0 KECCAK256 ADD PUSH0 SWAP2 POP SLOAD SWAP1 PUSH2 0x100 EXP SWAP1 DIV PUSH20 0xFFFFFFFFFFFFFFFFFFFFFFFFFFFFFFFFFFFFFFFF AND DUP2 JUMP JUMPDEST PUSH0 DUP1 PUSH2 0x57A PUSH2 0x5A8 JUMP JUMPDEST SWAP1 POP PUSH0 PUSH8 0xDE0B6B3A7640000 DUP5 DUP4 PUSH2 0x592 SWAP2 SWAP1 PUSH2 0xA01 JUMP JUMPDEST PUSH2 0x59C SWAP2 SWAP1 PUSH2 0xA6F JUMP JUMPDEST SWAP1 POP DUP1 SWAP3 POP POP POP SWAP2 SWAP1 POP JUMP JUMPDEST PUSH0 DUP1 PUSH20 0x694AA1769357215DE4FAC081BF1F309ADC325306 SWAP1 POP PUSH0 DUP2 PUSH20 0xFFFFFFFFFFFFFFFFFFFFFFFFFFFFFFFFFFFFFFFF AND PUSH4 0xFEAF968C PUSH1 0x40 MLOAD DUP2 PUSH4 0xFFFFFFFF AND PUSH1 0xE0 SHL DUP2 MSTORE PUSH1 0x4 ADD PUSH1 0xA0 PUSH1 0x40 MLOAD DUP1 DUP4 SUB DUP2 DUP7 GAS STATICCALL ISZERO DUP1 ISZERO PUSH2 0x60B JUMPI RETURNDATASIZE PUSH0 DUP1 RETURNDATACOPY RETURNDATASIZE PUSH0 REVERT JUMPDEST POP POP POP POP PUSH1 0x40 MLOAD RETURNDATASIZE PUSH1 0x1F NOT PUSH1 0x1F DUP3 ADD AND DUP3 ADD DUP1 PUSH1 0x40 MSTORE POP DUP2 ADD SWAP1 PUSH2 0x62F SWAP2 SWAP1 PUSH2 0xB25 JUMP JUMPDEST POP POP POP SWAP2 POP POP PUSH5 0x2540BE400 DUP2 PUSH2 0x646 SWAP2 SWAP1 PUSH2 0xB9C JUMP JUMPDEST SWAP3 POP POP POP SWAP1 JUMP JUMPDEST DUP3 DUP1 SLOAD DUP3 DUP3 SSTORE SWAP1 PUSH0 MSTORE PUSH1 0x20 PUSH0 KECCAK256 SWAP1 DUP2 ADD SWAP3 DUP3 ISZERO PUSH2 0x6C3 JUMPI SWAP2 PUSH1 0x20 MUL DUP3 ADD JUMPDEST DUP3 DUP2 GT ISZERO PUSH2 0x6C2 JUMPI DUP3 MLOAD DUP3 PUSH0 PUSH2 0x100 EXP DUP2 SLOAD DUP2 PUSH20 0xFFFFFFFFFFFFFFFFFFFFFFFFFFFFFFFFFFFFFFFF MUL NOT AND SWAP1 DUP4 PUSH20 0xFFFFFFFFFFFFFFFFFFFFFFFFFFFFFFFFFFFFFFFF AND MUL OR SWAP1 SSTORE POP SWAP2 PUSH1 0x20 ADD SWAP2 SWAP1 PUSH1 0x1 ADD SWAP1 PUSH2 0x66B JUMP JUMPDEST JUMPDEST POP SWAP1 POP PUSH2 0x6D0 SWAP2 SWAP1 PUSH2 0x6D4 JUMP JUMPDEST POP SWAP1 JUMP JUMPDEST JUMPDEST DUP1 DUP3 GT ISZERO PUSH2 0x6EB JUMPI PUSH0 DUP2 PUSH0 SWAP1 SSTORE POP PUSH1 0x1 ADD PUSH2 0x6D5 JUMP JUMPDEST POP SWAP1 JUMP JUMPDEST PUSH0 DUP1 REVERT JUMPDEST PUSH0 PUSH20 0xFFFFFFFFFFFFFFFFFFFFFFFFFFFFFFFFFFFFFFFF DUP3 AND SWAP1 POP SWAP2 SWAP1 POP JUMP JUMPDEST PUSH0 PUSH2 0x71C DUP3 PUSH2 0x6F3 JUMP JUMPDEST SWAP1 POP SWAP2 SWAP1 POP JUMP JUMPDEST PUSH2 0x72C DUP2 PUSH2 0x712 JUMP JUMPDEST DUP2 EQ PUSH2 0x736 JUMPI PUSH0 DUP1 REVERT JUMPDEST POP JUMP JUMPDEST PUSH0 DUP2 CALLDATALOAD SWAP1 POP PUSH2 0x747 DUP2 PUSH2 0x723 JUMP JUMPDEST SWAP3 SWAP2 POP POP JUMP JUMPDEST PUSH0 PUSH1 0x20 DUP3 DUP5 SUB SLT ISZERO PUSH2 0x762 JUMPI PUSH2 0x761 PUSH2 0x6EF JUMP JUMPDEST JUMPDEST PUSH0 PUSH2 0x76F DUP5 DUP3 DUP6 ADD PUSH2 0x739 JUMP JUMPDEST SWAP2 POP POP SWAP3 SWAP2 POP POP JUMP JUMPDEST PUSH0 DUP2 SWAP1 POP SWAP2 SWAP1 POP JUMP JUMPDEST PUSH2 0x78A DUP2 PUSH2 0x778 JUMP JUMPDEST DUP3 MSTORE POP POP JUMP JUMPDEST PUSH0 PUSH1 0x20 DUP3 ADD SWAP1 POP PUSH2 0x7A3 PUSH0 DUP4 ADD DUP5 PUSH2 0x781 JUMP JUMPDEST SWAP3 SWAP2 POP POP JUMP JUMPDEST PUSH2 0x7B2 DUP2 PUSH2 0x712 JUMP JUMPDEST DUP3 MSTORE POP POP JUMP JUMPDEST PUSH0 PUSH1 0x20 DUP3 ADD SWAP1 POP PUSH2 0x7CB PUSH0 DUP4 ADD DUP5 PUSH2 0x7A9 JUMP JUMPDEST SWAP3 SWAP2 POP POP JUMP JUMPDEST PUSH2 0x7DA DUP2 PUSH2 0x778 JUMP JUMPDEST DUP2 EQ PUSH2 0x7E4 JUMPI PUSH0 DUP1 REVERT JUMPDEST POP JUMP JUMPDEST PUSH0 DUP2 CALLDATALOAD SWAP1 POP PUSH2 0x7F5 DUP2 PUSH2 0x7D1 JUMP JUMPDEST SWAP3 SWAP2 POP POP JUMP JUMPDEST PUSH0 PUSH1 0x20 DUP3 DUP5 SUB SLT ISZERO PUSH2 0x810 JUMPI PUSH2 0x80F PUSH2 0x6EF JUMP JUMPDEST JUMPDEST PUSH0 PUSH2 0x81D DUP5 DUP3 DUP6 ADD PUSH2 0x7E7 JUMP JUMPDEST SWAP2 POP POP SWAP3 SWAP2 POP POP JUMP JUMPDEST PUSH32 0x4E487B7100000000000000000000000000000000000000000000000000000000 PUSH0 MSTORE PUSH1 0x11 PUSH1 0x4 MSTORE PUSH1 0x24 PUSH0 REVERT JUMPDEST PUSH0 PUSH2 0x85D DUP3 PUSH2 0x778 JUMP JUMPDEST SWAP2 POP PUSH2 0x868 DUP4 PUSH2 0x778 JUMP JUMPDEST SWAP3 POP DUP3 DUP3 ADD SWAP1 POP DUP1 DUP3 GT ISZERO PUSH2 0x880 JUMPI PUSH2 0x87F PUSH2 0x826 JUMP JUMPDEST JUMPDEST SWAP3 SWAP2 POP POP JUMP JUMPDEST PUSH0 DUP3 DUP3 MSTORE PUSH1 0x20 DUP3 ADD SWAP1 POP SWAP3 SWAP2 POP POP JUMP JUMPDEST PUSH32 0x4469646E27742073656E6420656E6F7567682045544800000000000000000000 PUSH0 DUP3 ADD MSTORE POP JUMP JUMPDEST PUSH0 PUSH2 0x8CA PUSH1 0x16 DUP4 PUSH2 0x886 JUMP JUMPDEST SWAP2 POP PUSH2 0x8D5 DUP3 PUSH2 0x896 JUMP JUMPDEST PUSH1 0x20 DUP3 ADD SWAP1 POP SWAP2 SWAP1 POP JUMP JUMPDEST PUSH0 PUSH1 0x20 DUP3 ADD SWAP1 POP DUP2 DUP2 SUB PUSH0 DUP4 ADD MSTORE PUSH2 0x8F7 DUP2 PUSH2 0x8BE JUMP JUMPDEST SWAP1 POP SWAP2 SWAP1 POP JUMP JUMPDEST PUSH32 0x4E487B7100000000000000000000000000000000000000000000000000000000 PUSH0 MSTORE PUSH1 0x32 PUSH1 0x4 MSTORE PUSH1 0x24 PUSH0 REVERT JUMPDEST PUSH32 0x4E487B7100000000000000000000000000000000000000000000000000000000 PUSH0 MSTORE PUSH1 0x41 PUSH1 0x4 MSTORE PUSH1 0x24 PUSH0 REVERT JUMPDEST PUSH0 DUP2 SWAP1 POP SWAP3 SWAP2 POP POP JUMP JUMPDEST POP JUMP JUMPDEST PUSH0 PUSH2 0x970 PUSH0 DUP4 PUSH2 0x958 JUMP JUMPDEST SWAP2 POP PUSH2 0x97B DUP3 PUSH2 0x962 JUMP JUMPDEST PUSH0 DUP3 ADD SWAP1 POP SWAP2 SWAP1 POP JUMP JUMPDEST PUSH0 PUSH2 0x98F DUP3 PUSH2 0x965 JUMP JUMPDEST SWAP2 POP DUP2 SWAP1 POP SWAP2 SWAP1 POP JUMP JUMPDEST PUSH32 0x5472616E73616374696F6E206661696C65640000000000000000000000000000 PUSH0 DUP3 ADD MSTORE POP JUMP JUMPDEST PUSH0 PUSH2 0x9CD PUSH1 0x12 DUP4 PUSH2 0x886 JUMP JUMPDEST SWAP2 POP PUSH2 0x9D8 DUP3 PUSH2 0x999 JUMP JUMPDEST PUSH1 0x20 DUP3 ADD SWAP1 POP SWAP2 SWAP1 POP JUMP JUMPDEST PUSH0 PUSH1 0x20 DUP3 ADD SWAP1 POP DUP2 DUP2 SUB PUSH0 DUP4 ADD MSTORE PUSH2 0x9FA DUP2 PUSH2 0x9C1 JUMP JUMPDEST SWAP1 POP SWAP2 SWAP1 POP JUMP JUMPDEST PUSH0 PUSH2 0xA0B DUP3 PUSH2 0x778 JUMP JUMPDEST SWAP2 POP PUSH2 0xA16 DUP4 PUSH2 0x778 JUMP JUMPDEST SWAP3 POP DUP3 DUP3 MUL PUSH2 0xA24 DUP2 PUSH2 0x778 JUMP JUMPDEST SWAP2 POP DUP3 DUP3 DIV DUP5 EQ DUP4 ISZERO OR PUSH2 0xA3B JUMPI PUSH2 0xA3A PUSH2 0x826 JUMP JUMPDEST JUMPDEST POP SWAP3 SWAP2 POP POP JUMP JUMPDEST PUSH32 0x4E487B7100000000000000000000000000000000000000000000000000000000 PUSH0 MSTORE PUSH1 0x12 PUSH1 0x4 MSTORE PUSH1 0x24 PUSH0 REVERT JUMPDEST PUSH0 PUSH2 0xA79 DUP3 PUSH2 0x778 JUMP JUMPDEST SWAP2 POP PUSH2 0xA84 DUP4 PUSH2 0x778 JUMP JUMPDEST SWAP3 POP DUP3 PUSH2 0xA94 JUMPI PUSH2 0xA93 PUSH2 0xA42 JUMP JUMPDEST JUMPDEST DUP3 DUP3 DIV SWAP1 POP SWAP3 SWAP2 POP POP JUMP JUMPDEST PUSH0 PUSH10 0xFFFFFFFFFFFFFFFFFFFF DUP3 AND SWAP1 POP SWAP2 SWAP1 POP JUMP JUMPDEST PUSH2 0xABD DUP2 PUSH2 0xA9F JUMP JUMPDEST DUP2 EQ PUSH2 0xAC7 JUMPI PUSH0 DUP1 REVERT JUMPDEST POP JUMP JUMPDEST PUSH0 DUP2 MLOAD SWAP1 POP PUSH2 0xAD8 DUP2 PUSH2 0xAB4 JUMP JUMPDEST SWAP3 SWAP2 POP POP JUMP JUMPDEST PUSH0 DUP2 SWAP1 POP SWAP2 SWAP1 POP JUMP JUMPDEST PUSH2 0xAF0 DUP2 PUSH2 0xADE JUMP JUMPDEST DUP2 EQ PUSH2 0xAFA JUMPI PUSH0 DUP1 REVERT JUMPDEST POP JUMP JUMPDEST PUSH0 DUP2 MLOAD SWAP1 POP PUSH2 0xB0B DUP2 PUSH2 0xAE7 JUMP JUMPDEST SWAP3 SWAP2 POP POP JUMP JUMPDEST PUSH0 DUP2 MLOAD SWAP1 POP PUSH2 0xB1F DUP2 PUSH2 0x7D1 JUMP JUMPDEST SWAP3 SWAP2 POP POP JUMP JUMPDEST PUSH0 DUP1 PUSH0 DUP1 PUSH0 PUSH1 0xA0 DUP7 DUP9 SUB SLT ISZERO PUSH2 0xB3E JUMPI PUSH2 0xB3D PUSH2 0x6EF JUMP JUMPDEST JUMPDEST PUSH0 PUSH2 0xB4B DUP9 DUP3 DUP10 ADD PUSH2 0xACA JUMP JUMPDEST SWAP6 POP POP PUSH1 0x20 PUSH2 0xB5C DUP9 DUP3 DUP10 ADD PUSH2 0xAFD JUMP JUMPDEST SWAP5 POP POP PUSH1 0x40 PUSH2 0xB6D DUP9 DUP3 DUP10 ADD PUSH2 0xB11 JUMP JUMPDEST SWAP4 POP POP PUSH1 0x60 PUSH2 0xB7E DUP9 DUP3 DUP10 ADD PUSH2 0xB11 JUMP JUMPDEST SWAP3 POP POP PUSH1 0x80 PUSH2 0xB8F DUP9 DUP3 DUP10 ADD PUSH2 0xACA JUMP JUMPDEST SWAP2 POP POP SWAP3 SWAP6 POP SWAP3 SWAP6 SWAP1 SWAP4 POP JUMP JUMPDEST PUSH0 PUSH2 0xBA6 DUP3 PUSH2 0xADE JUMP JUMPDEST SWAP2 POP PUSH2 0xBB1 DUP4 PUSH2 0xADE JUMP JUMPDEST SWAP3 POP DUP3 DUP3 MUL PUSH2 0xBBF DUP2 PUSH2 0xADE JUMP JUMPDEST SWAP2 POP PUSH32 0x8000000000000000000000000000000000000000000000000000000000000000 DUP5 EQ PUSH0 DUP5 SLT AND ISZERO PUSH2 0xBF6 JUMPI PUSH2 0xBF5 PUSH2 0x826 JUMP JUMPDEST JUMPDEST DUP3 DUP3 SDIV DUP5 EQ DUP4 ISZERO OR PUSH2 0xC0B JUMPI PUSH2 0xC0A PUSH2 0x826 JUMP JUMPDEST JUMPDEST POP SWAP3 SWAP2 POP POP JUMP INVALID LOG2 PUSH5 0x6970667358 0x22 SLT KECCAK256 MCOPY 0xB4 0xD8 JUMPI DUP8 PUSH13 0x2FB364F46AF06B927BBC538041 PUSH30 0xF159C355117D999FC0C4681864736F6C6343000818003300000000000000 "
				},
				"gasEstimates": {
					"creation": {
						"codeDepositCost": "628800",
						"executionCost": "infinite",
						"totalCost": "infinite"
					},
					"external": {
						"": "infinite",
						"MINIMUM_USD()": "325",
						"addressToAmountFunded(address)": "2825",
						"fund()": "infinite",
						"funders(uint256)": "5010",
						"i_owner()": "infinite",
						"myValue()": "2469",
						"withdraw()": "infinite"
					}
				},
				"methodIdentifiers": {
					"MINIMUM_USD()": "6b69a592",
					"addressToAmountFunded(address)": "3e47d6f3",
					"fund()": "b60d4288",
					"funders(uint256)": "dc0d3dff",
					"i_owner()": "dba6335f",
					"myValue()": "47f1aae7",
					"withdraw()": "3ccfd60b"
				}
			},
			"storageLayout": {
				"storage": [
					{
						"astId": 59,
						"contract": "contracts/FundMe.sol:FundMe",
						"label": "myValue",
						"offset": 0,
						"slot": "0",
						"type": "t_uint256"
					},
					{
						"astId": 62,
						"contract": "contracts/FundMe.sol:FundMe",
						"label": "funders",
						"offset": 0,
						"slot": "1",
						"type": "t_array(t_address)dyn_storage"
					},
					{
						"astId": 66,
						"contract": "contracts/FundMe.sol:FundMe",
						"label": "addressToAmountFunded",
						"offset": 0,
						"slot": "2",
						"type": "t_mapping(t_address,t_uint256)"
					}
				],
				"types": {
					"t_address": {
						"encoding": "inplace",
						"label": "address",
						"numberOfBytes": "20"
					},
					"t_array(t_address)dyn_storage": {
						"base": "t_address",
						"encoding": "dynamic_array",
						"label": "address[]",
						"numberOfBytes": "32"
					},
					"t_mapping(t_address,t_uint256)": {
						"encoding": "mapping",
						"key": "t_address",
						"label": "mapping(address => uint256)",
						"numberOfBytes": "32",
						"value": "t_uint256"
					},
					"t_uint256": {
						"encoding": "inplace",
						"label": "uint256",
						"numberOfBytes": "32"
					}
				}
			},
			"userdoc": {
				"kind": "user",
				"methods": {},
				"version": 1
			}
		}
	}
}