{
	"contracts/AddFiveStorage.sol": {
		"AddFiveStorage": {
			"abi": [
				{
					"inputs": [
						{
							"internalType": "string",
							"name": "_name",
							"type": "string"
						},
						{
							"internalType": "uint256",
							"name": "_number",
							"type": "uint256"
						}
					],
					"name": "addPerson",
					"outputs": [],
					"stateMutability": "nonpayable",
					"type": "function"
				},
				{
					"inputs": [
						{
							"internalType": "uint256",
							"name": "",
							"type": "uint256"
						}
					],
					"name": "listOfPeople",
					"outputs": [
						{
							"internalType": "uint256",
							"name": "favouriteNumber",
							"type": "uint256"
						},
						{
							"internalType": "string",
							"name": "name",
							"type": "string"
						}
					],
					"stateMutability": "view",
					"type": "function"
				},
				{
					"inputs": [],
					"name": "myfavouriteNumber",
					"outputs": [
						{
							"internalType": "uint256",
							"name": "",
							"type": "uint256"
						}
					],
					"stateMutability": "view",
					"type": "function"
				},
				{
					"inputs": [
						{
							"internalType": "string",
							"name": "",
							"type": "string"
						}
					],
					"name": "nameToFavouriteNumber",
					"outputs": [
						{
							"internalType": "uint256",
							"name": "",
							"type": "uint256"
						}
					],
					"stateMutability": "view",
					"type": "function"
				},
				{
					"inputs": [],
					"name": "retrieve",
					"outputs": [
						{
							"internalType": "uint256",
							"name": "",
							"type": "uint256"
						}
					],
					"stateMutability": "view",
					"type": "function"
				},
				{
					"inputs": [],
					"name": "sayHello",
					"outputs": [
						{
							"internalType": "string",
							"name": "",
							"type": "string"
						}
					],
					"stateMutability": "pure",
					"type": "function"
				},
				{
					"inputs": [
						{
							"internalType": "uint256",
							"name": "_newNumber",
							"type": "uint256"
						}
					],
					"name": "store",
					"outputs": [],
					"stateMutability": "nonpayable",
					"type": "function"
				}
			],
			"devdoc": {
				"kind": "dev",
				"methods": {},
				"version": 1
			},
			"evm": {
				"assembly": "    /* \"contracts/AddFiveStorage.sol\":162:618  contract AddFiveStorage is SimpleStorage {... */\n  mstore(0x40, 0x80)\n  callvalue\n  dup1\n  iszero\n  tag_1\n  jumpi\n  0x00\n  dup1\n  revert\ntag_1:\n  pop\n  dataSize(sub_0)\n  dup1\n  dataOffset(sub_0)\n  0x00\n  codecopy\n  0x00\n  return\nstop\n\nsub_0: assembly {\n        /* \"contracts/AddFiveStorage.sol\":162:618  contract AddFiveStorage is SimpleStorage {... */\n      mstore(0x40, 0x80)\n      callvalue\n      dup1\n      iszero\n      tag_1\n      jumpi\n      0x00\n      dup1\n      revert\n    tag_1:\n      pop\n      jumpi(tag_2, lt(calldatasize, 0x04))\n      shr(0xe0, calldataload(0x00))\n      dup1\n      0x6057361d\n      gt\n      tag_10\n      jumpi\n      dup1\n      0x6057361d\n      eq\n      tag_6\n      jumpi\n      dup1\n      0x6f760f41\n      eq\n      tag_7\n      jumpi\n      dup1\n      0xb2ac62ef\n      eq\n      tag_8\n      jumpi\n      dup1\n      0xef5fb05b\n      eq\n      tag_9\n      jumpi\n      jump(tag_2)\n    tag_10:\n      dup1\n      0x2e64cec1\n      eq\n      tag_3\n      jumpi\n      dup1\n      0x2ebce631\n      eq\n      tag_4\n      jumpi\n      dup1\n      0x3bc035d2\n      eq\n      tag_5\n      jumpi\n    tag_2:\n      0x00\n      dup1\n      revert\n        /* \"contracts/SimpleStorage.sol\":923:1014  function retrieve() public view returns (uint256) {... */\n    tag_3:\n      tag_11\n      tag_12\n      jump\t// in\n    tag_11:\n      mload(0x40)\n      tag_13\n      swap2\n      swap1\n      tag_14\n      jump\t// in\n    tag_13:\n      mload(0x40)\n      dup1\n      swap2\n      sub\n      swap1\n      return\n        /* \"contracts/SimpleStorage.sol\":794:822  Person[] public listOfPeople */\n    tag_4:\n      tag_15\n      0x04\n      dup1\n      calldatasize\n      sub\n      dup2\n      add\n      swap1\n      tag_16\n      swap2\n      swap1\n      tag_17\n      jump\t// in\n    tag_16:\n      tag_18\n      jump\t// in\n    tag_15:\n      mload(0x40)\n      tag_19\n      swap3\n      swap2\n      swap1\n      tag_20\n      jump\t// in\n    tag_19:\n      mload(0x40)\n      dup1\n      swap2\n      sub\n      swap1\n      return\n        /* \"contracts/SimpleStorage.sol\":136:168  uint256 public myfavouriteNumber */\n    tag_5:\n      tag_21\n      tag_22\n      jump\t// in\n    tag_21:\n      mload(0x40)\n      tag_23\n      swap2\n      swap1\n      tag_14\n      jump\t// in\n    tag_23:\n      mload(0x40)\n      dup1\n      swap2\n      sub\n      swap1\n      return\n        /* \"contracts/AddFiveStorage.sol\":456:615  function store(uint256 _newNumber) public override {... */\n    tag_6:\n      tag_24\n      0x04\n      dup1\n      calldatasize\n      sub\n      dup2\n      add\n      swap1\n      tag_25\n      swap2\n      swap1\n      tag_17\n      jump\t// in\n    tag_25:\n      tag_26\n      jump\t// in\n    tag_24:\n      stop\n        /* \"contracts/SimpleStorage.sol\":1241:1465  function addPerson(string memory _name, uint256 _number) public {... */\n    tag_7:\n      tag_27\n      0x04\n      dup1\n      calldatasize\n      sub\n      dup2\n      add\n      swap1\n      tag_28\n      swap2\n      swap1\n      tag_29\n      jump\t// in\n    tag_28:\n      tag_30\n      jump\t// in\n    tag_27:\n      stop\n        /* \"contracts/SimpleStorage.sol\":1091:1146  mapping(string => uint256) public nameToFavouriteNumber */\n    tag_8:\n      tag_31\n      0x04\n      dup1\n      calldatasize\n      sub\n      dup2\n      add\n      swap1\n      tag_32\n      swap2\n      swap1\n      tag_33\n      jump\t// in\n    tag_32:\n      tag_34\n      jump\t// in\n    tag_31:\n      mload(0x40)\n      tag_35\n      swap2\n      swap1\n      tag_14\n      jump\t// in\n    tag_35:\n      mload(0x40)\n      dup1\n      swap2\n      sub\n      swap1\n      return\n        /* \"contracts/AddFiveStorage.sol\":268:360  function sayHello() public pure returns (string memory) {... */\n    tag_9:\n      tag_36\n      tag_37\n      jump\t// in\n    tag_36:\n      mload(0x40)\n      tag_38\n      swap2\n      swap1\n      tag_39\n      jump\t// in\n    tag_38:\n      mload(0x40)\n      dup1\n      swap2\n      sub\n      swap1\n      return\n        /* \"contracts/SimpleStorage.sol\":923:1014  function retrieve() public view returns (uint256) {... */\n    tag_12:\n        /* \"contracts/SimpleStorage.sol\":964:971  uint256 */\n      0x00\n        /* \"contracts/SimpleStorage.sol\":990:1007  myfavouriteNumber */\n      dup1\n      sload\n        /* \"contracts/SimpleStorage.sol\":983:1007  return myfavouriteNumber */\n      swap1\n      pop\n        /* \"contracts/SimpleStorage.sol\":923:1014  function retrieve() public view returns (uint256) {... */\n      swap1\n      jump\t// out\n        /* \"contracts/SimpleStorage.sol\":794:822  Person[] public listOfPeople */\n    tag_18:\n      0x02\n      dup2\n      dup2\n      sload\n      dup2\n      lt\n      tag_41\n      jumpi\n      0x00\n      dup1\n      revert\n    tag_41:\n      swap1\n      0x00\n      mstore\n      keccak256(0x00, 0x20)\n      swap1\n      0x02\n      mul\n      add\n      0x00\n      swap2\n      pop\n      swap1\n      pop\n      dup1\n      0x00\n      add\n      sload\n      swap1\n      dup1\n      0x01\n      add\n      dup1\n      sload\n      tag_43\n      swap1\n      tag_44\n      jump\t// in\n    tag_43:\n      dup1\n      0x1f\n      add\n      0x20\n      dup1\n      swap2\n      div\n      mul\n      0x20\n      add\n      mload(0x40)\n      swap1\n      dup2\n      add\n      0x40\n      mstore\n      dup1\n      swap3\n      swap2\n      swap1\n      dup2\n      dup2\n      mstore\n      0x20\n      add\n      dup3\n      dup1\n      sload\n      tag_45\n      swap1\n      tag_44\n      jump\t// in\n    tag_45:\n      dup1\n      iszero\n      tag_46\n      jumpi\n      dup1\n      0x1f\n      lt\n      tag_47\n      jumpi\n      0x0100\n      dup1\n      dup4\n      sload\n      div\n      mul\n      dup4\n      mstore\n      swap2\n      0x20\n      add\n      swap2\n      jump(tag_46)\n    tag_47:\n      dup3\n      add\n      swap2\n      swap1\n      0x00\n      mstore\n      keccak256(0x00, 0x20)\n      swap1\n    tag_48:\n      dup2\n      sload\n      dup2\n      mstore\n      swap1\n      0x01\n      add\n      swap1\n      0x20\n      add\n      dup1\n      dup4\n      gt\n      tag_48\n      jumpi\n      dup3\n      swap1\n      sub\n      0x1f\n      and\n      dup3\n      add\n      swap2\n    tag_46:\n      pop\n      pop\n      pop\n      pop\n      pop\n      swap1\n      pop\n      dup3\n      jump\t// out\n        /* \"contracts/SimpleStorage.sol\":136:168  uint256 public myfavouriteNumber */\n    tag_22:\n      sload(0x00)\n      dup2\n      jump\t// out\n        /* \"contracts/AddFiveStorage.sol\":456:615  function store(uint256 _newNumber) public override {... */\n    tag_26:\n        /* \"contracts/AddFiveStorage.sol\":551:552  5 */\n      0x05\n        /* \"contracts/AddFiveStorage.sol\":538:548  _newNumber */\n      dup2\n        /* \"contracts/AddFiveStorage.sol\":538:552  _newNumber + 5 */\n      tag_50\n      swap2\n      swap1\n      tag_51\n      jump\t// in\n    tag_50:\n        /* \"contracts/AddFiveStorage.sol\":518:535  myfavouriteNumber */\n      0x00\n        /* \"contracts/AddFiveStorage.sol\":518:552  myfavouriteNumber = _newNumber + 5 */\n      dup2\n      swap1\n      sstore\n      pop\n        /* \"contracts/AddFiveStorage.sol\":456:615  function store(uint256 _newNumber) public override {... */\n      pop\n      jump\t// out\n        /* \"contracts/SimpleStorage.sol\":1241:1465  function addPerson(string memory _name, uint256 _number) public {... */\n    tag_30:\n        /* \"contracts/SimpleStorage.sol\":1346:1353  _number */\n      dup1\n        /* \"contracts/SimpleStorage.sol\":1315:1336  nameToFavouriteNumber */\n      0x03\n        /* \"contracts/SimpleStorage.sol\":1337:1342  _name */\n      dup4\n        /* \"contracts/SimpleStorage.sol\":1315:1343  nameToFavouriteNumber[_name] */\n      mload(0x40)\n      tag_53\n      swap2\n      swap1\n      tag_54\n      jump\t// in\n    tag_53:\n      swap1\n      dup2\n      mstore\n      0x20\n      add\n      mload(0x40)\n      dup1\n      swap2\n      sub\n      swap1\n      keccak256\n        /* \"contracts/SimpleStorage.sol\":1315:1353  nameToFavouriteNumber[_name] = _number */\n      dup2\n      swap1\n      sstore\n      pop\n        /* \"contracts/SimpleStorage.sol\":1385:1397  listOfPeople */\n      0x02\n        /* \"contracts/SimpleStorage.sol\":1403:1425  Person(_number, _name) */\n      mload(0x40)\n      dup1\n      0x40\n      add\n      0x40\n      mstore\n      dup1\n        /* \"contracts/SimpleStorage.sol\":1410:1417  _number */\n      dup4\n        /* \"contracts/SimpleStorage.sol\":1403:1425  Person(_number, _name) */\n      dup2\n      mstore\n      0x20\n      add\n        /* \"contracts/SimpleStorage.sol\":1419:1424  _name */\n      dup5\n        /* \"contracts/SimpleStorage.sol\":1403:1425  Person(_number, _name) */\n      dup2\n      mstore\n      pop\n        /* \"contracts/SimpleStorage.sol\":1385:1426  listOfPeople.push(Person(_number, _name)) */\n      swap1\n      dup1\n      0x01\n      dup2\n      sload\n      add\n      dup1\n      dup3\n      sstore\n      dup1\n      swap2\n      pop\n      pop\n      0x01\n      swap1\n      sub\n      swap1\n      0x00\n      mstore\n      keccak256(0x00, 0x20)\n      swap1\n      0x02\n      mul\n      add\n      0x00\n      swap1\n      swap2\n      swap1\n      swap2\n      swap1\n      swap2\n      pop\n      0x00\n      dup3\n      add\n      mload\n      dup2\n      0x00\n      add\n      sstore\n      0x20\n      dup3\n      add\n      mload\n      dup2\n      0x01\n      add\n      swap1\n      dup2\n      tag_56\n      swap2\n      swap1\n      tag_57\n      jump\t// in\n    tag_56:\n      pop\n      pop\n      pop\n        /* \"contracts/SimpleStorage.sol\":1241:1465  function addPerson(string memory _name, uint256 _number) public {... */\n      pop\n      pop\n      jump\t// out\n        /* \"contracts/SimpleStorage.sol\":1091:1146  mapping(string => uint256) public nameToFavouriteNumber */\n    tag_34:\n      0x03\n      dup2\n      dup1\n      mload\n      0x20\n      dup2\n      add\n      dup3\n      add\n      dup1\n      mload\n      dup5\n      dup3\n      mstore\n      0x20\n      dup4\n      add\n      0x20\n      dup6\n      add\n      keccak256\n      dup2\n      dup4\n      mstore\n      dup1\n      swap6\n      pop\n      pop\n      pop\n      pop\n      pop\n      pop\n      0x00\n      swap2\n      pop\n      swap1\n      pop\n      sload\n      dup2\n      jump\t// out\n        /* \"contracts/AddFiveStorage.sol\":268:360  function sayHello() public pure returns (string memory) {... */\n    tag_37:\n        /* \"contracts/AddFiveStorage.sol\":309:322  string memory */\n      0x60\n        /* \"contracts/AddFiveStorage.sol\":335:352  return \"Namaste!\" */\n      mload(0x40)\n      dup1\n      0x40\n      add\n      0x40\n      mstore\n      dup1\n      0x08\n      dup2\n      mstore\n      0x20\n      add\n      0x4e616d6173746521000000000000000000000000000000000000000000000000\n      dup2\n      mstore\n      pop\n      swap1\n      pop\n        /* \"contracts/AddFiveStorage.sol\":268:360  function sayHello() public pure returns (string memory) {... */\n      swap1\n      jump\t// out\n        /* \"#utility.yul\":7:84   */\n    tag_59:\n        /* \"#utility.yul\":44:51   */\n      0x00\n        /* \"#utility.yul\":73:78   */\n      dup2\n        /* \"#utility.yul\":62:78   */\n      swap1\n      pop\n        /* \"#utility.yul\":7:84   */\n      swap2\n      swap1\n      pop\n      jump\t// out\n        /* \"#utility.yul\":90:208   */\n    tag_60:\n        /* \"#utility.yul\":177:201   */\n      tag_102\n        /* \"#utility.yul\":195:200   */\n      dup2\n        /* \"#utility.yul\":177:201   */\n      tag_59\n      jump\t// in\n    tag_102:\n        /* \"#utility.yul\":172:175   */\n      dup3\n        /* \"#utility.yul\":165:202   */\n      mstore\n        /* \"#utility.yul\":90:208   */\n      pop\n      pop\n      jump\t// out\n        /* \"#utility.yul\":214:436   */\n    tag_14:\n        /* \"#utility.yul\":307:311   */\n      0x00\n        /* \"#utility.yul\":345:347   */\n      0x20\n        /* \"#utility.yul\":334:343   */\n      dup3\n        /* \"#utility.yul\":330:348   */\n      add\n        /* \"#utility.yul\":322:348   */\n      swap1\n      pop\n        /* \"#utility.yul\":358:429   */\n      tag_104\n        /* \"#utility.yul\":426:427   */\n      0x00\n        /* \"#utility.yul\":415:424   */\n      dup4\n        /* \"#utility.yul\":411:428   */\n      add\n        /* \"#utility.yul\":402:408   */\n      dup5\n        /* \"#utility.yul\":358:429   */\n      tag_60\n      jump\t// in\n    tag_104:\n        /* \"#utility.yul\":214:436   */\n      swap3\n      swap2\n      pop\n      pop\n      jump\t// out\n        /* \"#utility.yul\":442:517   */\n    tag_61:\n        /* \"#utility.yul\":475:481   */\n      0x00\n        /* \"#utility.yul\":508:510   */\n      0x40\n        /* \"#utility.yul\":502:511   */\n      mload\n        /* \"#utility.yul\":492:511   */\n      swap1\n      pop\n        /* \"#utility.yul\":442:517   */\n      swap1\n      jump\t// out\n        /* \"#utility.yul\":523:640   */\n    tag_62:\n        /* \"#utility.yul\":632:633   */\n      0x00\n        /* \"#utility.yul\":629:630   */\n      dup1\n        /* \"#utility.yul\":622:634   */\n      revert\n        /* \"#utility.yul\":646:763   */\n    tag_63:\n        /* \"#utility.yul\":755:756   */\n      0x00\n        /* \"#utility.yul\":752:753   */\n      dup1\n        /* \"#utility.yul\":745:757   */\n      revert\n        /* \"#utility.yul\":769:891   */\n    tag_64:\n        /* \"#utility.yul\":842:866   */\n      tag_109\n        /* \"#utility.yul\":860:865   */\n      dup2\n        /* \"#utility.yul\":842:866   */\n      tag_59\n      jump\t// in\n    tag_109:\n        /* \"#utility.yul\":835:840   */\n      dup2\n        /* \"#utility.yul\":832:867   */\n      eq\n        /* \"#utility.yul\":822:885   */\n      tag_110\n      jumpi\n        /* \"#utility.yul\":881:882   */\n      0x00\n        /* \"#utility.yul\":878:879   */\n      dup1\n        /* \"#utility.yul\":871:883   */\n      revert\n        /* \"#utility.yul\":822:885   */\n    tag_110:\n        /* \"#utility.yul\":769:891   */\n      pop\n      jump\t// out\n        /* \"#utility.yul\":897:1036   */\n    tag_65:\n        /* \"#utility.yul\":943:948   */\n      0x00\n        /* \"#utility.yul\":981:987   */\n      dup2\n        /* \"#utility.yul\":968:988   */\n      calldataload\n        /* \"#utility.yul\":959:988   */\n      swap1\n      pop\n        /* \"#utility.yul\":997:1030   */\n      tag_112\n        /* \"#utility.yul\":1024:1029   */\n      dup2\n        /* \"#utility.yul\":997:1030   */\n      tag_64\n      jump\t// in\n    tag_112:\n        /* \"#utility.yul\":897:1036   */\n      swap3\n      swap2\n      pop\n      pop\n      jump\t// out\n        /* \"#utility.yul\":1042:1371   */\n    tag_17:\n        /* \"#utility.yul\":1101:1107   */\n      0x00\n        /* \"#utility.yul\":1150:1152   */\n      0x20\n        /* \"#utility.yul\":1138:1147   */\n      dup3\n        /* \"#utility.yul\":1129:1136   */\n      dup5\n        /* \"#utility.yul\":1125:1148   */\n      sub\n        /* \"#utility.yul\":1121:1153   */\n      slt\n        /* \"#utility.yul\":1118:1237   */\n      iszero\n      tag_114\n      jumpi\n        /* \"#utility.yul\":1156:1235   */\n      tag_115\n      tag_62\n      jump\t// in\n    tag_115:\n        /* \"#utility.yul\":1118:1237   */\n    tag_114:\n        /* \"#utility.yul\":1276:1277   */\n      0x00\n        /* \"#utility.yul\":1301:1354   */\n      tag_116\n        /* \"#utility.yul\":1346:1353   */\n      dup5\n        /* \"#utility.yul\":1337:1343   */\n      dup3\n        /* \"#utility.yul\":1326:1335   */\n      dup6\n        /* \"#utility.yul\":1322:1344   */\n      add\n        /* \"#utility.yul\":1301:1354   */\n      tag_65\n      jump\t// in\n    tag_116:\n        /* \"#utility.yul\":1291:1354   */\n      swap2\n      pop\n        /* \"#utility.yul\":1247:1364   */\n      pop\n        /* \"#utility.yul\":1042:1371   */\n      swap3\n      swap2\n      pop\n      pop\n      jump\t// out\n        /* \"#utility.yul\":1377:1476   */\n    tag_66:\n        /* \"#utility.yul\":1429:1435   */\n      0x00\n        /* \"#utility.yul\":1463:1468   */\n      dup2\n        /* \"#utility.yul\":1457:1469   */\n      mload\n        /* \"#utility.yul\":1447:1469   */\n      swap1\n      pop\n        /* \"#utility.yul\":1377:1476   */\n      swap2\n      swap1\n      pop\n      jump\t// out\n        /* \"#utility.yul\":1482:1651   */\n    tag_67:\n        /* \"#utility.yul\":1566:1577   */\n      0x00\n        /* \"#utility.yul\":1600:1606   */\n      dup3\n        /* \"#utility.yul\":1595:1598   */\n      dup3\n        /* \"#utility.yul\":1588:1607   */\n      mstore\n        /* \"#utility.yul\":1640:1644   */\n      0x20\n        /* \"#utility.yul\":1635:1638   */\n      dup3\n        /* \"#utility.yul\":1631:1645   */\n      add\n        /* \"#utility.yul\":1616:1645   */\n      swap1\n      pop\n        /* \"#utility.yul\":1482:1651   */\n      swap3\n      swap2\n      pop\n      pop\n      jump\t// out\n        /* \"#utility.yul\":1657:1903   */\n    tag_68:\n        /* \"#utility.yul\":1738:1739   */\n      0x00\n        /* \"#utility.yul\":1748:1861   */\n    tag_120:\n        /* \"#utility.yul\":1762:1768   */\n      dup4\n        /* \"#utility.yul\":1759:1760   */\n      dup2\n        /* \"#utility.yul\":1756:1769   */\n      lt\n        /* \"#utility.yul\":1748:1861   */\n      iszero\n      tag_122\n      jumpi\n        /* \"#utility.yul\":1847:1848   */\n      dup1\n        /* \"#utility.yul\":1842:1845   */\n      dup3\n        /* \"#utility.yul\":1838:1849   */\n      add\n        /* \"#utility.yul\":1832:1850   */\n      mload\n        /* \"#utility.yul\":1828:1829   */\n      dup2\n        /* \"#utility.yul\":1823:1826   */\n      dup5\n        /* \"#utility.yul\":1819:1830   */\n      add\n        /* \"#utility.yul\":1812:1851   */\n      mstore\n        /* \"#utility.yul\":1784:1786   */\n      0x20\n        /* \"#utility.yul\":1781:1782   */\n      dup2\n        /* \"#utility.yul\":1777:1787   */\n      add\n        /* \"#utility.yul\":1772:1787   */\n      swap1\n      pop\n        /* \"#utility.yul\":1748:1861   */\n      jump(tag_120)\n    tag_122:\n        /* \"#utility.yul\":1895:1896   */\n      0x00\n        /* \"#utility.yul\":1886:1892   */\n      dup5\n        /* \"#utility.yul\":1881:1884   */\n      dup5\n        /* \"#utility.yul\":1877:1893   */\n      add\n        /* \"#utility.yul\":1870:1897   */\n      mstore\n        /* \"#utility.yul\":1719:1903   */\n      pop\n        /* \"#utility.yul\":1657:1903   */\n      pop\n      pop\n      pop\n      jump\t// out\n        /* \"#utility.yul\":1909:2011   */\n    tag_69:\n        /* \"#utility.yul\":1950:1956   */\n      0x00\n        /* \"#utility.yul\":2001:2003   */\n      0x1f\n        /* \"#utility.yul\":1997:2004   */\n      not\n        /* \"#utility.yul\":1992:1994   */\n      0x1f\n        /* \"#utility.yul\":1985:1990   */\n      dup4\n        /* \"#utility.yul\":1981:1995   */\n      add\n        /* \"#utility.yul\":1977:2005   */\n      and\n        /* \"#utility.yul\":1967:2005   */\n      swap1\n      pop\n        /* \"#utility.yul\":1909:2011   */\n      swap2\n      swap1\n      pop\n      jump\t// out\n        /* \"#utility.yul\":2017:2394   */\n    tag_70:\n        /* \"#utility.yul\":2105:2108   */\n      0x00\n        /* \"#utility.yul\":2133:2172   */\n      tag_125\n        /* \"#utility.yul\":2166:2171   */\n      dup3\n        /* \"#utility.yul\":2133:2172   */\n      tag_66\n      jump\t// in\n    tag_125:\n        /* \"#utility.yul\":2188:2259   */\n      tag_126\n        /* \"#utility.yul\":2252:2258   */\n      dup2\n        /* \"#utility.yul\":2247:2250   */\n      dup6\n        /* \"#utility.yul\":2188:2259   */\n      tag_67\n      jump\t// in\n    tag_126:\n        /* \"#utility.yul\":2181:2259   */\n      swap4\n      pop\n        /* \"#utility.yul\":2268:2333   */\n      tag_127\n        /* \"#utility.yul\":2326:2332   */\n      dup2\n        /* \"#utility.yul\":2321:2324   */\n      dup6\n        /* \"#utility.yul\":2314:2318   */\n      0x20\n        /* \"#utility.yul\":2307:2312   */\n      dup7\n        /* \"#utility.yul\":2303:2319   */\n      add\n        /* \"#utility.yul\":2268:2333   */\n      tag_68\n      jump\t// in\n    tag_127:\n        /* \"#utility.yul\":2358:2387   */\n      tag_128\n        /* \"#utility.yul\":2380:2386   */\n      dup2\n        /* \"#utility.yul\":2358:2387   */\n      tag_69\n      jump\t// in\n    tag_128:\n        /* \"#utility.yul\":2353:2356   */\n      dup5\n        /* \"#utility.yul\":2349:2388   */\n      add\n        /* \"#utility.yul\":2342:2388   */\n      swap2\n      pop\n        /* \"#utility.yul\":2109:2394   */\n      pop\n        /* \"#utility.yul\":2017:2394   */\n      swap3\n      swap2\n      pop\n      pop\n      jump\t// out\n        /* \"#utility.yul\":2400:2823   */\n    tag_20:\n        /* \"#utility.yul\":2541:2545   */\n      0x00\n        /* \"#utility.yul\":2579:2581   */\n      0x40\n        /* \"#utility.yul\":2568:2577   */\n      dup3\n        /* \"#utility.yul\":2564:2582   */\n      add\n        /* \"#utility.yul\":2556:2582   */\n      swap1\n      pop\n        /* \"#utility.yul\":2592:2663   */\n      tag_130\n        /* \"#utility.yul\":2660:2661   */\n      0x00\n        /* \"#utility.yul\":2649:2658   */\n      dup4\n        /* \"#utility.yul\":2645:2662   */\n      add\n        /* \"#utility.yul\":2636:2642   */\n      dup6\n        /* \"#utility.yul\":2592:2663   */\n      tag_60\n      jump\t// in\n    tag_130:\n        /* \"#utility.yul\":2710:2719   */\n      dup2\n        /* \"#utility.yul\":2704:2708   */\n      dup2\n        /* \"#utility.yul\":2700:2720   */\n      sub\n        /* \"#utility.yul\":2695:2697   */\n      0x20\n        /* \"#utility.yul\":2684:2693   */\n      dup4\n        /* \"#utility.yul\":2680:2698   */\n      add\n        /* \"#utility.yul\":2673:2721   */\n      mstore\n        /* \"#utility.yul\":2738:2816   */\n      tag_131\n        /* \"#utility.yul\":2811:2815   */\n      dup2\n        /* \"#utility.yul\":2802:2808   */\n      dup5\n        /* \"#utility.yul\":2738:2816   */\n      tag_70\n      jump\t// in\n    tag_131:\n        /* \"#utility.yul\":2730:2816   */\n      swap1\n      pop\n        /* \"#utility.yul\":2400:2823   */\n      swap4\n      swap3\n      pop\n      pop\n      pop\n      jump\t// out\n        /* \"#utility.yul\":2829:2946   */\n    tag_71:\n        /* \"#utility.yul\":2938:2939   */\n      0x00\n        /* \"#utility.yul\":2935:2936   */\n      dup1\n        /* \"#utility.yul\":2928:2940   */\n      revert\n        /* \"#utility.yul\":2952:3069   */\n    tag_72:\n        /* \"#utility.yul\":3061:3062   */\n      0x00\n        /* \"#utility.yul\":3058:3059   */\n      dup1\n        /* \"#utility.yul\":3051:3063   */\n      revert\n        /* \"#utility.yul\":3075:3255   */\n    tag_73:\n        /* \"#utility.yul\":3123:3200   */\n      0x4e487b7100000000000000000000000000000000000000000000000000000000\n        /* \"#utility.yul\":3120:3121   */\n      0x00\n        /* \"#utility.yul\":3113:3201   */\n      mstore\n        /* \"#utility.yul\":3220:3224   */\n      0x41\n        /* \"#utility.yul\":3217:3218   */\n      0x04\n        /* \"#utility.yul\":3210:3225   */\n      mstore\n        /* \"#utility.yul\":3244:3248   */\n      0x24\n        /* \"#utility.yul\":3241:3242   */\n      0x00\n        /* \"#utility.yul\":3234:3249   */\n      revert\n        /* \"#utility.yul\":3261:3542   */\n    tag_74:\n        /* \"#utility.yul\":3344:3371   */\n      tag_136\n        /* \"#utility.yul\":3366:3370   */\n      dup3\n        /* \"#utility.yul\":3344:3371   */\n      tag_69\n      jump\t// in\n    tag_136:\n        /* \"#utility.yul\":3336:3342   */\n      dup2\n        /* \"#utility.yul\":3332:3372   */\n      add\n        /* \"#utility.yul\":3474:3480   */\n      dup2\n        /* \"#utility.yul\":3462:3472   */\n      dup2\n        /* \"#utility.yul\":3459:3481   */\n      lt\n        /* \"#utility.yul\":3438:3456   */\n      0xffffffffffffffff\n        /* \"#utility.yul\":3426:3436   */\n      dup3\n        /* \"#utility.yul\":3423:3457   */\n      gt\n        /* \"#utility.yul\":3420:3482   */\n      or\n        /* \"#utility.yul\":3417:3505   */\n      iszero\n      tag_137\n      jumpi\n        /* \"#utility.yul\":3485:3503   */\n      tag_138\n      tag_73\n      jump\t// in\n    tag_138:\n        /* \"#utility.yul\":3417:3505   */\n    tag_137:\n        /* \"#utility.yul\":3525:3535   */\n      dup1\n        /* \"#utility.yul\":3521:3523   */\n      0x40\n        /* \"#utility.yul\":3514:3536   */\n      mstore\n        /* \"#utility.yul\":3304:3542   */\n      pop\n        /* \"#utility.yul\":3261:3542   */\n      pop\n      pop\n      jump\t// out\n        /* \"#utility.yul\":3548:3677   */\n    tag_75:\n        /* \"#utility.yul\":3582:3588   */\n      0x00\n        /* \"#utility.yul\":3609:3629   */\n      tag_140\n      tag_61\n      jump\t// in\n    tag_140:\n        /* \"#utility.yul\":3599:3629   */\n      swap1\n      pop\n        /* \"#utility.yul\":3638:3671   */\n      tag_141\n        /* \"#utility.yul\":3666:3670   */\n      dup3\n        /* \"#utility.yul\":3658:3664   */\n      dup3\n        /* \"#utility.yul\":3638:3671   */\n      tag_74\n      jump\t// in\n    tag_141:\n        /* \"#utility.yul\":3548:3677   */\n      swap2\n      swap1\n      pop\n      jump\t// out\n        /* \"#utility.yul\":3683:3991   */\n    tag_76:\n        /* \"#utility.yul\":3745:3749   */\n      0x00\n        /* \"#utility.yul\":3835:3853   */\n      0xffffffffffffffff\n        /* \"#utility.yul\":3827:3833   */\n      dup3\n        /* \"#utility.yul\":3824:3854   */\n      gt\n        /* \"#utility.yul\":3821:3877   */\n      iszero\n      tag_143\n      jumpi\n        /* \"#utility.yul\":3857:3875   */\n      tag_144\n      tag_73\n      jump\t// in\n    tag_144:\n        /* \"#utility.yul\":3821:3877   */\n    tag_143:\n        /* \"#utility.yul\":3895:3924   */\n      tag_145\n        /* \"#utility.yul\":3917:3923   */\n      dup3\n        /* \"#utility.yul\":3895:3924   */\n      tag_69\n      jump\t// in\n    tag_145:\n        /* \"#utility.yul\":3887:3924   */\n      swap1\n      pop\n        /* \"#utility.yul\":3979:3983   */\n      0x20\n        /* \"#utility.yul\":3973:3977   */\n      dup2\n        /* \"#utility.yul\":3969:3984   */\n      add\n        /* \"#utility.yul\":3961:3984   */\n      swap1\n      pop\n        /* \"#utility.yul\":3683:3991   */\n      swap2\n      swap1\n      pop\n      jump\t// out\n        /* \"#utility.yul\":3997:4143   */\n    tag_77:\n        /* \"#utility.yul\":4094:4100   */\n      dup3\n        /* \"#utility.yul\":4089:4092   */\n      dup2\n        /* \"#utility.yul\":4084:4087   */\n      dup4\n        /* \"#utility.yul\":4071:4101   */\n      calldatacopy\n        /* \"#utility.yul\":4135:4136   */\n      0x00\n        /* \"#utility.yul\":4126:4132   */\n      dup4\n        /* \"#utility.yul\":4121:4124   */\n      dup4\n        /* \"#utility.yul\":4117:4133   */\n      add\n        /* \"#utility.yul\":4110:4137   */\n      mstore\n        /* \"#utility.yul\":3997:4143   */\n      pop\n      pop\n      pop\n      jump\t// out\n        /* \"#utility.yul\":4149:4574   */\n    tag_78:\n        /* \"#utility.yul\":4227:4232   */\n      0x00\n        /* \"#utility.yul\":4252:4318   */\n      tag_148\n        /* \"#utility.yul\":4268:4317   */\n      tag_149\n        /* \"#utility.yul\":4310:4316   */\n      dup5\n        /* \"#utility.yul\":4268:4317   */\n      tag_76\n      jump\t// in\n    tag_149:\n        /* \"#utility.yul\":4252:4318   */\n      tag_75\n      jump\t// in\n    tag_148:\n        /* \"#utility.yul\":4243:4318   */\n      swap1\n      pop\n        /* \"#utility.yul\":4341:4347   */\n      dup3\n        /* \"#utility.yul\":4334:4339   */\n      dup2\n        /* \"#utility.yul\":4327:4348   */\n      mstore\n        /* \"#utility.yul\":4379:4383   */\n      0x20\n        /* \"#utility.yul\":4372:4377   */\n      dup2\n        /* \"#utility.yul\":4368:4384   */\n      add\n        /* \"#utility.yul\":4417:4420   */\n      dup5\n        /* \"#utility.yul\":4408:4414   */\n      dup5\n        /* \"#utility.yul\":4403:4406   */\n      dup5\n        /* \"#utility.yul\":4399:4415   */\n      add\n        /* \"#utility.yul\":4396:4421   */\n      gt\n        /* \"#utility.yul\":4393:4505   */\n      iszero\n      tag_150\n      jumpi\n        /* \"#utility.yul\":4424:4503   */\n      tag_151\n      tag_72\n      jump\t// in\n    tag_151:\n        /* \"#utility.yul\":4393:4505   */\n    tag_150:\n        /* \"#utility.yul\":4514:4568   */\n      tag_152\n        /* \"#utility.yul\":4561:4567   */\n      dup5\n        /* \"#utility.yul\":4556:4559   */\n      dup3\n        /* \"#utility.yul\":4551:4554   */\n      dup6\n        /* \"#utility.yul\":4514:4568   */\n      tag_77\n      jump\t// in\n    tag_152:\n        /* \"#utility.yul\":4233:4574   */\n      pop\n        /* \"#utility.yul\":4149:4574   */\n      swap4\n      swap3\n      pop\n      pop\n      pop\n      jump\t// out\n        /* \"#utility.yul\":4594:4934   */\n    tag_79:\n        /* \"#utility.yul\":4650:4655   */\n      0x00\n        /* \"#utility.yul\":4699:4702   */\n      dup3\n        /* \"#utility.yul\":4692:4696   */\n      0x1f\n        /* \"#utility.yul\":4684:4690   */\n      dup4\n        /* \"#utility.yul\":4680:4697   */\n      add\n        /* \"#utility.yul\":4676:4703   */\n      slt\n        /* \"#utility.yul\":4666:4788   */\n      tag_154\n      jumpi\n        /* \"#utility.yul\":4707:4786   */\n      tag_155\n      tag_71\n      jump\t// in\n    tag_155:\n        /* \"#utility.yul\":4666:4788   */\n    tag_154:\n        /* \"#utility.yul\":4824:4830   */\n      dup2\n        /* \"#utility.yul\":4811:4831   */\n      calldataload\n        /* \"#utility.yul\":4849:4928   */\n      tag_156\n        /* \"#utility.yul\":4924:4927   */\n      dup5\n        /* \"#utility.yul\":4916:4922   */\n      dup3\n        /* \"#utility.yul\":4909:4913   */\n      0x20\n        /* \"#utility.yul\":4901:4907   */\n      dup7\n        /* \"#utility.yul\":4897:4914   */\n      add\n        /* \"#utility.yul\":4849:4928   */\n      tag_78\n      jump\t// in\n    tag_156:\n        /* \"#utility.yul\":4840:4928   */\n      swap2\n      pop\n        /* \"#utility.yul\":4656:4934   */\n      pop\n        /* \"#utility.yul\":4594:4934   */\n      swap3\n      swap2\n      pop\n      pop\n      jump\t// out\n        /* \"#utility.yul\":4940:5594   */\n    tag_29:\n        /* \"#utility.yul\":5018:5024   */\n      0x00\n        /* \"#utility.yul\":5026:5032   */\n      dup1\n        /* \"#utility.yul\":5075:5077   */\n      0x40\n        /* \"#utility.yul\":5063:5072   */\n      dup4\n        /* \"#utility.yul\":5054:5061   */\n      dup6\n        /* \"#utility.yul\":5050:5073   */\n      sub\n        /* \"#utility.yul\":5046:5078   */\n      slt\n        /* \"#utility.yul\":5043:5162   */\n      iszero\n      tag_158\n      jumpi\n        /* \"#utility.yul\":5081:5160   */\n      tag_159\n      tag_62\n      jump\t// in\n    tag_159:\n        /* \"#utility.yul\":5043:5162   */\n    tag_158:\n        /* \"#utility.yul\":5229:5230   */\n      0x00\n        /* \"#utility.yul\":5218:5227   */\n      dup4\n        /* \"#utility.yul\":5214:5231   */\n      add\n        /* \"#utility.yul\":5201:5232   */\n      calldataload\n        /* \"#utility.yul\":5259:5277   */\n      0xffffffffffffffff\n        /* \"#utility.yul\":5251:5257   */\n      dup2\n        /* \"#utility.yul\":5248:5278   */\n      gt\n        /* \"#utility.yul\":5245:5362   */\n      iszero\n      tag_160\n      jumpi\n        /* \"#utility.yul\":5281:5360   */\n      tag_161\n      tag_63\n      jump\t// in\n    tag_161:\n        /* \"#utility.yul\":5245:5362   */\n    tag_160:\n        /* \"#utility.yul\":5386:5449   */\n      tag_162\n        /* \"#utility.yul\":5441:5448   */\n      dup6\n        /* \"#utility.yul\":5432:5438   */\n      dup3\n        /* \"#utility.yul\":5421:5430   */\n      dup7\n        /* \"#utility.yul\":5417:5439   */\n      add\n        /* \"#utility.yul\":5386:5449   */\n      tag_79\n      jump\t// in\n    tag_162:\n        /* \"#utility.yul\":5376:5449   */\n      swap3\n      pop\n        /* \"#utility.yul\":5172:5459   */\n      pop\n        /* \"#utility.yul\":5498:5500   */\n      0x20\n        /* \"#utility.yul\":5524:5577   */\n      tag_163\n        /* \"#utility.yul\":5569:5576   */\n      dup6\n        /* \"#utility.yul\":5560:5566   */\n      dup3\n        /* \"#utility.yul\":5549:5558   */\n      dup7\n        /* \"#utility.yul\":5545:5567   */\n      add\n        /* \"#utility.yul\":5524:5577   */\n      tag_65\n      jump\t// in\n    tag_163:\n        /* \"#utility.yul\":5514:5577   */\n      swap2\n      pop\n        /* \"#utility.yul\":5469:5587   */\n      pop\n        /* \"#utility.yul\":4940:5594   */\n      swap3\n      pop\n      swap3\n      swap1\n      pop\n      jump\t// out\n        /* \"#utility.yul\":5600:6109   */\n    tag_33:\n        /* \"#utility.yul\":5669:5675   */\n      0x00\n        /* \"#utility.yul\":5718:5720   */\n      0x20\n        /* \"#utility.yul\":5706:5715   */\n      dup3\n        /* \"#utility.yul\":5697:5704   */\n      dup5\n        /* \"#utility.yul\":5693:5716   */\n      sub\n        /* \"#utility.yul\":5689:5721   */\n      slt\n        /* \"#utility.yul\":5686:5805   */\n      iszero\n      tag_165\n      jumpi\n        /* \"#utility.yul\":5724:5803   */\n      tag_166\n      tag_62\n      jump\t// in\n    tag_166:\n        /* \"#utility.yul\":5686:5805   */\n    tag_165:\n        /* \"#utility.yul\":5872:5873   */\n      0x00\n        /* \"#utility.yul\":5861:5870   */\n      dup3\n        /* \"#utility.yul\":5857:5874   */\n      add\n        /* \"#utility.yul\":5844:5875   */\n      calldataload\n        /* \"#utility.yul\":5902:5920   */\n      0xffffffffffffffff\n        /* \"#utility.yul\":5894:5900   */\n      dup2\n        /* \"#utility.yul\":5891:5921   */\n      gt\n        /* \"#utility.yul\":5888:6005   */\n      iszero\n      tag_167\n      jumpi\n        /* \"#utility.yul\":5924:6003   */\n      tag_168\n      tag_63\n      jump\t// in\n    tag_168:\n        /* \"#utility.yul\":5888:6005   */\n    tag_167:\n        /* \"#utility.yul\":6029:6092   */\n      tag_169\n        /* \"#utility.yul\":6084:6091   */\n      dup5\n        /* \"#utility.yul\":6075:6081   */\n      dup3\n        /* \"#utility.yul\":6064:6073   */\n      dup6\n        /* \"#utility.yul\":6060:6082   */\n      add\n        /* \"#utility.yul\":6029:6092   */\n      tag_79\n      jump\t// in\n    tag_169:\n        /* \"#utility.yul\":6019:6092   */\n      swap2\n      pop\n        /* \"#utility.yul\":5815:6102   */\n      pop\n        /* \"#utility.yul\":5600:6109   */\n      swap3\n      swap2\n      pop\n      pop\n      jump\t// out\n        /* \"#utility.yul\":6115:6428   */\n    tag_39:\n        /* \"#utility.yul\":6228:6232   */\n      0x00\n        /* \"#utility.yul\":6266:6268   */\n      0x20\n        /* \"#utility.yul\":6255:6264   */\n      dup3\n        /* \"#utility.yul\":6251:6269   */\n      add\n        /* \"#utility.yul\":6243:6269   */\n      swap1\n      pop\n        /* \"#utility.yul\":6315:6324   */\n      dup2\n        /* \"#utility.yul\":6309:6313   */\n      dup2\n        /* \"#utility.yul\":6305:6325   */\n      sub\n        /* \"#utility.yul\":6301:6302   */\n      0x00\n        /* \"#utility.yul\":6290:6299   */\n      dup4\n        /* \"#utility.yul\":6286:6303   */\n      add\n        /* \"#utility.yul\":6279:6326   */\n      mstore\n        /* \"#utility.yul\":6343:6421   */\n      tag_171\n        /* \"#utility.yul\":6416:6420   */\n      dup2\n        /* \"#utility.yul\":6407:6413   */\n      dup5\n        /* \"#utility.yul\":6343:6421   */\n      tag_70\n      jump\t// in\n    tag_171:\n        /* \"#utility.yul\":6335:6421   */\n      swap1\n      pop\n        /* \"#utility.yul\":6115:6428   */\n      swap3\n      swap2\n      pop\n      pop\n      jump\t// out\n        /* \"#utility.yul\":6434:6614   */\n    tag_80:\n        /* \"#utility.yul\":6482:6559   */\n      0x4e487b7100000000000000000000000000000000000000000000000000000000\n        /* \"#utility.yul\":6479:6480   */\n      0x00\n        /* \"#utility.yul\":6472:6560   */\n      mstore\n        /* \"#utility.yul\":6579:6583   */\n      0x22\n        /* \"#utility.yul\":6576:6577   */\n      0x04\n        /* \"#utility.yul\":6569:6584   */\n      mstore\n        /* \"#utility.yul\":6603:6607   */\n      0x24\n        /* \"#utility.yul\":6600:6601   */\n      0x00\n        /* \"#utility.yul\":6593:6608   */\n      revert\n        /* \"#utility.yul\":6620:6940   */\n    tag_44:\n        /* \"#utility.yul\":6664:6670   */\n      0x00\n        /* \"#utility.yul\":6701:6702   */\n      0x02\n        /* \"#utility.yul\":6695:6699   */\n      dup3\n        /* \"#utility.yul\":6691:6703   */\n      div\n        /* \"#utility.yul\":6681:6703   */\n      swap1\n      pop\n        /* \"#utility.yul\":6748:6749   */\n      0x01\n        /* \"#utility.yul\":6742:6746   */\n      dup3\n        /* \"#utility.yul\":6738:6750   */\n      and\n        /* \"#utility.yul\":6769:6787   */\n      dup1\n        /* \"#utility.yul\":6759:6840   */\n      tag_174\n      jumpi\n        /* \"#utility.yul\":6825:6829   */\n      0x7f\n        /* \"#utility.yul\":6817:6823   */\n      dup3\n        /* \"#utility.yul\":6813:6830   */\n      and\n        /* \"#utility.yul\":6803:6830   */\n      swap2\n      pop\n        /* \"#utility.yul\":6759:6840   */\n    tag_174:\n        /* \"#utility.yul\":6887:6889   */\n      0x20\n        /* \"#utility.yul\":6879:6885   */\n      dup3\n        /* \"#utility.yul\":6876:6890   */\n      lt\n        /* \"#utility.yul\":6856:6874   */\n      dup2\n        /* \"#utility.yul\":6853:6891   */\n      sub\n        /* \"#utility.yul\":6850:6934   */\n      tag_175\n      jumpi\n        /* \"#utility.yul\":6906:6924   */\n      tag_176\n      tag_80\n      jump\t// in\n    tag_176:\n        /* \"#utility.yul\":6850:6934   */\n    tag_175:\n        /* \"#utility.yul\":6671:6940   */\n      pop\n        /* \"#utility.yul\":6620:6940   */\n      swap2\n      swap1\n      pop\n      jump\t// out\n        /* \"#utility.yul\":6946:7126   */\n    tag_81:\n        /* \"#utility.yul\":6994:7071   */\n      0x4e487b7100000000000000000000000000000000000000000000000000000000\n        /* \"#utility.yul\":6991:6992   */\n      0x00\n        /* \"#utility.yul\":6984:7072   */\n      mstore\n        /* \"#utility.yul\":7091:7095   */\n      0x11\n        /* \"#utility.yul\":7088:7089   */\n      0x04\n        /* \"#utility.yul\":7081:7096   */\n      mstore\n        /* \"#utility.yul\":7115:7119   */\n      0x24\n        /* \"#utility.yul\":7112:7113   */\n      0x00\n        /* \"#utility.yul\":7105:7120   */\n      revert\n        /* \"#utility.yul\":7132:7323   */\n    tag_51:\n        /* \"#utility.yul\":7172:7175   */\n      0x00\n        /* \"#utility.yul\":7191:7211   */\n      tag_179\n        /* \"#utility.yul\":7209:7210   */\n      dup3\n        /* \"#utility.yul\":7191:7211   */\n      tag_59\n      jump\t// in\n    tag_179:\n        /* \"#utility.yul\":7186:7211   */\n      swap2\n      pop\n        /* \"#utility.yul\":7225:7245   */\n      tag_180\n        /* \"#utility.yul\":7243:7244   */\n      dup4\n        /* \"#utility.yul\":7225:7245   */\n      tag_59\n      jump\t// in\n    tag_180:\n        /* \"#utility.yul\":7220:7245   */\n      swap3\n      pop\n        /* \"#utility.yul\":7268:7269   */\n      dup3\n        /* \"#utility.yul\":7265:7266   */\n      dup3\n        /* \"#utility.yul\":7261:7270   */\n      add\n        /* \"#utility.yul\":7254:7270   */\n      swap1\n      pop\n        /* \"#utility.yul\":7289:7292   */\n      dup1\n        /* \"#utility.yul\":7286:7287   */\n      dup3\n        /* \"#utility.yul\":7283:7293   */\n      gt\n        /* \"#utility.yul\":7280:7316   */\n      iszero\n      tag_181\n      jumpi\n        /* \"#utility.yul\":7296:7314   */\n      tag_182\n      tag_81\n      jump\t// in\n    tag_182:\n        /* \"#utility.yul\":7280:7316   */\n    tag_181:\n        /* \"#utility.yul\":7132:7323   */\n      swap3\n      swap2\n      pop\n      pop\n      jump\t// out\n        /* \"#utility.yul\":7329:7477   */\n    tag_82:\n        /* \"#utility.yul\":7431:7442   */\n      0x00\n        /* \"#utility.yul\":7468:7471   */\n      dup2\n        /* \"#utility.yul\":7453:7471   */\n      swap1\n      pop\n        /* \"#utility.yul\":7329:7477   */\n      swap3\n      swap2\n      pop\n      pop\n      jump\t// out\n        /* \"#utility.yul\":7483:7873   */\n    tag_83:\n        /* \"#utility.yul\":7589:7592   */\n      0x00\n        /* \"#utility.yul\":7617:7656   */\n      tag_185\n        /* \"#utility.yul\":7650:7655   */\n      dup3\n        /* \"#utility.yul\":7617:7656   */\n      tag_66\n      jump\t// in\n    tag_185:\n        /* \"#utility.yul\":7672:7761   */\n      tag_186\n        /* \"#utility.yul\":7754:7760   */\n      dup2\n        /* \"#utility.yul\":7749:7752   */\n      dup6\n        /* \"#utility.yul\":7672:7761   */\n      tag_82\n      jump\t// in\n    tag_186:\n        /* \"#utility.yul\":7665:7761   */\n      swap4\n      pop\n        /* \"#utility.yul\":7770:7835   */\n      tag_187\n        /* \"#utility.yul\":7828:7834   */\n      dup2\n        /* \"#utility.yul\":7823:7826   */\n      dup6\n        /* \"#utility.yul\":7816:7820   */\n      0x20\n        /* \"#utility.yul\":7809:7814   */\n      dup7\n        /* \"#utility.yul\":7805:7821   */\n      add\n        /* \"#utility.yul\":7770:7835   */\n      tag_68\n      jump\t// in\n    tag_187:\n        /* \"#utility.yul\":7860:7866   */\n      dup1\n        /* \"#utility.yul\":7855:7858   */\n      dup5\n        /* \"#utility.yul\":7851:7867   */\n      add\n        /* \"#utility.yul\":7844:7867   */\n      swap2\n      pop\n        /* \"#utility.yul\":7593:7873   */\n      pop\n        /* \"#utility.yul\":7483:7873   */\n      swap3\n      swap2\n      pop\n      pop\n      jump\t// out\n        /* \"#utility.yul\":7879:8154   */\n    tag_54:\n        /* \"#utility.yul\":8011:8014   */\n      0x00\n        /* \"#utility.yul\":8033:8128   */\n      tag_189\n        /* \"#utility.yul\":8124:8127   */\n      dup3\n        /* \"#utility.yul\":8115:8121   */\n      dup5\n        /* \"#utility.yul\":8033:8128   */\n      tag_83\n      jump\t// in\n    tag_189:\n        /* \"#utility.yul\":8026:8128   */\n      swap2\n      pop\n        /* \"#utility.yul\":8145:8148   */\n      dup2\n        /* \"#utility.yul\":8138:8148   */\n      swap1\n      pop\n        /* \"#utility.yul\":7879:8154   */\n      swap3\n      swap2\n      pop\n      pop\n      jump\t// out\n        /* \"#utility.yul\":8160:8301   */\n    tag_84:\n        /* \"#utility.yul\":8209:8213   */\n      0x00\n        /* \"#utility.yul\":8232:8235   */\n      dup2\n        /* \"#utility.yul\":8224:8235   */\n      swap1\n      pop\n        /* \"#utility.yul\":8255:8258   */\n      dup2\n        /* \"#utility.yul\":8252:8253   */\n      0x00\n        /* \"#utility.yul\":8245:8259   */\n      mstore\n        /* \"#utility.yul\":8289:8293   */\n      0x20\n        /* \"#utility.yul\":8286:8287   */\n      0x00\n        /* \"#utility.yul\":8276:8294   */\n      keccak256\n        /* \"#utility.yul\":8268:8294   */\n      swap1\n      pop\n        /* \"#utility.yul\":8160:8301   */\n      swap2\n      swap1\n      pop\n      jump\t// out\n        /* \"#utility.yul\":8307:8400   */\n    tag_85:\n        /* \"#utility.yul\":8344:8350   */\n      0x00\n        /* \"#utility.yul\":8391:8393   */\n      0x20\n        /* \"#utility.yul\":8386:8388   */\n      0x1f\n        /* \"#utility.yul\":8379:8384   */\n      dup4\n        /* \"#utility.yul\":8375:8389   */\n      add\n        /* \"#utility.yul\":8371:8394   */\n      div\n        /* \"#utility.yul\":8361:8394   */\n      swap1\n      pop\n        /* \"#utility.yul\":8307:8400   */\n      swap2\n      swap1\n      pop\n      jump\t// out\n        /* \"#utility.yul\":8406:8513   */\n    tag_86:\n        /* \"#utility.yul\":8450:8458   */\n      0x00\n        /* \"#utility.yul\":8500:8505   */\n      dup3\n        /* \"#utility.yul\":8494:8498   */\n      dup3\n        /* \"#utility.yul\":8490:8506   */\n      shl\n        /* \"#utility.yul\":8469:8506   */\n      swap1\n      pop\n        /* \"#utility.yul\":8406:8513   */\n      swap3\n      swap2\n      pop\n      pop\n      jump\t// out\n        /* \"#utility.yul\":8519:8912   */\n    tag_87:\n        /* \"#utility.yul\":8588:8594   */\n      0x00\n        /* \"#utility.yul\":8638:8639   */\n      0x08\n        /* \"#utility.yul\":8626:8636   */\n      dup4\n        /* \"#utility.yul\":8622:8640   */\n      mul\n        /* \"#utility.yul\":8661:8758   */\n      tag_194\n        /* \"#utility.yul\":8691:8757   */\n      0xffffffffffffffffffffffffffffffffffffffffffffffffffffffffffffffff\n        /* \"#utility.yul\":8680:8689   */\n      dup3\n        /* \"#utility.yul\":8661:8758   */\n      tag_86\n      jump\t// in\n    tag_194:\n        /* \"#utility.yul\":8779:8818   */\n      tag_195\n        /* \"#utility.yul\":8809:8817   */\n      dup7\n        /* \"#utility.yul\":8798:8807   */\n      dup4\n        /* \"#utility.yul\":8779:8818   */\n      tag_86\n      jump\t// in\n    tag_195:\n        /* \"#utility.yul\":8767:8818   */\n      swap6\n      pop\n        /* \"#utility.yul\":8851:8855   */\n      dup1\n        /* \"#utility.yul\":8847:8856   */\n      not\n        /* \"#utility.yul\":8840:8845   */\n      dup5\n        /* \"#utility.yul\":8836:8857   */\n      and\n        /* \"#utility.yul\":8827:8857   */\n      swap4\n      pop\n        /* \"#utility.yul\":8900:8904   */\n      dup1\n        /* \"#utility.yul\":8890:8898   */\n      dup7\n        /* \"#utility.yul\":8886:8905   */\n      and\n        /* \"#utility.yul\":8879:8884   */\n      dup5\n        /* \"#utility.yul\":8876:8906   */\n      or\n        /* \"#utility.yul\":8866:8906   */\n      swap3\n      pop\n        /* \"#utility.yul\":8595:8912   */\n      pop\n      pop\n        /* \"#utility.yul\":8519:8912   */\n      swap4\n      swap3\n      pop\n      pop\n      pop\n      jump\t// out\n        /* \"#utility.yul\":8918:8978   */\n    tag_88:\n        /* \"#utility.yul\":8946:8949   */\n      0x00\n        /* \"#utility.yul\":8967:8972   */\n      dup2\n        /* \"#utility.yul\":8960:8972   */\n      swap1\n      pop\n        /* \"#utility.yul\":8918:8978   */\n      swap2\n      swap1\n      pop\n      jump\t// out\n        /* \"#utility.yul\":8984:9126   */\n    tag_89:\n        /* \"#utility.yul\":9034:9043   */\n      0x00\n        /* \"#utility.yul\":9067:9120   */\n      tag_198\n        /* \"#utility.yul\":9085:9119   */\n      tag_199\n        /* \"#utility.yul\":9094:9118   */\n      tag_200\n        /* \"#utility.yul\":9112:9117   */\n      dup5\n        /* \"#utility.yul\":9094:9118   */\n      tag_59\n      jump\t// in\n    tag_200:\n        /* \"#utility.yul\":9085:9119   */\n      tag_88\n      jump\t// in\n    tag_199:\n        /* \"#utility.yul\":9067:9120   */\n      tag_59\n      jump\t// in\n    tag_198:\n        /* \"#utility.yul\":9054:9120   */\n      swap1\n      pop\n        /* \"#utility.yul\":8984:9126   */\n      swap2\n      swap1\n      pop\n      jump\t// out\n        /* \"#utility.yul\":9132:9207   */\n    tag_90:\n        /* \"#utility.yul\":9175:9178   */\n      0x00\n        /* \"#utility.yul\":9196:9201   */\n      dup2\n        /* \"#utility.yul\":9189:9201   */\n      swap1\n      pop\n        /* \"#utility.yul\":9132:9207   */\n      swap2\n      swap1\n      pop\n      jump\t// out\n        /* \"#utility.yul\":9213:9482   */\n    tag_91:\n        /* \"#utility.yul\":9323:9362   */\n      tag_203\n        /* \"#utility.yul\":9354:9361   */\n      dup4\n        /* \"#utility.yul\":9323:9362   */\n      tag_89\n      jump\t// in\n    tag_203:\n        /* \"#utility.yul\":9384:9475   */\n      tag_204\n        /* \"#utility.yul\":9433:9474   */\n      tag_205\n        /* \"#utility.yul\":9457:9473   */\n      dup3\n        /* \"#utility.yul\":9433:9474   */\n      tag_90\n      jump\t// in\n    tag_205:\n        /* \"#utility.yul\":9425:9431   */\n      dup5\n        /* \"#utility.yul\":9418:9422   */\n      dup5\n        /* \"#utility.yul\":9412:9423   */\n      sload\n        /* \"#utility.yul\":9384:9475   */\n      tag_87\n      jump\t// in\n    tag_204:\n        /* \"#utility.yul\":9378:9382   */\n      dup3\n        /* \"#utility.yul\":9371:9476   */\n      sstore\n        /* \"#utility.yul\":9289:9482   */\n      pop\n        /* \"#utility.yul\":9213:9482   */\n      pop\n      pop\n      pop\n      jump\t// out\n        /* \"#utility.yul\":9488:9561   */\n    tag_92:\n        /* \"#utility.yul\":9533:9536   */\n      0x00\n        /* \"#utility.yul\":9488:9561   */\n      swap1\n      jump\t// out\n        /* \"#utility.yul\":9567:9756   */\n    tag_93:\n        /* \"#utility.yul\":9644:9676   */\n      tag_208\n      tag_92\n      jump\t// in\n    tag_208:\n        /* \"#utility.yul\":9685:9750   */\n      tag_209\n        /* \"#utility.yul\":9743:9749   */\n      dup2\n        /* \"#utility.yul\":9735:9741   */\n      dup5\n        /* \"#utility.yul\":9729:9733   */\n      dup5\n        /* \"#utility.yul\":9685:9750   */\n      tag_91\n      jump\t// in\n    tag_209:\n        /* \"#utility.yul\":9620:9756   */\n      pop\n        /* \"#utility.yul\":9567:9756   */\n      pop\n      pop\n      jump\t// out\n        /* \"#utility.yul\":9762:9948   */\n    tag_94:\n        /* \"#utility.yul\":9822:9942   */\n    tag_211:\n        /* \"#utility.yul\":9839:9842   */\n      dup2\n        /* \"#utility.yul\":9832:9837   */\n      dup2\n        /* \"#utility.yul\":9829:9843   */\n      lt\n        /* \"#utility.yul\":9822:9942   */\n      iszero\n      tag_213\n      jumpi\n        /* \"#utility.yul\":9893:9932   */\n      tag_214\n        /* \"#utility.yul\":9930:9931   */\n      0x00\n        /* \"#utility.yul\":9923:9928   */\n      dup3\n        /* \"#utility.yul\":9893:9932   */\n      tag_93\n      jump\t// in\n    tag_214:\n        /* \"#utility.yul\":9866:9867   */\n      0x01\n        /* \"#utility.yul\":9859:9864   */\n      dup2\n        /* \"#utility.yul\":9855:9868   */\n      add\n        /* \"#utility.yul\":9846:9868   */\n      swap1\n      pop\n        /* \"#utility.yul\":9822:9942   */\n      jump(tag_211)\n    tag_213:\n        /* \"#utility.yul\":9762:9948   */\n      pop\n      pop\n      jump\t// out\n        /* \"#utility.yul\":9954:10497   */\n    tag_95:\n        /* \"#utility.yul\":10055:10057   */\n      0x1f\n        /* \"#utility.yul\":10050:10053   */\n      dup3\n        /* \"#utility.yul\":10047:10058   */\n      gt\n        /* \"#utility.yul\":10044:10490   */\n      iszero\n      tag_216\n      jumpi\n        /* \"#utility.yul\":10089:10127   */\n      tag_217\n        /* \"#utility.yul\":10121:10126   */\n      dup2\n        /* \"#utility.yul\":10089:10127   */\n      tag_84\n      jump\t// in\n    tag_217:\n        /* \"#utility.yul\":10173:10202   */\n      tag_218\n        /* \"#utility.yul\":10191:10201   */\n      dup5\n        /* \"#utility.yul\":10173:10202   */\n      tag_85\n      jump\t// in\n    tag_218:\n        /* \"#utility.yul\":10163:10171   */\n      dup2\n        /* \"#utility.yul\":10159:10203   */\n      add\n        /* \"#utility.yul\":10356:10358   */\n      0x20\n        /* \"#utility.yul\":10344:10354   */\n      dup6\n        /* \"#utility.yul\":10341:10359   */\n      lt\n        /* \"#utility.yul\":10338:10387   */\n      iszero\n      tag_219\n      jumpi\n        /* \"#utility.yul\":10377:10385   */\n      dup2\n        /* \"#utility.yul\":10362:10385   */\n      swap1\n      pop\n        /* \"#utility.yul\":10338:10387   */\n    tag_219:\n        /* \"#utility.yul\":10400:10480   */\n      tag_220\n        /* \"#utility.yul\":10456:10478   */\n      tag_221\n        /* \"#utility.yul\":10474:10477   */\n      dup6\n        /* \"#utility.yul\":10456:10478   */\n      tag_85\n      jump\t// in\n    tag_221:\n        /* \"#utility.yul\":10446:10454   */\n      dup4\n        /* \"#utility.yul\":10442:10479   */\n      add\n        /* \"#utility.yul\":10429:10440   */\n      dup3\n        /* \"#utility.yul\":10400:10480   */\n      tag_94\n      jump\t// in\n    tag_220:\n        /* \"#utility.yul\":10059:10490   */\n      pop\n      pop\n        /* \"#utility.yul\":10044:10490   */\n    tag_216:\n        /* \"#utility.yul\":9954:10497   */\n      pop\n      pop\n      pop\n      jump\t// out\n        /* \"#utility.yul\":10503:10620   */\n    tag_96:\n        /* \"#utility.yul\":10557:10565   */\n      0x00\n        /* \"#utility.yul\":10607:10612   */\n      dup3\n        /* \"#utility.yul\":10601:10605   */\n      dup3\n        /* \"#utility.yul\":10597:10613   */\n      shr\n        /* \"#utility.yul\":10576:10613   */\n      swap1\n      pop\n        /* \"#utility.yul\":10503:10620   */\n      swap3\n      swap2\n      pop\n      pop\n      jump\t// out\n        /* \"#utility.yul\":10626:10795   */\n    tag_97:\n        /* \"#utility.yul\":10670:10676   */\n      0x00\n        /* \"#utility.yul\":10703:10754   */\n      tag_224\n        /* \"#utility.yul\":10751:10752   */\n      0x00\n        /* \"#utility.yul\":10747:10753   */\n      not\n        /* \"#utility.yul\":10739:10744   */\n      dup5\n        /* \"#utility.yul\":10736:10737   */\n      0x08\n        /* \"#utility.yul\":10732:10745   */\n      mul\n        /* \"#utility.yul\":10703:10754   */\n      tag_96\n      jump\t// in\n    tag_224:\n        /* \"#utility.yul\":10699:10755   */\n      not\n        /* \"#utility.yul\":10784:10788   */\n      dup1\n        /* \"#utility.yul\":10778:10782   */\n      dup4\n        /* \"#utility.yul\":10774:10789   */\n      and\n        /* \"#utility.yul\":10764:10789   */\n      swap2\n      pop\n        /* \"#utility.yul\":10677:10795   */\n      pop\n        /* \"#utility.yul\":10626:10795   */\n      swap3\n      swap2\n      pop\n      pop\n      jump\t// out\n        /* \"#utility.yul\":10800:11095   */\n    tag_98:\n        /* \"#utility.yul\":10876:10880   */\n      0x00\n        /* \"#utility.yul\":11022:11051   */\n      tag_226\n        /* \"#utility.yul\":11047:11050   */\n      dup4\n        /* \"#utility.yul\":11041:11045   */\n      dup4\n        /* \"#utility.yul\":11022:11051   */\n      tag_97\n      jump\t// in\n    tag_226:\n        /* \"#utility.yul\":11014:11051   */\n      swap2\n      pop\n        /* \"#utility.yul\":11084:11087   */\n      dup3\n        /* \"#utility.yul\":11081:11082   */\n      0x02\n        /* \"#utility.yul\":11077:11088   */\n      mul\n        /* \"#utility.yul\":11071:11075   */\n      dup3\n        /* \"#utility.yul\":11068:11089   */\n      or\n        /* \"#utility.yul\":11060:11089   */\n      swap1\n      pop\n        /* \"#utility.yul\":10800:11095   */\n      swap3\n      swap2\n      pop\n      pop\n      jump\t// out\n        /* \"#utility.yul\":11100:12495   */\n    tag_57:\n        /* \"#utility.yul\":11217:11254   */\n      tag_228\n        /* \"#utility.yul\":11250:11253   */\n      dup3\n        /* \"#utility.yul\":11217:11254   */\n      tag_66\n      jump\t// in\n    tag_228:\n        /* \"#utility.yul\":11319:11337   */\n      0xffffffffffffffff\n        /* \"#utility.yul\":11311:11317   */\n      dup2\n        /* \"#utility.yul\":11308:11338   */\n      gt\n        /* \"#utility.yul\":11305:11361   */\n      iszero\n      tag_229\n      jumpi\n        /* \"#utility.yul\":11341:11359   */\n      tag_230\n      tag_73\n      jump\t// in\n    tag_230:\n        /* \"#utility.yul\":11305:11361   */\n    tag_229:\n        /* \"#utility.yul\":11385:11423   */\n      tag_231\n        /* \"#utility.yul\":11417:11421   */\n      dup3\n        /* \"#utility.yul\":11411:11422   */\n      sload\n        /* \"#utility.yul\":11385:11423   */\n      tag_44\n      jump\t// in\n    tag_231:\n        /* \"#utility.yul\":11470:11537   */\n      tag_232\n        /* \"#utility.yul\":11530:11536   */\n      dup3\n        /* \"#utility.yul\":11522:11528   */\n      dup3\n        /* \"#utility.yul\":11516:11520   */\n      dup6\n        /* \"#utility.yul\":11470:11537   */\n      tag_95\n      jump\t// in\n    tag_232:\n        /* \"#utility.yul\":11564:11565   */\n      0x00\n        /* \"#utility.yul\":11588:11592   */\n      0x20\n        /* \"#utility.yul\":11575:11592   */\n      swap1\n      pop\n        /* \"#utility.yul\":11620:11622   */\n      0x1f\n        /* \"#utility.yul\":11612:11618   */\n      dup4\n        /* \"#utility.yul\":11609:11623   */\n      gt\n        /* \"#utility.yul\":11637:11638   */\n      0x01\n        /* \"#utility.yul\":11632:12250   */\n      dup2\n      eq\n      tag_234\n      jumpi\n        /* \"#utility.yul\":12294:12295   */\n      0x00\n        /* \"#utility.yul\":12311:12317   */\n      dup5\n        /* \"#utility.yul\":12308:12385   */\n      iszero\n      tag_235\n      jumpi\n        /* \"#utility.yul\":12360:12369   */\n      dup3\n        /* \"#utility.yul\":12355:12358   */\n      dup8\n        /* \"#utility.yul\":12351:12370   */\n      add\n        /* \"#utility.yul\":12345:12371   */\n      mload\n        /* \"#utility.yul\":12336:12371   */\n      swap1\n      pop\n        /* \"#utility.yul\":12308:12385   */\n    tag_235:\n        /* \"#utility.yul\":12411:12478   */\n      tag_236\n        /* \"#utility.yul\":12471:12477   */\n      dup6\n        /* \"#utility.yul\":12464:12469   */\n      dup3\n        /* \"#utility.yul\":12411:12478   */\n      tag_98\n      jump\t// in\n    tag_236:\n        /* \"#utility.yul\":12405:12409   */\n      dup7\n        /* \"#utility.yul\":12398:12479   */\n      sstore\n        /* \"#utility.yul\":12267:12489   */\n      pop\n        /* \"#utility.yul\":11602:12489   */\n      jump(tag_233)\n        /* \"#utility.yul\":11632:12250   */\n    tag_234:\n        /* \"#utility.yul\":11684:11688   */\n      0x1f\n        /* \"#utility.yul\":11680:11689   */\n      not\n        /* \"#utility.yul\":11672:11678   */\n      dup5\n        /* \"#utility.yul\":11668:11690   */\n      and\n        /* \"#utility.yul\":11718:11755   */\n      tag_237\n        /* \"#utility.yul\":11750:11754   */\n      dup7\n        /* \"#utility.yul\":11718:11755   */\n      tag_84\n      jump\t// in\n    tag_237:\n        /* \"#utility.yul\":11777:11778   */\n      0x00\n        /* \"#utility.yul\":11791:11999   */\n    tag_238:\n        /* \"#utility.yul\":11805:11812   */\n      dup3\n        /* \"#utility.yul\":11802:11803   */\n      dup2\n        /* \"#utility.yul\":11799:11813   */\n      lt\n        /* \"#utility.yul\":11791:11999   */\n      iszero\n      tag_240\n      jumpi\n        /* \"#utility.yul\":11884:11893   */\n      dup5\n        /* \"#utility.yul\":11879:11882   */\n      dup10\n        /* \"#utility.yul\":11875:11894   */\n      add\n        /* \"#utility.yul\":11869:11895   */\n      mload\n        /* \"#utility.yul\":11861:11867   */\n      dup3\n        /* \"#utility.yul\":11854:11896   */\n      sstore\n        /* \"#utility.yul\":11935:11936   */\n      0x01\n        /* \"#utility.yul\":11927:11933   */\n      dup3\n        /* \"#utility.yul\":11923:11937   */\n      add\n        /* \"#utility.yul\":11913:11937   */\n      swap2\n      pop\n        /* \"#utility.yul\":11982:11984   */\n      0x20\n        /* \"#utility.yul\":11971:11980   */\n      dup6\n        /* \"#utility.yul\":11967:11985   */\n      add\n        /* \"#utility.yul\":11954:11985   */\n      swap5\n      pop\n        /* \"#utility.yul\":11828:11832   */\n      0x20\n        /* \"#utility.yul\":11825:11826   */\n      dup2\n        /* \"#utility.yul\":11821:11833   */\n      add\n        /* \"#utility.yul\":11816:11833   */\n      swap1\n      pop\n        /* \"#utility.yul\":11791:11999   */\n      jump(tag_238)\n    tag_240:\n        /* \"#utility.yul\":12027:12033   */\n      dup7\n        /* \"#utility.yul\":12018:12025   */\n      dup4\n        /* \"#utility.yul\":12015:12034   */\n      lt\n        /* \"#utility.yul\":12012:12191   */\n      iszero\n      tag_241\n      jumpi\n        /* \"#utility.yul\":12085:12094   */\n      dup5\n        /* \"#utility.yul\":12080:12083   */\n      dup10\n        /* \"#utility.yul\":12076:12095   */\n      add\n        /* \"#utility.yul\":12070:12096   */\n      mload\n        /* \"#utility.yul\":12128:12176   */\n      tag_242\n        /* \"#utility.yul\":12170:12174   */\n      0x1f\n        /* \"#utility.yul\":12162:12168   */\n      dup10\n        /* \"#utility.yul\":12158:12175   */\n      and\n        /* \"#utility.yul\":12147:12156   */\n      dup3\n        /* \"#utility.yul\":12128:12176   */\n      tag_97\n      jump\t// in\n    tag_242:\n        /* \"#utility.yul\":12120:12126   */\n      dup4\n        /* \"#utility.yul\":12113:12177   */\n      sstore\n        /* \"#utility.yul\":12035:12191   */\n      pop\n        /* \"#utility.yul\":12012:12191   */\n    tag_241:\n        /* \"#utility.yul\":12237:12238   */\n      0x01\n        /* \"#utility.yul\":12233:12234   */\n      0x02\n        /* \"#utility.yul\":12225:12231   */\n      dup9\n        /* \"#utility.yul\":12221:12235   */\n      mul\n        /* \"#utility.yul\":12217:12239   */\n      add\n        /* \"#utility.yul\":12211:12215   */\n      dup9\n        /* \"#utility.yul\":12204:12240   */\n      sstore\n        /* \"#utility.yul\":11639:12250   */\n      pop\n      pop\n      pop\n        /* \"#utility.yul\":11602:12489   */\n    tag_233:\n      pop\n        /* \"#utility.yul\":11192:12495   */\n      pop\n      pop\n      pop\n        /* \"#utility.yul\":11100:12495   */\n      pop\n      pop\n      jump\t// out\n\n    auxdata: 0xa2646970667358221220171d4f0c12a963672a8c16bc88df4d132034616a40b9d36e917bc5d33e86774664736f6c63430008180033\n}\n",
				"bytecode": {
					"linkReferences": {},
					"object": "608060405234801561000f575f80fd5b50610a228061001d5f395ff3fe608060405234801561000f575f80fd5b506004361061007b575f3560e01c80636057361d116100595780636057361d146100ec5780636f760f4114610108578063b2ac62ef14610124578063ef5fb05b146101545761007b565b80632e64cec11461007f5780632ebce6311461009d5780633bc035d2146100ce575b5f80fd5b610087610172565b604051610094919061034f565b60405180910390f35b6100b760048036038101906100b291906103a3565b61017a565b6040516100c5929190610458565b60405180910390f35b6100d661022f565b6040516100e3919061034f565b60405180910390f35b610106600480360381019061010191906103a3565b610234565b005b610122600480360381019061011d91906105b2565b610249565b005b61013e6004803603810190610139919061060c565b6102cd565b60405161014b919061034f565b60405180910390f35b61015c6102fa565b6040516101699190610653565b60405180910390f35b5f8054905090565b60028181548110610189575f80fd5b905f5260205f2090600202015f91509050805f0154908060010180546101ae906106a0565b80601f01602080910402602001604051908101604052809291908181526020018280546101da906106a0565b80156102255780601f106101fc57610100808354040283529160200191610225565b820191905f5260205f20905b81548152906001019060200180831161020857829003601f168201915b5050505050905082565b5f5481565b60058161024191906106fd565b5f8190555050565b8060038360405161025a919061076a565b9081526020016040518091039020819055506002604051806040016040528083815260200184815250908060018154018082558091505060019003905f5260205f2090600202015f909190919091505f820151815f015560208201518160010190816102c6919061091d565b5050505050565b6003818051602081018201805184825260208301602085012081835280955050505050505f915090505481565b60606040518060400160405280600881526020017f4e616d6173746521000000000000000000000000000000000000000000000000815250905090565b5f819050919050565b61034981610337565b82525050565b5f6020820190506103625f830184610340565b92915050565b5f604051905090565b5f80fd5b5f80fd5b61038281610337565b811461038c575f80fd5b50565b5f8135905061039d81610379565b92915050565b5f602082840312156103b8576103b7610371565b5b5f6103c58482850161038f565b91505092915050565b5f81519050919050565b5f82825260208201905092915050565b5f5b838110156104055780820151818401526020810190506103ea565b5f8484015250505050565b5f601f19601f8301169050919050565b5f61042a826103ce565b61043481856103d8565b93506104448185602086016103e8565b61044d81610410565b840191505092915050565b5f60408201905061046b5f830185610340565b818103602083015261047d8184610420565b90509392505050565b5f80fd5b5f80fd5b7f4e487b71000000000000000000000000000000000000000000000000000000005f52604160045260245ffd5b6104c482610410565b810181811067ffffffffffffffff821117156104e3576104e261048e565b5b80604052505050565b5f6104f5610368565b905061050182826104bb565b919050565b5f67ffffffffffffffff8211156105205761051f61048e565b5b61052982610410565b9050602081019050919050565b828183375f83830152505050565b5f61055661055184610506565b6104ec565b9050828152602081018484840111156105725761057161048a565b5b61057d848285610536565b509392505050565b5f82601f83011261059957610598610486565b5b81356105a9848260208601610544565b91505092915050565b5f80604083850312156105c8576105c7610371565b5b5f83013567ffffffffffffffff8111156105e5576105e4610375565b5b6105f185828601610585565b92505060206106028582860161038f565b9150509250929050565b5f6020828403121561062157610620610371565b5b5f82013567ffffffffffffffff81111561063e5761063d610375565b5b61064a84828501610585565b91505092915050565b5f6020820190508181035f83015261066b8184610420565b905092915050565b7f4e487b71000000000000000000000000000000000000000000000000000000005f52602260045260245ffd5b5f60028204905060018216806106b757607f821691505b6020821081036106ca576106c9610673565b5b50919050565b7f4e487b71000000000000000000000000000000000000000000000000000000005f52601160045260245ffd5b5f61070782610337565b915061071283610337565b925082820190508082111561072a576107296106d0565b5b92915050565b5f81905092915050565b5f610744826103ce565b61074e8185610730565b935061075e8185602086016103e8565b80840191505092915050565b5f610775828461073a565b915081905092915050565b5f819050815f5260205f209050919050565b5f6020601f8301049050919050565b5f82821b905092915050565b5f600883026107dc7fffffffffffffffffffffffffffffffffffffffffffffffffffffffffffffffff826107a1565b6107e686836107a1565b95508019841693508086168417925050509392505050565b5f819050919050565b5f61082161081c61081784610337565b6107fe565b610337565b9050919050565b5f819050919050565b61083a83610807565b61084e61084682610828565b8484546107ad565b825550505050565b5f90565b610862610856565b61086d818484610831565b505050565b5b81811015610890576108855f8261085a565b600181019050610873565b5050565b601f8211156108d5576108a681610780565b6108af84610792565b810160208510156108be578190505b6108d26108ca85610792565b830182610872565b50505b505050565b5f82821c905092915050565b5f6108f55f19846008026108da565b1980831691505092915050565b5f61090d83836108e6565b9150826002028217905092915050565b610926826103ce565b67ffffffffffffffff81111561093f5761093e61048e565b5b61094982546106a0565b610954828285610894565b5f60209050601f831160018114610985575f8415610973578287015190505b61097d8582610902565b8655506109e4565b601f19841661099386610780565b5f5b828110156109ba57848901518255600182019150602085019450602081019050610995565b868310156109d757848901516109d3601f8916826108e6565b8355505b6001600288020188555050505b50505050505056fea2646970667358221220171d4f0c12a963672a8c16bc88df4d132034616a40b9d36e917bc5d33e86774664736f6c63430008180033",
					"opcodes": "PUSH1 0x80 PUSH1 0x40 MSTORE CALLVALUE DUP1 ISZERO PUSH2 0xF JUMPI PUSH0 DUP1 REVERT JUMPDEST POP PUSH2 0xA22 DUP1 PUSH2 0x1D PUSH0 CODECOPY PUSH0 RETURN INVALID PUSH1 0x80 PUSH1 0x40 MSTORE CALLVALUE DUP1 ISZERO PUSH2 0xF JUMPI PUSH0 DUP1 REVERT JUMPDEST POP PUSH1 0x4 CALLDATASIZE LT PUSH2 0x7B JUMPI PUSH0 CALLDATALOAD PUSH1 0xE0 SHR DUP1 PUSH4 0x6057361D GT PUSH2 0x59 JUMPI DUP1 PUSH4 0x6057361D EQ PUSH2 0xEC JUMPI DUP1 PUSH4 0x6F760F41 EQ PUSH2 0x108 JUMPI DUP1 PUSH4 0xB2AC62EF EQ PUSH2 0x124 JUMPI DUP1 PUSH4 0xEF5FB05B EQ PUSH2 0x154 JUMPI PUSH2 0x7B JUMP JUMPDEST DUP1 PUSH4 0x2E64CEC1 EQ PUSH2 0x7F JUMPI DUP1 PUSH4 0x2EBCE631 EQ PUSH2 0x9D JUMPI DUP1 PUSH4 0x3BC035D2 EQ PUSH2 0xCE JUMPI JUMPDEST PUSH0 DUP1 REVERT JUMPDEST PUSH2 0x87 PUSH2 0x172 JUMP JUMPDEST PUSH1 0x40 MLOAD PUSH2 0x94 SWAP2 SWAP1 PUSH2 0x34F JUMP JUMPDEST PUSH1 0x40 MLOAD DUP1 SWAP2 SUB SWAP1 RETURN JUMPDEST PUSH2 0xB7 PUSH1 0x4 DUP1 CALLDATASIZE SUB DUP2 ADD SWAP1 PUSH2 0xB2 SWAP2 SWAP1 PUSH2 0x3A3 JUMP JUMPDEST PUSH2 0x17A JUMP JUMPDEST PUSH1 0x40 MLOAD PUSH2 0xC5 SWAP3 SWAP2 SWAP1 PUSH2 0x458 JUMP JUMPDEST PUSH1 0x40 MLOAD DUP1 SWAP2 SUB SWAP1 RETURN JUMPDEST PUSH2 0xD6 PUSH2 0x22F JUMP JUMPDEST PUSH1 0x40 MLOAD PUSH2 0xE3 SWAP2 SWAP1 PUSH2 0x34F JUMP JUMPDEST PUSH1 0x40 MLOAD DUP1 SWAP2 SUB SWAP1 RETURN JUMPDEST PUSH2 0x106 PUSH1 0x4 DUP1 CALLDATASIZE SUB DUP2 ADD SWAP1 PUSH2 0x101 SWAP2 SWAP1 PUSH2 0x3A3 JUMP JUMPDEST PUSH2 0x234 JUMP JUMPDEST STOP JUMPDEST PUSH2 0x122 PUSH1 0x4 DUP1 CALLDATASIZE SUB DUP2 ADD SWAP1 PUSH2 0x11D SWAP2 SWAP1 PUSH2 0x5B2 JUMP JUMPDEST PUSH2 0x249 JUMP JUMPDEST STOP JUMPDEST PUSH2 0x13E PUSH1 0x4 DUP1 CALLDATASIZE SUB DUP2 ADD SWAP1 PUSH2 0x139 SWAP2 SWAP1 PUSH2 0x60C JUMP JUMPDEST PUSH2 0x2CD JUMP JUMPDEST PUSH1 0x40 MLOAD PUSH2 0x14B SWAP2 SWAP1 PUSH2 0x34F JUMP JUMPDEST PUSH1 0x40 MLOAD DUP1 SWAP2 SUB SWAP1 RETURN JUMPDEST PUSH2 0x15C PUSH2 0x2FA JUMP JUMPDEST PUSH1 0x40 MLOAD PUSH2 0x169 SWAP2 SWAP1 PUSH2 0x653 JUMP JUMPDEST PUSH1 0x40 MLOAD DUP1 SWAP2 SUB SWAP1 RETURN JUMPDEST PUSH0 DUP1 SLOAD SWAP1 POP SWAP1 JUMP JUMPDEST PUSH1 0x2 DUP2 DUP2 SLOAD DUP2 LT PUSH2 0x189 JUMPI PUSH0 DUP1 REVERT JUMPDEST SWAP1 PUSH0 MSTORE PUSH1 0x20 PUSH0 KECCAK256 SWAP1 PUSH1 0x2 MUL ADD PUSH0 SWAP2 POP SWAP1 POP DUP1 PUSH0 ADD SLOAD SWAP1 DUP1 PUSH1 0x1 ADD DUP1 SLOAD PUSH2 0x1AE SWAP1 PUSH2 0x6A0 JUMP JUMPDEST DUP1 PUSH1 0x1F ADD PUSH1 0x20 DUP1 SWAP2 DIV MUL PUSH1 0x20 ADD PUSH1 0x40 MLOAD SWAP1 DUP2 ADD PUSH1 0x40 MSTORE DUP1 SWAP3 SWAP2 SWAP1 DUP2 DUP2 MSTORE PUSH1 0x20 ADD DUP3 DUP1 SLOAD PUSH2 0x1DA SWAP1 PUSH2 0x6A0 JUMP JUMPDEST DUP1 ISZERO PUSH2 0x225 JUMPI DUP1 PUSH1 0x1F LT PUSH2 0x1FC JUMPI PUSH2 0x100 DUP1 DUP4 SLOAD DIV MUL DUP4 MSTORE SWAP2 PUSH1 0x20 ADD SWAP2 PUSH2 0x225 JUMP JUMPDEST DUP3 ADD SWAP2 SWAP1 PUSH0 MSTORE PUSH1 0x20 PUSH0 KECCAK256 SWAP1 JUMPDEST DUP2 SLOAD DUP2 MSTORE SWAP1 PUSH1 0x1 ADD SWAP1 PUSH1 0x20 ADD DUP1 DUP4 GT PUSH2 0x208 JUMPI DUP3 SWAP1 SUB PUSH1 0x1F AND DUP3 ADD SWAP2 JUMPDEST POP POP POP POP POP SWAP1 POP DUP3 JUMP JUMPDEST PUSH0 SLOAD DUP2 JUMP JUMPDEST PUSH1 0x5 DUP2 PUSH2 0x241 SWAP2 SWAP1 PUSH2 0x6FD JUMP JUMPDEST PUSH0 DUP2 SWAP1 SSTORE POP POP JUMP JUMPDEST DUP1 PUSH1 0x3 DUP4 PUSH1 0x40 MLOAD PUSH2 0x25A SWAP2 SWAP1 PUSH2 0x76A JUMP JUMPDEST SWAP1 DUP2 MSTORE PUSH1 0x20 ADD PUSH1 0x40 MLOAD DUP1 SWAP2 SUB SWAP1 KECCAK256 DUP2 SWAP1 SSTORE POP PUSH1 0x2 PUSH1 0x40 MLOAD DUP1 PUSH1 0x40 ADD PUSH1 0x40 MSTORE DUP1 DUP4 DUP2 MSTORE PUSH1 0x20 ADD DUP5 DUP2 MSTORE POP SWAP1 DUP1 PUSH1 0x1 DUP2 SLOAD ADD DUP1 DUP3 SSTORE DUP1 SWAP2 POP POP PUSH1 0x1 SWAP1 SUB SWAP1 PUSH0 MSTORE PUSH1 0x20 PUSH0 KECCAK256 SWAP1 PUSH1 0x2 MUL ADD PUSH0 SWAP1 SWAP2 SWAP1 SWAP2 SWAP1 SWAP2 POP PUSH0 DUP3 ADD MLOAD DUP2 PUSH0 ADD SSTORE PUSH1 0x20 DUP3 ADD MLOAD DUP2 PUSH1 0x1 ADD SWAP1 DUP2 PUSH2 0x2C6 SWAP2 SWAP1 PUSH2 0x91D JUMP JUMPDEST POP POP POP POP POP JUMP JUMPDEST PUSH1 0x3 DUP2 DUP1 MLOAD PUSH1 0x20 DUP2 ADD DUP3 ADD DUP1 MLOAD DUP5 DUP3 MSTORE PUSH1 0x20 DUP4 ADD PUSH1 0x20 DUP6 ADD KECCAK256 DUP2 DUP4 MSTORE DUP1 SWAP6 POP POP POP POP POP POP PUSH0 SWAP2 POP SWAP1 POP SLOAD DUP2 JUMP JUMPDEST PUSH1 0x60 PUSH1 0x40 MLOAD DUP1 PUSH1 0x40 ADD PUSH1 0x40 MSTORE DUP1 PUSH1 0x8 DUP2 MSTORE PUSH1 0x20 ADD PUSH32 0x4E616D6173746521000000000000000000000000000000000000000000000000 DUP2 MSTORE POP SWAP1 POP SWAP1 JUMP JUMPDEST PUSH0 DUP2 SWAP1 POP SWAP2 SWAP1 POP JUMP JUMPDEST PUSH2 0x349 DUP2 PUSH2 0x337 JUMP JUMPDEST DUP3 MSTORE POP POP JUMP JUMPDEST PUSH0 PUSH1 0x20 DUP3 ADD SWAP1 POP PUSH2 0x362 PUSH0 DUP4 ADD DUP5 PUSH2 0x340 JUMP JUMPDEST SWAP3 SWAP2 POP POP JUMP JUMPDEST PUSH0 PUSH1 0x40 MLOAD SWAP1 POP SWAP1 JUMP JUMPDEST PUSH0 DUP1 REVERT JUMPDEST PUSH0 DUP1 REVERT JUMPDEST PUSH2 0x382 DUP2 PUSH2 0x337 JUMP JUMPDEST DUP2 EQ PUSH2 0x38C JUMPI PUSH0 DUP1 REVERT JUMPDEST POP JUMP JUMPDEST PUSH0 DUP2 CALLDATALOAD SWAP1 POP PUSH2 0x39D DUP2 PUSH2 0x379 JUMP JUMPDEST SWAP3 SWAP2 POP POP JUMP JUMPDEST PUSH0 PUSH1 0x20 DUP3 DUP5 SUB SLT ISZERO PUSH2 0x3B8 JUMPI PUSH2 0x3B7 PUSH2 0x371 JUMP JUMPDEST JUMPDEST PUSH0 PUSH2 0x3C5 DUP5 DUP3 DUP6 ADD PUSH2 0x38F JUMP JUMPDEST SWAP2 POP POP SWAP3 SWAP2 POP POP JUMP JUMPDEST PUSH0 DUP2 MLOAD SWAP1 POP SWAP2 SWAP1 POP JUMP JUMPDEST PUSH0 DUP3 DUP3 MSTORE PUSH1 0x20 DUP3 ADD SWAP1 POP SWAP3 SWAP2 POP POP JUMP JUMPDEST PUSH0 JUMPDEST DUP4 DUP2 LT ISZERO PUSH2 0x405 JUMPI DUP1 DUP3 ADD MLOAD DUP2 DUP5 ADD MSTORE PUSH1 0x20 DUP2 ADD SWAP1 POP PUSH2 0x3EA JUMP JUMPDEST PUSH0 DUP5 DUP5 ADD MSTORE POP POP POP POP JUMP JUMPDEST PUSH0 PUSH1 0x1F NOT PUSH1 0x1F DUP4 ADD AND SWAP1 POP SWAP2 SWAP1 POP JUMP JUMPDEST PUSH0 PUSH2 0x42A DUP3 PUSH2 0x3CE JUMP JUMPDEST PUSH2 0x434 DUP2 DUP6 PUSH2 0x3D8 JUMP JUMPDEST SWAP4 POP PUSH2 0x444 DUP2 DUP6 PUSH1 0x20 DUP7 ADD PUSH2 0x3E8 JUMP JUMPDEST PUSH2 0x44D DUP2 PUSH2 0x410 JUMP JUMPDEST DUP5 ADD SWAP2 POP POP SWAP3 SWAP2 POP POP JUMP JUMPDEST PUSH0 PUSH1 0x40 DUP3 ADD SWAP1 POP PUSH2 0x46B PUSH0 DUP4 ADD DUP6 PUSH2 0x340 JUMP JUMPDEST DUP2 DUP2 SUB PUSH1 0x20 DUP4 ADD MSTORE PUSH2 0x47D DUP2 DUP5 PUSH2 0x420 JUMP JUMPDEST SWAP1 POP SWAP4 SWAP3 POP POP POP JUMP JUMPDEST PUSH0 DUP1 REVERT JUMPDEST PUSH0 DUP1 REVERT JUMPDEST PUSH32 0x4E487B7100000000000000000000000000000000000000000000000000000000 PUSH0 MSTORE PUSH1 0x41 PUSH1 0x4 MSTORE PUSH1 0x24 PUSH0 REVERT JUMPDEST PUSH2 0x4C4 DUP3 PUSH2 0x410 JUMP JUMPDEST DUP2 ADD DUP2 DUP2 LT PUSH8 0xFFFFFFFFFFFFFFFF DUP3 GT OR ISZERO PUSH2 0x4E3 JUMPI PUSH2 0x4E2 PUSH2 0x48E JUMP JUMPDEST JUMPDEST DUP1 PUSH1 0x40 MSTORE POP POP POP JUMP JUMPDEST PUSH0 PUSH2 0x4F5 PUSH2 0x368 JUMP JUMPDEST SWAP1 POP PUSH2 0x501 DUP3 DUP3 PUSH2 0x4BB JUMP JUMPDEST SWAP2 SWAP1 POP JUMP JUMPDEST PUSH0 PUSH8 0xFFFFFFFFFFFFFFFF DUP3 GT ISZERO PUSH2 0x520 JUMPI PUSH2 0x51F PUSH2 0x48E JUMP JUMPDEST JUMPDEST PUSH2 0x529 DUP3 PUSH2 0x410 JUMP JUMPDEST SWAP1 POP PUSH1 0x20 DUP2 ADD SWAP1 POP SWAP2 SWAP1 POP JUMP JUMPDEST DUP3 DUP2 DUP4 CALLDATACOPY PUSH0 DUP4 DUP4 ADD MSTORE POP POP POP JUMP JUMPDEST PUSH0 PUSH2 0x556 PUSH2 0x551 DUP5 PUSH2 0x506 JUMP JUMPDEST PUSH2 0x4EC JUMP JUMPDEST SWAP1 POP DUP3 DUP2 MSTORE PUSH1 0x20 DUP2 ADD DUP5 DUP5 DUP5 ADD GT ISZERO PUSH2 0x572 JUMPI PUSH2 0x571 PUSH2 0x48A JUMP JUMPDEST JUMPDEST PUSH2 0x57D DUP5 DUP3 DUP6 PUSH2 0x536 JUMP JUMPDEST POP SWAP4 SWAP3 POP POP POP JUMP JUMPDEST PUSH0 DUP3 PUSH1 0x1F DUP4 ADD SLT PUSH2 0x599 JUMPI PUSH2 0x598 PUSH2 0x486 JUMP JUMPDEST JUMPDEST DUP2 CALLDATALOAD PUSH2 0x5A9 DUP5 DUP3 PUSH1 0x20 DUP7 ADD PUSH2 0x544 JUMP JUMPDEST SWAP2 POP POP SWAP3 SWAP2 POP POP JUMP JUMPDEST PUSH0 DUP1 PUSH1 0x40 DUP4 DUP6 SUB SLT ISZERO PUSH2 0x5C8 JUMPI PUSH2 0x5C7 PUSH2 0x371 JUMP JUMPDEST JUMPDEST PUSH0 DUP4 ADD CALLDATALOAD PUSH8 0xFFFFFFFFFFFFFFFF DUP2 GT ISZERO PUSH2 0x5E5 JUMPI PUSH2 0x5E4 PUSH2 0x375 JUMP JUMPDEST JUMPDEST PUSH2 0x5F1 DUP6 DUP3 DUP7 ADD PUSH2 0x585 JUMP JUMPDEST SWAP3 POP POP PUSH1 0x20 PUSH2 0x602 DUP6 DUP3 DUP7 ADD PUSH2 0x38F JUMP JUMPDEST SWAP2 POP POP SWAP3 POP SWAP3 SWAP1 POP JUMP JUMPDEST PUSH0 PUSH1 0x20 DUP3 DUP5 SUB SLT ISZERO PUSH2 0x621 JUMPI PUSH2 0x620 PUSH2 0x371 JUMP JUMPDEST JUMPDEST PUSH0 DUP3 ADD CALLDATALOAD PUSH8 0xFFFFFFFFFFFFFFFF DUP2 GT ISZERO PUSH2 0x63E JUMPI PUSH2 0x63D PUSH2 0x375 JUMP JUMPDEST JUMPDEST PUSH2 0x64A DUP5 DUP3 DUP6 ADD PUSH2 0x585 JUMP JUMPDEST SWAP2 POP POP SWAP3 SWAP2 POP POP JUMP JUMPDEST PUSH0 PUSH1 0x20 DUP3 ADD SWAP1 POP DUP2 DUP2 SUB PUSH0 DUP4 ADD MSTORE PUSH2 0x66B DUP2 DUP5 PUSH2 0x420 JUMP JUMPDEST SWAP1 POP SWAP3 SWAP2 POP POP JUMP JUMPDEST PUSH32 0x4E487B7100000000000000000000000000000000000000000000000000000000 PUSH0 MSTORE PUSH1 0x22 PUSH1 0x4 MSTORE PUSH1 0x24 PUSH0 REVERT JUMPDEST PUSH0 PUSH1 0x2 DUP3 DIV SWAP1 POP PUSH1 0x1 DUP3 AND DUP1 PUSH2 0x6B7 JUMPI PUSH1 0x7F DUP3 AND SWAP2 POP JUMPDEST PUSH1 0x20 DUP3 LT DUP2 SUB PUSH2 0x6CA JUMPI PUSH2 0x6C9 PUSH2 0x673 JUMP JUMPDEST JUMPDEST POP SWAP2 SWAP1 POP JUMP JUMPDEST PUSH32 0x4E487B7100000000000000000000000000000000000000000000000000000000 PUSH0 MSTORE PUSH1 0x11 PUSH1 0x4 MSTORE PUSH1 0x24 PUSH0 REVERT JUMPDEST PUSH0 PUSH2 0x707 DUP3 PUSH2 0x337 JUMP JUMPDEST SWAP2 POP PUSH2 0x712 DUP4 PUSH2 0x337 JUMP JUMPDEST SWAP3 POP DUP3 DUP3 ADD SWAP1 POP DUP1 DUP3 GT ISZERO PUSH2 0x72A JUMPI PUSH2 0x729 PUSH2 0x6D0 JUMP JUMPDEST JUMPDEST SWAP3 SWAP2 POP POP JUMP JUMPDEST PUSH0 DUP2 SWAP1 POP SWAP3 SWAP2 POP POP JUMP JUMPDEST PUSH0 PUSH2 0x744 DUP3 PUSH2 0x3CE JUMP JUMPDEST PUSH2 0x74E DUP2 DUP6 PUSH2 0x730 JUMP JUMPDEST SWAP4 POP PUSH2 0x75E DUP2 DUP6 PUSH1 0x20 DUP7 ADD PUSH2 0x3E8 JUMP JUMPDEST DUP1 DUP5 ADD SWAP2 POP POP SWAP3 SWAP2 POP POP JUMP JUMPDEST PUSH0 PUSH2 0x775 DUP3 DUP5 PUSH2 0x73A JUMP JUMPDEST SWAP2 POP DUP2 SWAP1 POP SWAP3 SWAP2 POP POP JUMP JUMPDEST PUSH0 DUP2 SWAP1 POP DUP2 PUSH0 MSTORE PUSH1 0x20 PUSH0 KECCAK256 SWAP1 POP SWAP2 SWAP1 POP JUMP JUMPDEST PUSH0 PUSH1 0x20 PUSH1 0x1F DUP4 ADD DIV SWAP1 POP SWAP2 SWAP1 POP JUMP JUMPDEST PUSH0 DUP3 DUP3 SHL SWAP1 POP SWAP3 SWAP2 POP POP JUMP JUMPDEST PUSH0 PUSH1 0x8 DUP4 MUL PUSH2 0x7DC PUSH32 0xFFFFFFFFFFFFFFFFFFFFFFFFFFFFFFFFFFFFFFFFFFFFFFFFFFFFFFFFFFFFFFFF DUP3 PUSH2 0x7A1 JUMP JUMPDEST PUSH2 0x7E6 DUP7 DUP4 PUSH2 0x7A1 JUMP JUMPDEST SWAP6 POP DUP1 NOT DUP5 AND SWAP4 POP DUP1 DUP7 AND DUP5 OR SWAP3 POP POP POP SWAP4 SWAP3 POP POP POP JUMP JUMPDEST PUSH0 DUP2 SWAP1 POP SWAP2 SWAP1 POP JUMP JUMPDEST PUSH0 PUSH2 0x821 PUSH2 0x81C PUSH2 0x817 DUP5 PUSH2 0x337 JUMP JUMPDEST PUSH2 0x7FE JUMP JUMPDEST PUSH2 0x337 JUMP JUMPDEST SWAP1 POP SWAP2 SWAP1 POP JUMP JUMPDEST PUSH0 DUP2 SWAP1 POP SWAP2 SWAP1 POP JUMP JUMPDEST PUSH2 0x83A DUP4 PUSH2 0x807 JUMP JUMPDEST PUSH2 0x84E PUSH2 0x846 DUP3 PUSH2 0x828 JUMP JUMPDEST DUP5 DUP5 SLOAD PUSH2 0x7AD JUMP JUMPDEST DUP3 SSTORE POP POP POP POP JUMP JUMPDEST PUSH0 SWAP1 JUMP JUMPDEST PUSH2 0x862 PUSH2 0x856 JUMP JUMPDEST PUSH2 0x86D DUP2 DUP5 DUP5 PUSH2 0x831 JUMP JUMPDEST POP POP POP JUMP JUMPDEST JUMPDEST DUP2 DUP2 LT ISZERO PUSH2 0x890 JUMPI PUSH2 0x885 PUSH0 DUP3 PUSH2 0x85A JUMP JUMPDEST PUSH1 0x1 DUP2 ADD SWAP1 POP PUSH2 0x873 JUMP JUMPDEST POP POP JUMP JUMPDEST PUSH1 0x1F DUP3 GT ISZERO PUSH2 0x8D5 JUMPI PUSH2 0x8A6 DUP2 PUSH2 0x780 JUMP JUMPDEST PUSH2 0x8AF DUP5 PUSH2 0x792 JUMP JUMPDEST DUP2 ADD PUSH1 0x20 DUP6 LT ISZERO PUSH2 0x8BE JUMPI DUP2 SWAP1 POP JUMPDEST PUSH2 0x8D2 PUSH2 0x8CA DUP6 PUSH2 0x792 JUMP JUMPDEST DUP4 ADD DUP3 PUSH2 0x872 JUMP JUMPDEST POP POP JUMPDEST POP POP POP JUMP JUMPDEST PUSH0 DUP3 DUP3 SHR SWAP1 POP SWAP3 SWAP2 POP POP JUMP JUMPDEST PUSH0 PUSH2 0x8F5 PUSH0 NOT DUP5 PUSH1 0x8 MUL PUSH2 0x8DA JUMP JUMPDEST NOT DUP1 DUP4 AND SWAP2 POP POP SWAP3 SWAP2 POP POP JUMP JUMPDEST PUSH0 PUSH2 0x90D DUP4 DUP4 PUSH2 0x8E6 JUMP JUMPDEST SWAP2 POP DUP3 PUSH1 0x2 MUL DUP3 OR SWAP1 POP SWAP3 SWAP2 POP POP JUMP JUMPDEST PUSH2 0x926 DUP3 PUSH2 0x3CE JUMP JUMPDEST PUSH8 0xFFFFFFFFFFFFFFFF DUP2 GT ISZERO PUSH2 0x93F JUMPI PUSH2 0x93E PUSH2 0x48E JUMP JUMPDEST JUMPDEST PUSH2 0x949 DUP3 SLOAD PUSH2 0x6A0 JUMP JUMPDEST PUSH2 0x954 DUP3 DUP3 DUP6 PUSH2 0x894 JUMP JUMPDEST PUSH0 PUSH1 0x20 SWAP1 POP PUSH1 0x1F DUP4 GT PUSH1 0x1 DUP2 EQ PUSH2 0x985 JUMPI PUSH0 DUP5 ISZERO PUSH2 0x973 JUMPI DUP3 DUP8 ADD MLOAD SWAP1 POP JUMPDEST PUSH2 0x97D DUP6 DUP3 PUSH2 0x902 JUMP JUMPDEST DUP7 SSTORE POP PUSH2 0x9E4 JUMP JUMPDEST PUSH1 0x1F NOT DUP5 AND PUSH2 0x993 DUP7 PUSH2 0x780 JUMP JUMPDEST PUSH0 JUMPDEST DUP3 DUP2 LT ISZERO PUSH2 0x9BA JUMPI DUP5 DUP10 ADD MLOAD DUP3 SSTORE PUSH1 0x1 DUP3 ADD SWAP2 POP PUSH1 0x20 DUP6 ADD SWAP5 POP PUSH1 0x20 DUP2 ADD SWAP1 POP PUSH2 0x995 JUMP JUMPDEST DUP7 DUP4 LT ISZERO PUSH2 0x9D7 JUMPI DUP5 DUP10 ADD MLOAD PUSH2 0x9D3 PUSH1 0x1F DUP10 AND DUP3 PUSH2 0x8E6 JUMP JUMPDEST DUP4 SSTORE POP JUMPDEST PUSH1 0x1 PUSH1 0x2 DUP9 MUL ADD DUP9 SSTORE POP POP POP JUMPDEST POP POP POP POP POP POP JUMP INVALID LOG2 PUSH5 0x6970667358 0x22 SLT KECCAK256 OR SAR 0x4F 0xC SLT 0xA9 PUSH4 0x672A8C16 0xBC DUP9 0xDF 0x4D SGT KECCAK256 CALLVALUE PUSH2 0x6A40 0xB9 0xD3 PUSH15 0x917BC5D33E86774664736F6C634300 ADDMOD XOR STOP CALLER "
				},
				"gasEstimates": {
					"creation": {
						"codeDepositCost": "518800",
						"executionCost": "554",
						"totalCost": "519354"
					},
					"external": {
						"addPerson(string,uint256)": "infinite",
						"listOfPeople(uint256)": "infinite",
						"myfavouriteNumber()": "2469",
						"nameToFavouriteNumber(string)": "infinite",
						"retrieve()": "2433",
						"sayHello()": "infinite",
						"store(uint256)": "infinite"
					}
				},
				"methodIdentifiers": {
					"addPerson(string,uint256)": "6f760f41",
					"listOfPeople(uint256)": "2ebce631",
					"myfavouriteNumber()": "3bc035d2",
					"nameToFavouriteNumber(string)": "b2ac62ef",
					"retrieve()": "2e64cec1",
					"sayHello()": "ef5fb05b",
					"store(uint256)": "6057361d"
				}
			},
			"storageLayout": {
				"storage": [
					{
						"astId": 31,
						"contract": "contracts/AddFiveStorage.sol:AddFiveStorage",
						"label": "myfavouriteNumber",
						"offset": 0,
						"slot": "0",
						"type": "t_uint256"
					},
					{
						"astId": 52,
						"contract": "contracts/AddFiveStorage.sol:AddFiveStorage",
						"label": "listOfFavouriteNumbers",
						"offset": 0,
						"slot": "1",
						"type": "t_array(t_uint256)dyn_storage"
					},
					{
						"astId": 56,
						"contract": "contracts/AddFiveStorage.sol:AddFiveStorage",
						"label": "listOfPeople",
						"offset": 0,
						"slot": "2",
						"type": "t_array(t_struct(Person)49_storage)dyn_storage"
					},
					{
						"astId": 68,
						"contract": "contracts/AddFiveStorage.sol:AddFiveStorage",
						"label": "nameToFavouriteNumber",
						"offset": 0,
						"slot": "3",
						"type": "t_mapping(t_string_memory_ptr,t_uint256)"
					}
				],
				"types": {
					"t_array(t_struct(Person)49_storage)dyn_storage": {
						"base": "t_struct(Person)49_storage",
						"encoding": "dynamic_array",
						"label": "struct SimpleStorage.Person[]",
						"numberOfBytes": "32"
					},
					"t_array(t_uint256)dyn_storage": {
						"base": "t_uint256",
						"encoding": "dynamic_array",
						"label": "uint256[]",
						"numberOfBytes": "32"
					},
					"t_mapping(t_string_memory_ptr,t_uint256)": {
						"encoding": "mapping",
						"key": "t_string_memory_ptr",
						"label": "mapping(string => uint256)",
						"numberOfBytes": "32",
						"value": "t_uint256"
					},
					"t_string_memory_ptr": {
						"encoding": "bytes",
						"label": "string",
						"numberOfBytes": "32"
					},
					"t_string_storage": {
						"encoding": "bytes",
						"label": "string",
						"numberOfBytes": "32"
					},
					"t_struct(Person)49_storage": {
						"encoding": "inplace",
						"label": "struct SimpleStorage.Person",
						"members": [
							{
								"astId": 46,
								"contract": "contracts/AddFiveStorage.sol:AddFiveStorage",
								"label": "favouriteNumber",
								"offset": 0,
								"slot": "0",
								"type": "t_uint256"
							},
							{
								"astId": 48,
								"contract": "contracts/AddFiveStorage.sol:AddFiveStorage",
								"label": "name",
								"offset": 0,
								"slot": "1",
								"type": "t_string_storage"
							}
						],
						"numberOfBytes": "64"
					},
					"t_uint256": {
						"encoding": "inplace",
						"label": "uint256",
						"numberOfBytes": "32"
					}
				}
			},
			"userdoc": {
				"kind": "user",
				"methods": {},
				"version": 1
			}
		}
	}
}