{
	"contracts/SimpleStorage.sol": {
		"SimpleStorage": {
			"abi": [
				{
					"inputs": [
						{
							"internalType": "string",
							"name": "_name",
							"type": "string"
						},
						{
							"internalType": "uint256",
							"name": "_number",
							"type": "uint256"
						}
					],
					"name": "addPerson",
					"outputs": [],
					"stateMutability": "nonpayable",
					"type": "function"
				},
				{
					"inputs": [
						{
							"internalType": "uint256",
							"name": "",
							"type": "uint256"
						}
					],
					"name": "listOfPeople",
					"outputs": [
						{
							"internalType": "uint256",
							"name": "favouriteNumber",
							"type": "uint256"
						},
						{
							"internalType": "string",
							"name": "name",
							"type": "string"
						}
					],
					"stateMutability": "view",
					"type": "function"
				},
				{
					"inputs": [],
					"name": "myfavouriteNumber",
					"outputs": [
						{
							"internalType": "uint256",
							"name": "",
							"type": "uint256"
						}
					],
					"stateMutability": "view",
					"type": "function"
				},
				{
					"inputs": [
						{
							"internalType": "string",
							"name": "",
							"type": "string"
						}
					],
					"name": "nameToFavouriteNumber",
					"outputs": [
						{
							"internalType": "uint256",
							"name": "",
							"type": "uint256"
						}
					],
					"stateMutability": "view",
					"type": "function"
				},
				{
					"inputs": [],
					"name": "retrieve",
					"outputs": [
						{
							"internalType": "uint256",
							"name": "",
							"type": "uint256"
						}
					],
					"stateMutability": "view",
					"type": "function"
				},
				{
					"inputs": [
						{
							"internalType": "uint256",
							"name": "_favouriteNumber",
							"type": "uint256"
						}
					],
					"name": "store",
					"outputs": [],
					"stateMutability": "nonpayable",
					"type": "function"
				}
			],
			"devdoc": {
				"kind": "dev",
				"methods": {},
				"version": 1
			},
			"evm": {
				"assembly": "    /* \"contracts/SimpleStorage.sol\":58:1212  contract SimpleStorage {... */\n  mstore(0x40, 0x80)\n  callvalue\n  dup1\n  iszero\n  tag_1\n  jumpi\n  0x00\n  dup1\n  revert\ntag_1:\n  pop\n  dataSize(sub_0)\n  dup1\n  dataOffset(sub_0)\n  0x00\n  codecopy\n  0x00\n  return\nstop\n\nsub_0: assembly {\n        /* \"contracts/SimpleStorage.sol\":58:1212  contract SimpleStorage {... */\n      mstore(0x40, 0x80)\n      callvalue\n      dup1\n      iszero\n      tag_1\n      jumpi\n      0x00\n      dup1\n      revert\n    tag_1:\n      pop\n      jumpi(tag_2, lt(calldatasize, 0x04))\n      shr(0xe0, calldataload(0x00))\n      dup1\n      0x2e64cec1\n      eq\n      tag_3\n      jumpi\n      dup1\n      0x2ebce631\n      eq\n      tag_4\n      jumpi\n      dup1\n      0x3bc035d2\n      eq\n      tag_5\n      jumpi\n      dup1\n      0x6057361d\n      eq\n      tag_6\n      jumpi\n      dup1\n      0x6f760f41\n      eq\n      tag_7\n      jumpi\n      dup1\n      0xb2ac62ef\n      eq\n      tag_8\n      jumpi\n    tag_2:\n      0x00\n      dup1\n      revert\n        /* \"contracts/SimpleStorage.sol\":881:971  function retrieve() public view returns(uint256) {... */\n    tag_3:\n      tag_9\n      tag_10\n      jump\t// in\n    tag_9:\n      mload(0x40)\n      tag_11\n      swap2\n      swap1\n      tag_12\n      jump\t// in\n    tag_11:\n      mload(0x40)\n      dup1\n      swap2\n      sub\n      swap1\n      return\n        /* \"contracts/SimpleStorage.sol\":555:583  Person[] public listOfPeople */\n    tag_4:\n      tag_13\n      0x04\n      dup1\n      calldatasize\n      sub\n      dup2\n      add\n      swap1\n      tag_14\n      swap2\n      swap1\n      tag_15\n      jump\t// in\n    tag_14:\n      tag_16\n      jump\t// in\n    tag_13:\n      mload(0x40)\n      tag_17\n      swap3\n      swap2\n      swap1\n      tag_18\n      jump\t// in\n    tag_17:\n      mload(0x40)\n      dup1\n      swap2\n      sub\n      swap1\n      return\n        /* \"contracts/SimpleStorage.sol\":87:119  uint256 public myfavouriteNumber */\n    tag_5:\n      tag_19\n      tag_20\n      jump\t// in\n    tag_19:\n      mload(0x40)\n      tag_21\n      swap2\n      swap1\n      tag_12\n      jump\t// in\n    tag_21:\n      mload(0x40)\n      dup1\n      swap2\n      sub\n      swap1\n      return\n        /* \"contracts/SimpleStorage.sol\":126:256  function store(uint256 _favouriteNumber) public {... */\n    tag_6:\n      tag_22\n      0x04\n      dup1\n      calldatasize\n      sub\n      dup2\n      add\n      swap1\n      tag_23\n      swap2\n      swap1\n      tag_15\n      jump\t// in\n    tag_23:\n      tag_24\n      jump\t// in\n    tag_22:\n      stop\n        /* \"contracts/SimpleStorage.sol\":1039:1209  function addPerson(string memory _name, uint256 _number) public {... */\n    tag_7:\n      tag_25\n      0x04\n      dup1\n      calldatasize\n      sub\n      dup2\n      add\n      swap1\n      tag_26\n      swap2\n      swap1\n      tag_27\n      jump\t// in\n    tag_26:\n      tag_28\n      jump\t// in\n    tag_25:\n      stop\n        /* \"contracts/SimpleStorage.sol\":977:1032  mapping(string => uint256) public nameToFavouriteNumber */\n    tag_8:\n      tag_29\n      0x04\n      dup1\n      calldatasize\n      sub\n      dup2\n      add\n      swap1\n      tag_30\n      swap2\n      swap1\n      tag_31\n      jump\t// in\n    tag_30:\n      tag_32\n      jump\t// in\n    tag_29:\n      mload(0x40)\n      tag_33\n      swap2\n      swap1\n      tag_12\n      jump\t// in\n    tag_33:\n      mload(0x40)\n      dup1\n      swap2\n      sub\n      swap1\n      return\n        /* \"contracts/SimpleStorage.sol\":881:971  function retrieve() public view returns(uint256) {... */\n    tag_10:\n        /* \"contracts/SimpleStorage.sol\":921:928  uint256 */\n      0x00\n        /* \"contracts/SimpleStorage.sol\":947:964  myfavouriteNumber */\n      dup1\n      sload\n        /* \"contracts/SimpleStorage.sol\":940:964  return myfavouriteNumber */\n      swap1\n      pop\n        /* \"contracts/SimpleStorage.sol\":881:971  function retrieve() public view returns(uint256) {... */\n      swap1\n      jump\t// out\n        /* \"contracts/SimpleStorage.sol\":555:583  Person[] public listOfPeople */\n    tag_16:\n      0x02\n      dup2\n      dup2\n      sload\n      dup2\n      lt\n      tag_35\n      jumpi\n      0x00\n      dup1\n      revert\n    tag_35:\n      swap1\n      0x00\n      mstore\n      keccak256(0x00, 0x20)\n      swap1\n      0x02\n      mul\n      add\n      0x00\n      swap2\n      pop\n      swap1\n      pop\n      dup1\n      0x00\n      add\n      sload\n      swap1\n      dup1\n      0x01\n      add\n      dup1\n      sload\n      tag_37\n      swap1\n      tag_38\n      jump\t// in\n    tag_37:\n      dup1\n      0x1f\n      add\n      0x20\n      dup1\n      swap2\n      div\n      mul\n      0x20\n      add\n      mload(0x40)\n      swap1\n      dup2\n      add\n      0x40\n      mstore\n      dup1\n      swap3\n      swap2\n      swap1\n      dup2\n      dup2\n      mstore\n      0x20\n      add\n      dup3\n      dup1\n      sload\n      tag_39\n      swap1\n      tag_38\n      jump\t// in\n    tag_39:\n      dup1\n      iszero\n      tag_40\n      jumpi\n      dup1\n      0x1f\n      lt\n      tag_41\n      jumpi\n      0x0100\n      dup1\n      dup4\n      sload\n      div\n      mul\n      dup4\n      mstore\n      swap2\n      0x20\n      add\n      swap2\n      jump(tag_40)\n    tag_41:\n      dup3\n      add\n      swap2\n      swap1\n      0x00\n      mstore\n      keccak256(0x00, 0x20)\n      swap1\n    tag_42:\n      dup2\n      sload\n      dup2\n      mstore\n      swap1\n      0x01\n      add\n      swap1\n      0x20\n      add\n      dup1\n      dup4\n      gt\n      tag_42\n      jumpi\n      dup3\n      swap1\n      sub\n      0x1f\n      and\n      dup3\n      add\n      swap2\n    tag_40:\n      pop\n      pop\n      pop\n      pop\n      pop\n      swap1\n      pop\n      dup3\n      jump\t// out\n        /* \"contracts/SimpleStorage.sol\":87:119  uint256 public myfavouriteNumber */\n    tag_20:\n      sload(0x00)\n      dup2\n      jump\t// out\n        /* \"contracts/SimpleStorage.sol\":126:256  function store(uint256 _favouriteNumber) public {... */\n    tag_24:\n        /* \"contracts/SimpleStorage.sol\":204:220  _favouriteNumber */\n      dup1\n        /* \"contracts/SimpleStorage.sol\":184:201  myfavouriteNumber */\n      0x00\n        /* \"contracts/SimpleStorage.sol\":184:220  myfavouriteNumber = _favouriteNumber */\n      dup2\n      swap1\n      sstore\n      pop\n        /* \"contracts/SimpleStorage.sol\":230:240  retrieve() */\n      tag_44\n        /* \"contracts/SimpleStorage.sol\":230:238  retrieve */\n      tag_10\n        /* \"contracts/SimpleStorage.sol\":230:240  retrieve() */\n      jump\t// in\n    tag_44:\n      pop\n        /* \"contracts/SimpleStorage.sol\":126:256  function store(uint256 _favouriteNumber) public {... */\n      pop\n      jump\t// out\n        /* \"contracts/SimpleStorage.sol\":1039:1209  function addPerson(string memory _name, uint256 _number) public {... */\n    tag_28:\n        /* \"contracts/SimpleStorage.sol\":1144:1151  _number */\n      dup1\n        /* \"contracts/SimpleStorage.sol\":1113:1134  nameToFavouriteNumber */\n      0x03\n        /* \"contracts/SimpleStorage.sol\":1135:1140  _name */\n      dup4\n        /* \"contracts/SimpleStorage.sol\":1113:1141  nameToFavouriteNumber[_name] */\n      mload(0x40)\n      tag_46\n      swap2\n      swap1\n      tag_47\n      jump\t// in\n    tag_46:\n      swap1\n      dup2\n      mstore\n      0x20\n      add\n      mload(0x40)\n      dup1\n      swap2\n      sub\n      swap1\n      keccak256\n        /* \"contracts/SimpleStorage.sol\":1113:1151  nameToFavouriteNumber[_name] = _number */\n      dup2\n      swap1\n      sstore\n      pop\n        /* \"contracts/SimpleStorage.sol\":1161:1173  listOfPeople */\n      0x02\n        /* \"contracts/SimpleStorage.sol\":1179:1201  Person(_number, _name) */\n      mload(0x40)\n      dup1\n      0x40\n      add\n      0x40\n      mstore\n      dup1\n        /* \"contracts/SimpleStorage.sol\":1186:1193  _number */\n      dup4\n        /* \"contracts/SimpleStorage.sol\":1179:1201  Person(_number, _name) */\n      dup2\n      mstore\n      0x20\n      add\n        /* \"contracts/SimpleStorage.sol\":1195:1200  _name */\n      dup5\n        /* \"contracts/SimpleStorage.sol\":1179:1201  Person(_number, _name) */\n      dup2\n      mstore\n      pop\n        /* \"contracts/SimpleStorage.sol\":1161:1202  listOfPeople.push(Person(_number, _name)) */\n      swap1\n      dup1\n      0x01\n      dup2\n      sload\n      add\n      dup1\n      dup3\n      sstore\n      dup1\n      swap2\n      pop\n      pop\n      0x01\n      swap1\n      sub\n      swap1\n      0x00\n      mstore\n      keccak256(0x00, 0x20)\n      swap1\n      0x02\n      mul\n      add\n      0x00\n      swap1\n      swap2\n      swap1\n      swap2\n      swap1\n      swap2\n      pop\n      0x00\n      dup3\n      add\n      mload\n      dup2\n      0x00\n      add\n      sstore\n      0x20\n      dup3\n      add\n      mload\n      dup2\n      0x01\n      add\n      swap1\n      dup2\n      tag_49\n      swap2\n      swap1\n      tag_50\n      jump\t// in\n    tag_49:\n      pop\n      pop\n      pop\n        /* \"contracts/SimpleStorage.sol\":1039:1209  function addPerson(string memory _name, uint256 _number) public {... */\n      pop\n      pop\n      jump\t// out\n        /* \"contracts/SimpleStorage.sol\":977:1032  mapping(string => uint256) public nameToFavouriteNumber */\n    tag_32:\n      0x03\n      dup2\n      dup1\n      mload\n      0x20\n      dup2\n      add\n      dup3\n      add\n      dup1\n      mload\n      dup5\n      dup3\n      mstore\n      0x20\n      dup4\n      add\n      0x20\n      dup6\n      add\n      keccak256\n      dup2\n      dup4\n      mstore\n      dup1\n      swap6\n      pop\n      pop\n      pop\n      pop\n      pop\n      pop\n      0x00\n      swap2\n      pop\n      swap1\n      pop\n      sload\n      dup2\n      jump\t// out\n        /* \"#utility.yul\":7:84   */\n    tag_51:\n        /* \"#utility.yul\":44:51   */\n      0x00\n        /* \"#utility.yul\":73:78   */\n      dup2\n        /* \"#utility.yul\":62:78   */\n      swap1\n      pop\n        /* \"#utility.yul\":7:84   */\n      swap2\n      swap1\n      pop\n      jump\t// out\n        /* \"#utility.yul\":90:208   */\n    tag_52:\n        /* \"#utility.yul\":177:201   */\n      tag_93\n        /* \"#utility.yul\":195:200   */\n      dup2\n        /* \"#utility.yul\":177:201   */\n      tag_51\n      jump\t// in\n    tag_93:\n        /* \"#utility.yul\":172:175   */\n      dup3\n        /* \"#utility.yul\":165:202   */\n      mstore\n        /* \"#utility.yul\":90:208   */\n      pop\n      pop\n      jump\t// out\n        /* \"#utility.yul\":214:436   */\n    tag_12:\n        /* \"#utility.yul\":307:311   */\n      0x00\n        /* \"#utility.yul\":345:347   */\n      0x20\n        /* \"#utility.yul\":334:343   */\n      dup3\n        /* \"#utility.yul\":330:348   */\n      add\n        /* \"#utility.yul\":322:348   */\n      swap1\n      pop\n        /* \"#utility.yul\":358:429   */\n      tag_95\n        /* \"#utility.yul\":426:427   */\n      0x00\n        /* \"#utility.yul\":415:424   */\n      dup4\n        /* \"#utility.yul\":411:428   */\n      add\n        /* \"#utility.yul\":402:408   */\n      dup5\n        /* \"#utility.yul\":358:429   */\n      tag_52\n      jump\t// in\n    tag_95:\n        /* \"#utility.yul\":214:436   */\n      swap3\n      swap2\n      pop\n      pop\n      jump\t// out\n        /* \"#utility.yul\":442:517   */\n    tag_53:\n        /* \"#utility.yul\":475:481   */\n      0x00\n        /* \"#utility.yul\":508:510   */\n      0x40\n        /* \"#utility.yul\":502:511   */\n      mload\n        /* \"#utility.yul\":492:511   */\n      swap1\n      pop\n        /* \"#utility.yul\":442:517   */\n      swap1\n      jump\t// out\n        /* \"#utility.yul\":523:640   */\n    tag_54:\n        /* \"#utility.yul\":632:633   */\n      0x00\n        /* \"#utility.yul\":629:630   */\n      dup1\n        /* \"#utility.yul\":622:634   */\n      revert\n        /* \"#utility.yul\":646:763   */\n    tag_55:\n        /* \"#utility.yul\":755:756   */\n      0x00\n        /* \"#utility.yul\":752:753   */\n      dup1\n        /* \"#utility.yul\":745:757   */\n      revert\n        /* \"#utility.yul\":769:891   */\n    tag_56:\n        /* \"#utility.yul\":842:866   */\n      tag_100\n        /* \"#utility.yul\":860:865   */\n      dup2\n        /* \"#utility.yul\":842:866   */\n      tag_51\n      jump\t// in\n    tag_100:\n        /* \"#utility.yul\":835:840   */\n      dup2\n        /* \"#utility.yul\":832:867   */\n      eq\n        /* \"#utility.yul\":822:885   */\n      tag_101\n      jumpi\n        /* \"#utility.yul\":881:882   */\n      0x00\n        /* \"#utility.yul\":878:879   */\n      dup1\n        /* \"#utility.yul\":871:883   */\n      revert\n        /* \"#utility.yul\":822:885   */\n    tag_101:\n        /* \"#utility.yul\":769:891   */\n      pop\n      jump\t// out\n        /* \"#utility.yul\":897:1036   */\n    tag_57:\n        /* \"#utility.yul\":943:948   */\n      0x00\n        /* \"#utility.yul\":981:987   */\n      dup2\n        /* \"#utility.yul\":968:988   */\n      calldataload\n        /* \"#utility.yul\":959:988   */\n      swap1\n      pop\n        /* \"#utility.yul\":997:1030   */\n      tag_103\n        /* \"#utility.yul\":1024:1029   */\n      dup2\n        /* \"#utility.yul\":997:1030   */\n      tag_56\n      jump\t// in\n    tag_103:\n        /* \"#utility.yul\":897:1036   */\n      swap3\n      swap2\n      pop\n      pop\n      jump\t// out\n        /* \"#utility.yul\":1042:1371   */\n    tag_15:\n        /* \"#utility.yul\":1101:1107   */\n      0x00\n        /* \"#utility.yul\":1150:1152   */\n      0x20\n        /* \"#utility.yul\":1138:1147   */\n      dup3\n        /* \"#utility.yul\":1129:1136   */\n      dup5\n        /* \"#utility.yul\":1125:1148   */\n      sub\n        /* \"#utility.yul\":1121:1153   */\n      slt\n        /* \"#utility.yul\":1118:1237   */\n      iszero\n      tag_105\n      jumpi\n        /* \"#utility.yul\":1156:1235   */\n      tag_106\n      tag_54\n      jump\t// in\n    tag_106:\n        /* \"#utility.yul\":1118:1237   */\n    tag_105:\n        /* \"#utility.yul\":1276:1277   */\n      0x00\n        /* \"#utility.yul\":1301:1354   */\n      tag_107\n        /* \"#utility.yul\":1346:1353   */\n      dup5\n        /* \"#utility.yul\":1337:1343   */\n      dup3\n        /* \"#utility.yul\":1326:1335   */\n      dup6\n        /* \"#utility.yul\":1322:1344   */\n      add\n        /* \"#utility.yul\":1301:1354   */\n      tag_57\n      jump\t// in\n    tag_107:\n        /* \"#utility.yul\":1291:1354   */\n      swap2\n      pop\n        /* \"#utility.yul\":1247:1364   */\n      pop\n        /* \"#utility.yul\":1042:1371   */\n      swap3\n      swap2\n      pop\n      pop\n      jump\t// out\n        /* \"#utility.yul\":1377:1476   */\n    tag_58:\n        /* \"#utility.yul\":1429:1435   */\n      0x00\n        /* \"#utility.yul\":1463:1468   */\n      dup2\n        /* \"#utility.yul\":1457:1469   */\n      mload\n        /* \"#utility.yul\":1447:1469   */\n      swap1\n      pop\n        /* \"#utility.yul\":1377:1476   */\n      swap2\n      swap1\n      pop\n      jump\t// out\n        /* \"#utility.yul\":1482:1651   */\n    tag_59:\n        /* \"#utility.yul\":1566:1577   */\n      0x00\n        /* \"#utility.yul\":1600:1606   */\n      dup3\n        /* \"#utility.yul\":1595:1598   */\n      dup3\n        /* \"#utility.yul\":1588:1607   */\n      mstore\n        /* \"#utility.yul\":1640:1644   */\n      0x20\n        /* \"#utility.yul\":1635:1638   */\n      dup3\n        /* \"#utility.yul\":1631:1645   */\n      add\n        /* \"#utility.yul\":1616:1645   */\n      swap1\n      pop\n        /* \"#utility.yul\":1482:1651   */\n      swap3\n      swap2\n      pop\n      pop\n      jump\t// out\n        /* \"#utility.yul\":1657:1903   */\n    tag_60:\n        /* \"#utility.yul\":1738:1739   */\n      0x00\n        /* \"#utility.yul\":1748:1861   */\n    tag_111:\n        /* \"#utility.yul\":1762:1768   */\n      dup4\n        /* \"#utility.yul\":1759:1760   */\n      dup2\n        /* \"#utility.yul\":1756:1769   */\n      lt\n        /* \"#utility.yul\":1748:1861   */\n      iszero\n      tag_113\n      jumpi\n        /* \"#utility.yul\":1847:1848   */\n      dup1\n        /* \"#utility.yul\":1842:1845   */\n      dup3\n        /* \"#utility.yul\":1838:1849   */\n      add\n        /* \"#utility.yul\":1832:1850   */\n      mload\n        /* \"#utility.yul\":1828:1829   */\n      dup2\n        /* \"#utility.yul\":1823:1826   */\n      dup5\n        /* \"#utility.yul\":1819:1830   */\n      add\n        /* \"#utility.yul\":1812:1851   */\n      mstore\n        /* \"#utility.yul\":1784:1786   */\n      0x20\n        /* \"#utility.yul\":1781:1782   */\n      dup2\n        /* \"#utility.yul\":1777:1787   */\n      add\n        /* \"#utility.yul\":1772:1787   */\n      swap1\n      pop\n        /* \"#utility.yul\":1748:1861   */\n      jump(tag_111)\n    tag_113:\n        /* \"#utility.yul\":1895:1896   */\n      0x00\n        /* \"#utility.yul\":1886:1892   */\n      dup5\n        /* \"#utility.yul\":1881:1884   */\n      dup5\n        /* \"#utility.yul\":1877:1893   */\n      add\n        /* \"#utility.yul\":1870:1897   */\n      mstore\n        /* \"#utility.yul\":1719:1903   */\n      pop\n        /* \"#utility.yul\":1657:1903   */\n      pop\n      pop\n      pop\n      jump\t// out\n        /* \"#utility.yul\":1909:2011   */\n    tag_61:\n        /* \"#utility.yul\":1950:1956   */\n      0x00\n        /* \"#utility.yul\":2001:2003   */\n      0x1f\n        /* \"#utility.yul\":1997:2004   */\n      not\n        /* \"#utility.yul\":1992:1994   */\n      0x1f\n        /* \"#utility.yul\":1985:1990   */\n      dup4\n        /* \"#utility.yul\":1981:1995   */\n      add\n        /* \"#utility.yul\":1977:2005   */\n      and\n        /* \"#utility.yul\":1967:2005   */\n      swap1\n      pop\n        /* \"#utility.yul\":1909:2011   */\n      swap2\n      swap1\n      pop\n      jump\t// out\n        /* \"#utility.yul\":2017:2394   */\n    tag_62:\n        /* \"#utility.yul\":2105:2108   */\n      0x00\n        /* \"#utility.yul\":2133:2172   */\n      tag_116\n        /* \"#utility.yul\":2166:2171   */\n      dup3\n        /* \"#utility.yul\":2133:2172   */\n      tag_58\n      jump\t// in\n    tag_116:\n        /* \"#utility.yul\":2188:2259   */\n      tag_117\n        /* \"#utility.yul\":2252:2258   */\n      dup2\n        /* \"#utility.yul\":2247:2250   */\n      dup6\n        /* \"#utility.yul\":2188:2259   */\n      tag_59\n      jump\t// in\n    tag_117:\n        /* \"#utility.yul\":2181:2259   */\n      swap4\n      pop\n        /* \"#utility.yul\":2268:2333   */\n      tag_118\n        /* \"#utility.yul\":2326:2332   */\n      dup2\n        /* \"#utility.yul\":2321:2324   */\n      dup6\n        /* \"#utility.yul\":2314:2318   */\n      0x20\n        /* \"#utility.yul\":2307:2312   */\n      dup7\n        /* \"#utility.yul\":2303:2319   */\n      add\n        /* \"#utility.yul\":2268:2333   */\n      tag_60\n      jump\t// in\n    tag_118:\n        /* \"#utility.yul\":2358:2387   */\n      tag_119\n        /* \"#utility.yul\":2380:2386   */\n      dup2\n        /* \"#utility.yul\":2358:2387   */\n      tag_61\n      jump\t// in\n    tag_119:\n        /* \"#utility.yul\":2353:2356   */\n      dup5\n        /* \"#utility.yul\":2349:2388   */\n      add\n        /* \"#utility.yul\":2342:2388   */\n      swap2\n      pop\n        /* \"#utility.yul\":2109:2394   */\n      pop\n        /* \"#utility.yul\":2017:2394   */\n      swap3\n      swap2\n      pop\n      pop\n      jump\t// out\n        /* \"#utility.yul\":2400:2823   */\n    tag_18:\n        /* \"#utility.yul\":2541:2545   */\n      0x00\n        /* \"#utility.yul\":2579:2581   */\n      0x40\n        /* \"#utility.yul\":2568:2577   */\n      dup3\n        /* \"#utility.yul\":2564:2582   */\n      add\n        /* \"#utility.yul\":2556:2582   */\n      swap1\n      pop\n        /* \"#utility.yul\":2592:2663   */\n      tag_121\n        /* \"#utility.yul\":2660:2661   */\n      0x00\n        /* \"#utility.yul\":2649:2658   */\n      dup4\n        /* \"#utility.yul\":2645:2662   */\n      add\n        /* \"#utility.yul\":2636:2642   */\n      dup6\n        /* \"#utility.yul\":2592:2663   */\n      tag_52\n      jump\t// in\n    tag_121:\n        /* \"#utility.yul\":2710:2719   */\n      dup2\n        /* \"#utility.yul\":2704:2708   */\n      dup2\n        /* \"#utility.yul\":2700:2720   */\n      sub\n        /* \"#utility.yul\":2695:2697   */\n      0x20\n        /* \"#utility.yul\":2684:2693   */\n      dup4\n        /* \"#utility.yul\":2680:2698   */\n      add\n        /* \"#utility.yul\":2673:2721   */\n      mstore\n        /* \"#utility.yul\":2738:2816   */\n      tag_122\n        /* \"#utility.yul\":2811:2815   */\n      dup2\n        /* \"#utility.yul\":2802:2808   */\n      dup5\n        /* \"#utility.yul\":2738:2816   */\n      tag_62\n      jump\t// in\n    tag_122:\n        /* \"#utility.yul\":2730:2816   */\n      swap1\n      pop\n        /* \"#utility.yul\":2400:2823   */\n      swap4\n      swap3\n      pop\n      pop\n      pop\n      jump\t// out\n        /* \"#utility.yul\":2829:2946   */\n    tag_63:\n        /* \"#utility.yul\":2938:2939   */\n      0x00\n        /* \"#utility.yul\":2935:2936   */\n      dup1\n        /* \"#utility.yul\":2928:2940   */\n      revert\n        /* \"#utility.yul\":2952:3069   */\n    tag_64:\n        /* \"#utility.yul\":3061:3062   */\n      0x00\n        /* \"#utility.yul\":3058:3059   */\n      dup1\n        /* \"#utility.yul\":3051:3063   */\n      revert\n        /* \"#utility.yul\":3075:3255   */\n    tag_65:\n        /* \"#utility.yul\":3123:3200   */\n      0x4e487b7100000000000000000000000000000000000000000000000000000000\n        /* \"#utility.yul\":3120:3121   */\n      0x00\n        /* \"#utility.yul\":3113:3201   */\n      mstore\n        /* \"#utility.yul\":3220:3224   */\n      0x41\n        /* \"#utility.yul\":3217:3218   */\n      0x04\n        /* \"#utility.yul\":3210:3225   */\n      mstore\n        /* \"#utility.yul\":3244:3248   */\n      0x24\n        /* \"#utility.yul\":3241:3242   */\n      0x00\n        /* \"#utility.yul\":3234:3249   */\n      revert\n        /* \"#utility.yul\":3261:3542   */\n    tag_66:\n        /* \"#utility.yul\":3344:3371   */\n      tag_127\n        /* \"#utility.yul\":3366:3370   */\n      dup3\n        /* \"#utility.yul\":3344:3371   */\n      tag_61\n      jump\t// in\n    tag_127:\n        /* \"#utility.yul\":3336:3342   */\n      dup2\n        /* \"#utility.yul\":3332:3372   */\n      add\n        /* \"#utility.yul\":3474:3480   */\n      dup2\n        /* \"#utility.yul\":3462:3472   */\n      dup2\n        /* \"#utility.yul\":3459:3481   */\n      lt\n        /* \"#utility.yul\":3438:3456   */\n      0xffffffffffffffff\n        /* \"#utility.yul\":3426:3436   */\n      dup3\n        /* \"#utility.yul\":3423:3457   */\n      gt\n        /* \"#utility.yul\":3420:3482   */\n      or\n        /* \"#utility.yul\":3417:3505   */\n      iszero\n      tag_128\n      jumpi\n        /* \"#utility.yul\":3485:3503   */\n      tag_129\n      tag_65\n      jump\t// in\n    tag_129:\n        /* \"#utility.yul\":3417:3505   */\n    tag_128:\n        /* \"#utility.yul\":3525:3535   */\n      dup1\n        /* \"#utility.yul\":3521:3523   */\n      0x40\n        /* \"#utility.yul\":3514:3536   */\n      mstore\n        /* \"#utility.yul\":3304:3542   */\n      pop\n        /* \"#utility.yul\":3261:3542   */\n      pop\n      pop\n      jump\t// out\n        /* \"#utility.yul\":3548:3677   */\n    tag_67:\n        /* \"#utility.yul\":3582:3588   */\n      0x00\n        /* \"#utility.yul\":3609:3629   */\n      tag_131\n      tag_53\n      jump\t// in\n    tag_131:\n        /* \"#utility.yul\":3599:3629   */\n      swap1\n      pop\n        /* \"#utility.yul\":3638:3671   */\n      tag_132\n        /* \"#utility.yul\":3666:3670   */\n      dup3\n        /* \"#utility.yul\":3658:3664   */\n      dup3\n        /* \"#utility.yul\":3638:3671   */\n      tag_66\n      jump\t// in\n    tag_132:\n        /* \"#utility.yul\":3548:3677   */\n      swap2\n      swap1\n      pop\n      jump\t// out\n        /* \"#utility.yul\":3683:3991   */\n    tag_68:\n        /* \"#utility.yul\":3745:3749   */\n      0x00\n        /* \"#utility.yul\":3835:3853   */\n      0xffffffffffffffff\n        /* \"#utility.yul\":3827:3833   */\n      dup3\n        /* \"#utility.yul\":3824:3854   */\n      gt\n        /* \"#utility.yul\":3821:3877   */\n      iszero\n      tag_134\n      jumpi\n        /* \"#utility.yul\":3857:3875   */\n      tag_135\n      tag_65\n      jump\t// in\n    tag_135:\n        /* \"#utility.yul\":3821:3877   */\n    tag_134:\n        /* \"#utility.yul\":3895:3924   */\n      tag_136\n        /* \"#utility.yul\":3917:3923   */\n      dup3\n        /* \"#utility.yul\":3895:3924   */\n      tag_61\n      jump\t// in\n    tag_136:\n        /* \"#utility.yul\":3887:3924   */\n      swap1\n      pop\n        /* \"#utility.yul\":3979:3983   */\n      0x20\n        /* \"#utility.yul\":3973:3977   */\n      dup2\n        /* \"#utility.yul\":3969:3984   */\n      add\n        /* \"#utility.yul\":3961:3984   */\n      swap1\n      pop\n        /* \"#utility.yul\":3683:3991   */\n      swap2\n      swap1\n      pop\n      jump\t// out\n        /* \"#utility.yul\":3997:4143   */\n    tag_69:\n        /* \"#utility.yul\":4094:4100   */\n      dup3\n        /* \"#utility.yul\":4089:4092   */\n      dup2\n        /* \"#utility.yul\":4084:4087   */\n      dup4\n        /* \"#utility.yul\":4071:4101   */\n      calldatacopy\n        /* \"#utility.yul\":4135:4136   */\n      0x00\n        /* \"#utility.yul\":4126:4132   */\n      dup4\n        /* \"#utility.yul\":4121:4124   */\n      dup4\n        /* \"#utility.yul\":4117:4133   */\n      add\n        /* \"#utility.yul\":4110:4137   */\n      mstore\n        /* \"#utility.yul\":3997:4143   */\n      pop\n      pop\n      pop\n      jump\t// out\n        /* \"#utility.yul\":4149:4574   */\n    tag_70:\n        /* \"#utility.yul\":4227:4232   */\n      0x00\n        /* \"#utility.yul\":4252:4318   */\n      tag_139\n        /* \"#utility.yul\":4268:4317   */\n      tag_140\n        /* \"#utility.yul\":4310:4316   */\n      dup5\n        /* \"#utility.yul\":4268:4317   */\n      tag_68\n      jump\t// in\n    tag_140:\n        /* \"#utility.yul\":4252:4318   */\n      tag_67\n      jump\t// in\n    tag_139:\n        /* \"#utility.yul\":4243:4318   */\n      swap1\n      pop\n        /* \"#utility.yul\":4341:4347   */\n      dup3\n        /* \"#utility.yul\":4334:4339   */\n      dup2\n        /* \"#utility.yul\":4327:4348   */\n      mstore\n        /* \"#utility.yul\":4379:4383   */\n      0x20\n        /* \"#utility.yul\":4372:4377   */\n      dup2\n        /* \"#utility.yul\":4368:4384   */\n      add\n        /* \"#utility.yul\":4417:4420   */\n      dup5\n        /* \"#utility.yul\":4408:4414   */\n      dup5\n        /* \"#utility.yul\":4403:4406   */\n      dup5\n        /* \"#utility.yul\":4399:4415   */\n      add\n        /* \"#utility.yul\":4396:4421   */\n      gt\n        /* \"#utility.yul\":4393:4505   */\n      iszero\n      tag_141\n      jumpi\n        /* \"#utility.yul\":4424:4503   */\n      tag_142\n      tag_64\n      jump\t// in\n    tag_142:\n        /* \"#utility.yul\":4393:4505   */\n    tag_141:\n        /* \"#utility.yul\":4514:4568   */\n      tag_143\n        /* \"#utility.yul\":4561:4567   */\n      dup5\n        /* \"#utility.yul\":4556:4559   */\n      dup3\n        /* \"#utility.yul\":4551:4554   */\n      dup6\n        /* \"#utility.yul\":4514:4568   */\n      tag_69\n      jump\t// in\n    tag_143:\n        /* \"#utility.yul\":4233:4574   */\n      pop\n        /* \"#utility.yul\":4149:4574   */\n      swap4\n      swap3\n      pop\n      pop\n      pop\n      jump\t// out\n        /* \"#utility.yul\":4594:4934   */\n    tag_71:\n        /* \"#utility.yul\":4650:4655   */\n      0x00\n        /* \"#utility.yul\":4699:4702   */\n      dup3\n        /* \"#utility.yul\":4692:4696   */\n      0x1f\n        /* \"#utility.yul\":4684:4690   */\n      dup4\n        /* \"#utility.yul\":4680:4697   */\n      add\n        /* \"#utility.yul\":4676:4703   */\n      slt\n        /* \"#utility.yul\":4666:4788   */\n      tag_145\n      jumpi\n        /* \"#utility.yul\":4707:4786   */\n      tag_146\n      tag_63\n      jump\t// in\n    tag_146:\n        /* \"#utility.yul\":4666:4788   */\n    tag_145:\n        /* \"#utility.yul\":4824:4830   */\n      dup2\n        /* \"#utility.yul\":4811:4831   */\n      calldataload\n        /* \"#utility.yul\":4849:4928   */\n      tag_147\n        /* \"#utility.yul\":4924:4927   */\n      dup5\n        /* \"#utility.yul\":4916:4922   */\n      dup3\n        /* \"#utility.yul\":4909:4913   */\n      0x20\n        /* \"#utility.yul\":4901:4907   */\n      dup7\n        /* \"#utility.yul\":4897:4914   */\n      add\n        /* \"#utility.yul\":4849:4928   */\n      tag_70\n      jump\t// in\n    tag_147:\n        /* \"#utility.yul\":4840:4928   */\n      swap2\n      pop\n        /* \"#utility.yul\":4656:4934   */\n      pop\n        /* \"#utility.yul\":4594:4934   */\n      swap3\n      swap2\n      pop\n      pop\n      jump\t// out\n        /* \"#utility.yul\":4940:5594   */\n    tag_27:\n        /* \"#utility.yul\":5018:5024   */\n      0x00\n        /* \"#utility.yul\":5026:5032   */\n      dup1\n        /* \"#utility.yul\":5075:5077   */\n      0x40\n        /* \"#utility.yul\":5063:5072   */\n      dup4\n        /* \"#utility.yul\":5054:5061   */\n      dup6\n        /* \"#utility.yul\":5050:5073   */\n      sub\n        /* \"#utility.yul\":5046:5078   */\n      slt\n        /* \"#utility.yul\":5043:5162   */\n      iszero\n      tag_149\n      jumpi\n        /* \"#utility.yul\":5081:5160   */\n      tag_150\n      tag_54\n      jump\t// in\n    tag_150:\n        /* \"#utility.yul\":5043:5162   */\n    tag_149:\n        /* \"#utility.yul\":5229:5230   */\n      0x00\n        /* \"#utility.yul\":5218:5227   */\n      dup4\n        /* \"#utility.yul\":5214:5231   */\n      add\n        /* \"#utility.yul\":5201:5232   */\n      calldataload\n        /* \"#utility.yul\":5259:5277   */\n      0xffffffffffffffff\n        /* \"#utility.yul\":5251:5257   */\n      dup2\n        /* \"#utility.yul\":5248:5278   */\n      gt\n        /* \"#utility.yul\":5245:5362   */\n      iszero\n      tag_151\n      jumpi\n        /* \"#utility.yul\":5281:5360   */\n      tag_152\n      tag_55\n      jump\t// in\n    tag_152:\n        /* \"#utility.yul\":5245:5362   */\n    tag_151:\n        /* \"#utility.yul\":5386:5449   */\n      tag_153\n        /* \"#utility.yul\":5441:5448   */\n      dup6\n        /* \"#utility.yul\":5432:5438   */\n      dup3\n        /* \"#utility.yul\":5421:5430   */\n      dup7\n        /* \"#utility.yul\":5417:5439   */\n      add\n        /* \"#utility.yul\":5386:5449   */\n      tag_71\n      jump\t// in\n    tag_153:\n        /* \"#utility.yul\":5376:5449   */\n      swap3\n      pop\n        /* \"#utility.yul\":5172:5459   */\n      pop\n        /* \"#utility.yul\":5498:5500   */\n      0x20\n        /* \"#utility.yul\":5524:5577   */\n      tag_154\n        /* \"#utility.yul\":5569:5576   */\n      dup6\n        /* \"#utility.yul\":5560:5566   */\n      dup3\n        /* \"#utility.yul\":5549:5558   */\n      dup7\n        /* \"#utility.yul\":5545:5567   */\n      add\n        /* \"#utility.yul\":5524:5577   */\n      tag_57\n      jump\t// in\n    tag_154:\n        /* \"#utility.yul\":5514:5577   */\n      swap2\n      pop\n        /* \"#utility.yul\":5469:5587   */\n      pop\n        /* \"#utility.yul\":4940:5594   */\n      swap3\n      pop\n      swap3\n      swap1\n      pop\n      jump\t// out\n        /* \"#utility.yul\":5600:6109   */\n    tag_31:\n        /* \"#utility.yul\":5669:5675   */\n      0x00\n        /* \"#utility.yul\":5718:5720   */\n      0x20\n        /* \"#utility.yul\":5706:5715   */\n      dup3\n        /* \"#utility.yul\":5697:5704   */\n      dup5\n        /* \"#utility.yul\":5693:5716   */\n      sub\n        /* \"#utility.yul\":5689:5721   */\n      slt\n        /* \"#utility.yul\":5686:5805   */\n      iszero\n      tag_156\n      jumpi\n        /* \"#utility.yul\":5724:5803   */\n      tag_157\n      tag_54\n      jump\t// in\n    tag_157:\n        /* \"#utility.yul\":5686:5805   */\n    tag_156:\n        /* \"#utility.yul\":5872:5873   */\n      0x00\n        /* \"#utility.yul\":5861:5870   */\n      dup3\n        /* \"#utility.yul\":5857:5874   */\n      add\n        /* \"#utility.yul\":5844:5875   */\n      calldataload\n        /* \"#utility.yul\":5902:5920   */\n      0xffffffffffffffff\n        /* \"#utility.yul\":5894:5900   */\n      dup2\n        /* \"#utility.yul\":5891:5921   */\n      gt\n        /* \"#utility.yul\":5888:6005   */\n      iszero\n      tag_158\n      jumpi\n        /* \"#utility.yul\":5924:6003   */\n      tag_159\n      tag_55\n      jump\t// in\n    tag_159:\n        /* \"#utility.yul\":5888:6005   */\n    tag_158:\n        /* \"#utility.yul\":6029:6092   */\n      tag_160\n        /* \"#utility.yul\":6084:6091   */\n      dup5\n        /* \"#utility.yul\":6075:6081   */\n      dup3\n        /* \"#utility.yul\":6064:6073   */\n      dup6\n        /* \"#utility.yul\":6060:6082   */\n      add\n        /* \"#utility.yul\":6029:6092   */\n      tag_71\n      jump\t// in\n    tag_160:\n        /* \"#utility.yul\":6019:6092   */\n      swap2\n      pop\n        /* \"#utility.yul\":5815:6102   */\n      pop\n        /* \"#utility.yul\":5600:6109   */\n      swap3\n      swap2\n      pop\n      pop\n      jump\t// out\n        /* \"#utility.yul\":6115:6295   */\n    tag_72:\n        /* \"#utility.yul\":6163:6240   */\n      0x4e487b7100000000000000000000000000000000000000000000000000000000\n        /* \"#utility.yul\":6160:6161   */\n      0x00\n        /* \"#utility.yul\":6153:6241   */\n      mstore\n        /* \"#utility.yul\":6260:6264   */\n      0x22\n        /* \"#utility.yul\":6257:6258   */\n      0x04\n        /* \"#utility.yul\":6250:6265   */\n      mstore\n        /* \"#utility.yul\":6284:6288   */\n      0x24\n        /* \"#utility.yul\":6281:6282   */\n      0x00\n        /* \"#utility.yul\":6274:6289   */\n      revert\n        /* \"#utility.yul\":6301:6621   */\n    tag_38:\n        /* \"#utility.yul\":6345:6351   */\n      0x00\n        /* \"#utility.yul\":6382:6383   */\n      0x02\n        /* \"#utility.yul\":6376:6380   */\n      dup3\n        /* \"#utility.yul\":6372:6384   */\n      div\n        /* \"#utility.yul\":6362:6384   */\n      swap1\n      pop\n        /* \"#utility.yul\":6429:6430   */\n      0x01\n        /* \"#utility.yul\":6423:6427   */\n      dup3\n        /* \"#utility.yul\":6419:6431   */\n      and\n        /* \"#utility.yul\":6450:6468   */\n      dup1\n        /* \"#utility.yul\":6440:6521   */\n      tag_163\n      jumpi\n        /* \"#utility.yul\":6506:6510   */\n      0x7f\n        /* \"#utility.yul\":6498:6504   */\n      dup3\n        /* \"#utility.yul\":6494:6511   */\n      and\n        /* \"#utility.yul\":6484:6511   */\n      swap2\n      pop\n        /* \"#utility.yul\":6440:6521   */\n    tag_163:\n        /* \"#utility.yul\":6568:6570   */\n      0x20\n        /* \"#utility.yul\":6560:6566   */\n      dup3\n        /* \"#utility.yul\":6557:6571   */\n      lt\n        /* \"#utility.yul\":6537:6555   */\n      dup2\n        /* \"#utility.yul\":6534:6572   */\n      sub\n        /* \"#utility.yul\":6531:6615   */\n      tag_164\n      jumpi\n        /* \"#utility.yul\":6587:6605   */\n      tag_165\n      tag_72\n      jump\t// in\n    tag_165:\n        /* \"#utility.yul\":6531:6615   */\n    tag_164:\n        /* \"#utility.yul\":6352:6621   */\n      pop\n        /* \"#utility.yul\":6301:6621   */\n      swap2\n      swap1\n      pop\n      jump\t// out\n        /* \"#utility.yul\":6627:6775   */\n    tag_73:\n        /* \"#utility.yul\":6729:6740   */\n      0x00\n        /* \"#utility.yul\":6766:6769   */\n      dup2\n        /* \"#utility.yul\":6751:6769   */\n      swap1\n      pop\n        /* \"#utility.yul\":6627:6775   */\n      swap3\n      swap2\n      pop\n      pop\n      jump\t// out\n        /* \"#utility.yul\":6781:7171   */\n    tag_74:\n        /* \"#utility.yul\":6887:6890   */\n      0x00\n        /* \"#utility.yul\":6915:6954   */\n      tag_168\n        /* \"#utility.yul\":6948:6953   */\n      dup3\n        /* \"#utility.yul\":6915:6954   */\n      tag_58\n      jump\t// in\n    tag_168:\n        /* \"#utility.yul\":6970:7059   */\n      tag_169\n        /* \"#utility.yul\":7052:7058   */\n      dup2\n        /* \"#utility.yul\":7047:7050   */\n      dup6\n        /* \"#utility.yul\":6970:7059   */\n      tag_73\n      jump\t// in\n    tag_169:\n        /* \"#utility.yul\":6963:7059   */\n      swap4\n      pop\n        /* \"#utility.yul\":7068:7133   */\n      tag_170\n        /* \"#utility.yul\":7126:7132   */\n      dup2\n        /* \"#utility.yul\":7121:7124   */\n      dup6\n        /* \"#utility.yul\":7114:7118   */\n      0x20\n        /* \"#utility.yul\":7107:7112   */\n      dup7\n        /* \"#utility.yul\":7103:7119   */\n      add\n        /* \"#utility.yul\":7068:7133   */\n      tag_60\n      jump\t// in\n    tag_170:\n        /* \"#utility.yul\":7158:7164   */\n      dup1\n        /* \"#utility.yul\":7153:7156   */\n      dup5\n        /* \"#utility.yul\":7149:7165   */\n      add\n        /* \"#utility.yul\":7142:7165   */\n      swap2\n      pop\n        /* \"#utility.yul\":6891:7171   */\n      pop\n        /* \"#utility.yul\":6781:7171   */\n      swap3\n      swap2\n      pop\n      pop\n      jump\t// out\n        /* \"#utility.yul\":7177:7452   */\n    tag_47:\n        /* \"#utility.yul\":7309:7312   */\n      0x00\n        /* \"#utility.yul\":7331:7426   */\n      tag_172\n        /* \"#utility.yul\":7422:7425   */\n      dup3\n        /* \"#utility.yul\":7413:7419   */\n      dup5\n        /* \"#utility.yul\":7331:7426   */\n      tag_74\n      jump\t// in\n    tag_172:\n        /* \"#utility.yul\":7324:7426   */\n      swap2\n      pop\n        /* \"#utility.yul\":7443:7446   */\n      dup2\n        /* \"#utility.yul\":7436:7446   */\n      swap1\n      pop\n        /* \"#utility.yul\":7177:7452   */\n      swap3\n      swap2\n      pop\n      pop\n      jump\t// out\n        /* \"#utility.yul\":7458:7599   */\n    tag_75:\n        /* \"#utility.yul\":7507:7511   */\n      0x00\n        /* \"#utility.yul\":7530:7533   */\n      dup2\n        /* \"#utility.yul\":7522:7533   */\n      swap1\n      pop\n        /* \"#utility.yul\":7553:7556   */\n      dup2\n        /* \"#utility.yul\":7550:7551   */\n      0x00\n        /* \"#utility.yul\":7543:7557   */\n      mstore\n        /* \"#utility.yul\":7587:7591   */\n      0x20\n        /* \"#utility.yul\":7584:7585   */\n      0x00\n        /* \"#utility.yul\":7574:7592   */\n      keccak256\n        /* \"#utility.yul\":7566:7592   */\n      swap1\n      pop\n        /* \"#utility.yul\":7458:7599   */\n      swap2\n      swap1\n      pop\n      jump\t// out\n        /* \"#utility.yul\":7605:7698   */\n    tag_76:\n        /* \"#utility.yul\":7642:7648   */\n      0x00\n        /* \"#utility.yul\":7689:7691   */\n      0x20\n        /* \"#utility.yul\":7684:7686   */\n      0x1f\n        /* \"#utility.yul\":7677:7682   */\n      dup4\n        /* \"#utility.yul\":7673:7687   */\n      add\n        /* \"#utility.yul\":7669:7692   */\n      div\n        /* \"#utility.yul\":7659:7692   */\n      swap1\n      pop\n        /* \"#utility.yul\":7605:7698   */\n      swap2\n      swap1\n      pop\n      jump\t// out\n        /* \"#utility.yul\":7704:7811   */\n    tag_77:\n        /* \"#utility.yul\":7748:7756   */\n      0x00\n        /* \"#utility.yul\":7798:7803   */\n      dup3\n        /* \"#utility.yul\":7792:7796   */\n      dup3\n        /* \"#utility.yul\":7788:7804   */\n      shl\n        /* \"#utility.yul\":7767:7804   */\n      swap1\n      pop\n        /* \"#utility.yul\":7704:7811   */\n      swap3\n      swap2\n      pop\n      pop\n      jump\t// out\n        /* \"#utility.yul\":7817:8210   */\n    tag_78:\n        /* \"#utility.yul\":7886:7892   */\n      0x00\n        /* \"#utility.yul\":7936:7937   */\n      0x08\n        /* \"#utility.yul\":7924:7934   */\n      dup4\n        /* \"#utility.yul\":7920:7938   */\n      mul\n        /* \"#utility.yul\":7959:8056   */\n      tag_177\n        /* \"#utility.yul\":7989:8055   */\n      0xffffffffffffffffffffffffffffffffffffffffffffffffffffffffffffffff\n        /* \"#utility.yul\":7978:7987   */\n      dup3\n        /* \"#utility.yul\":7959:8056   */\n      tag_77\n      jump\t// in\n    tag_177:\n        /* \"#utility.yul\":8077:8116   */\n      tag_178\n        /* \"#utility.yul\":8107:8115   */\n      dup7\n        /* \"#utility.yul\":8096:8105   */\n      dup4\n        /* \"#utility.yul\":8077:8116   */\n      tag_77\n      jump\t// in\n    tag_178:\n        /* \"#utility.yul\":8065:8116   */\n      swap6\n      pop\n        /* \"#utility.yul\":8149:8153   */\n      dup1\n        /* \"#utility.yul\":8145:8154   */\n      not\n        /* \"#utility.yul\":8138:8143   */\n      dup5\n        /* \"#utility.yul\":8134:8155   */\n      and\n        /* \"#utility.yul\":8125:8155   */\n      swap4\n      pop\n        /* \"#utility.yul\":8198:8202   */\n      dup1\n        /* \"#utility.yul\":8188:8196   */\n      dup7\n        /* \"#utility.yul\":8184:8203   */\n      and\n        /* \"#utility.yul\":8177:8182   */\n      dup5\n        /* \"#utility.yul\":8174:8204   */\n      or\n        /* \"#utility.yul\":8164:8204   */\n      swap3\n      pop\n        /* \"#utility.yul\":7893:8210   */\n      pop\n      pop\n        /* \"#utility.yul\":7817:8210   */\n      swap4\n      swap3\n      pop\n      pop\n      pop\n      jump\t// out\n        /* \"#utility.yul\":8216:8276   */\n    tag_79:\n        /* \"#utility.yul\":8244:8247   */\n      0x00\n        /* \"#utility.yul\":8265:8270   */\n      dup2\n        /* \"#utility.yul\":8258:8270   */\n      swap1\n      pop\n        /* \"#utility.yul\":8216:8276   */\n      swap2\n      swap1\n      pop\n      jump\t// out\n        /* \"#utility.yul\":8282:8424   */\n    tag_80:\n        /* \"#utility.yul\":8332:8341   */\n      0x00\n        /* \"#utility.yul\":8365:8418   */\n      tag_181\n        /* \"#utility.yul\":8383:8417   */\n      tag_182\n        /* \"#utility.yul\":8392:8416   */\n      tag_183\n        /* \"#utility.yul\":8410:8415   */\n      dup5\n        /* \"#utility.yul\":8392:8416   */\n      tag_51\n      jump\t// in\n    tag_183:\n        /* \"#utility.yul\":8383:8417   */\n      tag_79\n      jump\t// in\n    tag_182:\n        /* \"#utility.yul\":8365:8418   */\n      tag_51\n      jump\t// in\n    tag_181:\n        /* \"#utility.yul\":8352:8418   */\n      swap1\n      pop\n        /* \"#utility.yul\":8282:8424   */\n      swap2\n      swap1\n      pop\n      jump\t// out\n        /* \"#utility.yul\":8430:8505   */\n    tag_81:\n        /* \"#utility.yul\":8473:8476   */\n      0x00\n        /* \"#utility.yul\":8494:8499   */\n      dup2\n        /* \"#utility.yul\":8487:8499   */\n      swap1\n      pop\n        /* \"#utility.yul\":8430:8505   */\n      swap2\n      swap1\n      pop\n      jump\t// out\n        /* \"#utility.yul\":8511:8780   */\n    tag_82:\n        /* \"#utility.yul\":8621:8660   */\n      tag_186\n        /* \"#utility.yul\":8652:8659   */\n      dup4\n        /* \"#utility.yul\":8621:8660   */\n      tag_80\n      jump\t// in\n    tag_186:\n        /* \"#utility.yul\":8682:8773   */\n      tag_187\n        /* \"#utility.yul\":8731:8772   */\n      tag_188\n        /* \"#utility.yul\":8755:8771   */\n      dup3\n        /* \"#utility.yul\":8731:8772   */\n      tag_81\n      jump\t// in\n    tag_188:\n        /* \"#utility.yul\":8723:8729   */\n      dup5\n        /* \"#utility.yul\":8716:8720   */\n      dup5\n        /* \"#utility.yul\":8710:8721   */\n      sload\n        /* \"#utility.yul\":8682:8773   */\n      tag_78\n      jump\t// in\n    tag_187:\n        /* \"#utility.yul\":8676:8680   */\n      dup3\n        /* \"#utility.yul\":8669:8774   */\n      sstore\n        /* \"#utility.yul\":8587:8780   */\n      pop\n        /* \"#utility.yul\":8511:8780   */\n      pop\n      pop\n      pop\n      jump\t// out\n        /* \"#utility.yul\":8786:8859   */\n    tag_83:\n        /* \"#utility.yul\":8831:8834   */\n      0x00\n        /* \"#utility.yul\":8786:8859   */\n      swap1\n      jump\t// out\n        /* \"#utility.yul\":8865:9054   */\n    tag_84:\n        /* \"#utility.yul\":8942:8974   */\n      tag_191\n      tag_83\n      jump\t// in\n    tag_191:\n        /* \"#utility.yul\":8983:9048   */\n      tag_192\n        /* \"#utility.yul\":9041:9047   */\n      dup2\n        /* \"#utility.yul\":9033:9039   */\n      dup5\n        /* \"#utility.yul\":9027:9031   */\n      dup5\n        /* \"#utility.yul\":8983:9048   */\n      tag_82\n      jump\t// in\n    tag_192:\n        /* \"#utility.yul\":8918:9054   */\n      pop\n        /* \"#utility.yul\":8865:9054   */\n      pop\n      pop\n      jump\t// out\n        /* \"#utility.yul\":9060:9246   */\n    tag_85:\n        /* \"#utility.yul\":9120:9240   */\n    tag_194:\n        /* \"#utility.yul\":9137:9140   */\n      dup2\n        /* \"#utility.yul\":9130:9135   */\n      dup2\n        /* \"#utility.yul\":9127:9141   */\n      lt\n        /* \"#utility.yul\":9120:9240   */\n      iszero\n      tag_196\n      jumpi\n        /* \"#utility.yul\":9191:9230   */\n      tag_197\n        /* \"#utility.yul\":9228:9229   */\n      0x00\n        /* \"#utility.yul\":9221:9226   */\n      dup3\n        /* \"#utility.yul\":9191:9230   */\n      tag_84\n      jump\t// in\n    tag_197:\n        /* \"#utility.yul\":9164:9165   */\n      0x01\n        /* \"#utility.yul\":9157:9162   */\n      dup2\n        /* \"#utility.yul\":9153:9166   */\n      add\n        /* \"#utility.yul\":9144:9166   */\n      swap1\n      pop\n        /* \"#utility.yul\":9120:9240   */\n      jump(tag_194)\n    tag_196:\n        /* \"#utility.yul\":9060:9246   */\n      pop\n      pop\n      jump\t// out\n        /* \"#utility.yul\":9252:9795   */\n    tag_86:\n        /* \"#utility.yul\":9353:9355   */\n      0x1f\n        /* \"#utility.yul\":9348:9351   */\n      dup3\n        /* \"#utility.yul\":9345:9356   */\n      gt\n        /* \"#utility.yul\":9342:9788   */\n      iszero\n      tag_199\n      jumpi\n        /* \"#utility.yul\":9387:9425   */\n      tag_200\n        /* \"#utility.yul\":9419:9424   */\n      dup2\n        /* \"#utility.yul\":9387:9425   */\n      tag_75\n      jump\t// in\n    tag_200:\n        /* \"#utility.yul\":9471:9500   */\n      tag_201\n        /* \"#utility.yul\":9489:9499   */\n      dup5\n        /* \"#utility.yul\":9471:9500   */\n      tag_76\n      jump\t// in\n    tag_201:\n        /* \"#utility.yul\":9461:9469   */\n      dup2\n        /* \"#utility.yul\":9457:9501   */\n      add\n        /* \"#utility.yul\":9654:9656   */\n      0x20\n        /* \"#utility.yul\":9642:9652   */\n      dup6\n        /* \"#utility.yul\":9639:9657   */\n      lt\n        /* \"#utility.yul\":9636:9685   */\n      iszero\n      tag_202\n      jumpi\n        /* \"#utility.yul\":9675:9683   */\n      dup2\n        /* \"#utility.yul\":9660:9683   */\n      swap1\n      pop\n        /* \"#utility.yul\":9636:9685   */\n    tag_202:\n        /* \"#utility.yul\":9698:9778   */\n      tag_203\n        /* \"#utility.yul\":9754:9776   */\n      tag_204\n        /* \"#utility.yul\":9772:9775   */\n      dup6\n        /* \"#utility.yul\":9754:9776   */\n      tag_76\n      jump\t// in\n    tag_204:\n        /* \"#utility.yul\":9744:9752   */\n      dup4\n        /* \"#utility.yul\":9740:9777   */\n      add\n        /* \"#utility.yul\":9727:9738   */\n      dup3\n        /* \"#utility.yul\":9698:9778   */\n      tag_85\n      jump\t// in\n    tag_203:\n        /* \"#utility.yul\":9357:9788   */\n      pop\n      pop\n        /* \"#utility.yul\":9342:9788   */\n    tag_199:\n        /* \"#utility.yul\":9252:9795   */\n      pop\n      pop\n      pop\n      jump\t// out\n        /* \"#utility.yul\":9801:9918   */\n    tag_87:\n        /* \"#utility.yul\":9855:9863   */\n      0x00\n        /* \"#utility.yul\":9905:9910   */\n      dup3\n        /* \"#utility.yul\":9899:9903   */\n      dup3\n        /* \"#utility.yul\":9895:9911   */\n      shr\n        /* \"#utility.yul\":9874:9911   */\n      swap1\n      pop\n        /* \"#utility.yul\":9801:9918   */\n      swap3\n      swap2\n      pop\n      pop\n      jump\t// out\n        /* \"#utility.yul\":9924:10093   */\n    tag_88:\n        /* \"#utility.yul\":9968:9974   */\n      0x00\n        /* \"#utility.yul\":10001:10052   */\n      tag_207\n        /* \"#utility.yul\":10049:10050   */\n      0x00\n        /* \"#utility.yul\":10045:10051   */\n      not\n        /* \"#utility.yul\":10037:10042   */\n      dup5\n        /* \"#utility.yul\":10034:10035   */\n      0x08\n        /* \"#utility.yul\":10030:10043   */\n      mul\n        /* \"#utility.yul\":10001:10052   */\n      tag_87\n      jump\t// in\n    tag_207:\n        /* \"#utility.yul\":9997:10053   */\n      not\n        /* \"#utility.yul\":10082:10086   */\n      dup1\n        /* \"#utility.yul\":10076:10080   */\n      dup4\n        /* \"#utility.yul\":10072:10087   */\n      and\n        /* \"#utility.yul\":10062:10087   */\n      swap2\n      pop\n        /* \"#utility.yul\":9975:10093   */\n      pop\n        /* \"#utility.yul\":9924:10093   */\n      swap3\n      swap2\n      pop\n      pop\n      jump\t// out\n        /* \"#utility.yul\":10098:10393   */\n    tag_89:\n        /* \"#utility.yul\":10174:10178   */\n      0x00\n        /* \"#utility.yul\":10320:10349   */\n      tag_209\n        /* \"#utility.yul\":10345:10348   */\n      dup4\n        /* \"#utility.yul\":10339:10343   */\n      dup4\n        /* \"#utility.yul\":10320:10349   */\n      tag_88\n      jump\t// in\n    tag_209:\n        /* \"#utility.yul\":10312:10349   */\n      swap2\n      pop\n        /* \"#utility.yul\":10382:10385   */\n      dup3\n        /* \"#utility.yul\":10379:10380   */\n      0x02\n        /* \"#utility.yul\":10375:10386   */\n      mul\n        /* \"#utility.yul\":10369:10373   */\n      dup3\n        /* \"#utility.yul\":10366:10387   */\n      or\n        /* \"#utility.yul\":10358:10387   */\n      swap1\n      pop\n        /* \"#utility.yul\":10098:10393   */\n      swap3\n      swap2\n      pop\n      pop\n      jump\t// out\n        /* \"#utility.yul\":10398:11793   */\n    tag_50:\n        /* \"#utility.yul\":10515:10552   */\n      tag_211\n        /* \"#utility.yul\":10548:10551   */\n      dup3\n        /* \"#utility.yul\":10515:10552   */\n      tag_58\n      jump\t// in\n    tag_211:\n        /* \"#utility.yul\":10617:10635   */\n      0xffffffffffffffff\n        /* \"#utility.yul\":10609:10615   */\n      dup2\n        /* \"#utility.yul\":10606:10636   */\n      gt\n        /* \"#utility.yul\":10603:10659   */\n      iszero\n      tag_212\n      jumpi\n        /* \"#utility.yul\":10639:10657   */\n      tag_213\n      tag_65\n      jump\t// in\n    tag_213:\n        /* \"#utility.yul\":10603:10659   */\n    tag_212:\n        /* \"#utility.yul\":10683:10721   */\n      tag_214\n        /* \"#utility.yul\":10715:10719   */\n      dup3\n        /* \"#utility.yul\":10709:10720   */\n      sload\n        /* \"#utility.yul\":10683:10721   */\n      tag_38\n      jump\t// in\n    tag_214:\n        /* \"#utility.yul\":10768:10835   */\n      tag_215\n        /* \"#utility.yul\":10828:10834   */\n      dup3\n        /* \"#utility.yul\":10820:10826   */\n      dup3\n        /* \"#utility.yul\":10814:10818   */\n      dup6\n        /* \"#utility.yul\":10768:10835   */\n      tag_86\n      jump\t// in\n    tag_215:\n        /* \"#utility.yul\":10862:10863   */\n      0x00\n        /* \"#utility.yul\":10886:10890   */\n      0x20\n        /* \"#utility.yul\":10873:10890   */\n      swap1\n      pop\n        /* \"#utility.yul\":10918:10920   */\n      0x1f\n        /* \"#utility.yul\":10910:10916   */\n      dup4\n        /* \"#utility.yul\":10907:10921   */\n      gt\n        /* \"#utility.yul\":10935:10936   */\n      0x01\n        /* \"#utility.yul\":10930:11548   */\n      dup2\n      eq\n      tag_217\n      jumpi\n        /* \"#utility.yul\":11592:11593   */\n      0x00\n        /* \"#utility.yul\":11609:11615   */\n      dup5\n        /* \"#utility.yul\":11606:11683   */\n      iszero\n      tag_218\n      jumpi\n        /* \"#utility.yul\":11658:11667   */\n      dup3\n        /* \"#utility.yul\":11653:11656   */\n      dup8\n        /* \"#utility.yul\":11649:11668   */\n      add\n        /* \"#utility.yul\":11643:11669   */\n      mload\n        /* \"#utility.yul\":11634:11669   */\n      swap1\n      pop\n        /* \"#utility.yul\":11606:11683   */\n    tag_218:\n        /* \"#utility.yul\":11709:11776   */\n      tag_219\n        /* \"#utility.yul\":11769:11775   */\n      dup6\n        /* \"#utility.yul\":11762:11767   */\n      dup3\n        /* \"#utility.yul\":11709:11776   */\n      tag_89\n      jump\t// in\n    tag_219:\n        /* \"#utility.yul\":11703:11707   */\n      dup7\n        /* \"#utility.yul\":11696:11777   */\n      sstore\n        /* \"#utility.yul\":11565:11787   */\n      pop\n        /* \"#utility.yul\":10900:11787   */\n      jump(tag_216)\n        /* \"#utility.yul\":10930:11548   */\n    tag_217:\n        /* \"#utility.yul\":10982:10986   */\n      0x1f\n        /* \"#utility.yul\":10978:10987   */\n      not\n        /* \"#utility.yul\":10970:10976   */\n      dup5\n        /* \"#utility.yul\":10966:10988   */\n      and\n        /* \"#utility.yul\":11016:11053   */\n      tag_220\n        /* \"#utility.yul\":11048:11052   */\n      dup7\n        /* \"#utility.yul\":11016:11053   */\n      tag_75\n      jump\t// in\n    tag_220:\n        /* \"#utility.yul\":11075:11076   */\n      0x00\n        /* \"#utility.yul\":11089:11297   */\n    tag_221:\n        /* \"#utility.yul\":11103:11110   */\n      dup3\n        /* \"#utility.yul\":11100:11101   */\n      dup2\n        /* \"#utility.yul\":11097:11111   */\n      lt\n        /* \"#utility.yul\":11089:11297   */\n      iszero\n      tag_223\n      jumpi\n        /* \"#utility.yul\":11182:11191   */\n      dup5\n        /* \"#utility.yul\":11177:11180   */\n      dup10\n        /* \"#utility.yul\":11173:11192   */\n      add\n        /* \"#utility.yul\":11167:11193   */\n      mload\n        /* \"#utility.yul\":11159:11165   */\n      dup3\n        /* \"#utility.yul\":11152:11194   */\n      sstore\n        /* \"#utility.yul\":11233:11234   */\n      0x01\n        /* \"#utility.yul\":11225:11231   */\n      dup3\n        /* \"#utility.yul\":11221:11235   */\n      add\n        /* \"#utility.yul\":11211:11235   */\n      swap2\n      pop\n        /* \"#utility.yul\":11280:11282   */\n      0x20\n        /* \"#utility.yul\":11269:11278   */\n      dup6\n        /* \"#utility.yul\":11265:11283   */\n      add\n        /* \"#utility.yul\":11252:11283   */\n      swap5\n      pop\n        /* \"#utility.yul\":11126:11130   */\n      0x20\n        /* \"#utility.yul\":11123:11124   */\n      dup2\n        /* \"#utility.yul\":11119:11131   */\n      add\n        /* \"#utility.yul\":11114:11131   */\n      swap1\n      pop\n        /* \"#utility.yul\":11089:11297   */\n      jump(tag_221)\n    tag_223:\n        /* \"#utility.yul\":11325:11331   */\n      dup7\n        /* \"#utility.yul\":11316:11323   */\n      dup4\n        /* \"#utility.yul\":11313:11332   */\n      lt\n        /* \"#utility.yul\":11310:11489   */\n      iszero\n      tag_224\n      jumpi\n        /* \"#utility.yul\":11383:11392   */\n      dup5\n        /* \"#utility.yul\":11378:11381   */\n      dup10\n        /* \"#utility.yul\":11374:11393   */\n      add\n        /* \"#utility.yul\":11368:11394   */\n      mload\n        /* \"#utility.yul\":11426:11474   */\n      tag_225\n        /* \"#utility.yul\":11468:11472   */\n      0x1f\n        /* \"#utility.yul\":11460:11466   */\n      dup10\n        /* \"#utility.yul\":11456:11473   */\n      and\n        /* \"#utility.yul\":11445:11454   */\n      dup3\n        /* \"#utility.yul\":11426:11474   */\n      tag_88\n      jump\t// in\n    tag_225:\n        /* \"#utility.yul\":11418:11424   */\n      dup4\n        /* \"#utility.yul\":11411:11475   */\n      sstore\n        /* \"#utility.yul\":11333:11489   */\n      pop\n        /* \"#utility.yul\":11310:11489   */\n    tag_224:\n        /* \"#utility.yul\":11535:11536   */\n      0x01\n        /* \"#utility.yul\":11531:11532   */\n      0x02\n        /* \"#utility.yul\":11523:11529   */\n      dup9\n        /* \"#utility.yul\":11519:11533   */\n      mul\n        /* \"#utility.yul\":11515:11537   */\n      add\n        /* \"#utility.yul\":11509:11513   */\n      dup9\n        /* \"#utility.yul\":11502:11538   */\n      sstore\n        /* \"#utility.yul\":10937:11548   */\n      pop\n      pop\n      pop\n        /* \"#utility.yul\":10900:11787   */\n    tag_216:\n      pop\n        /* \"#utility.yul\":10490:11793   */\n      pop\n      pop\n      pop\n        /* \"#utility.yul\":10398:11793   */\n      pop\n      pop\n      jump\t// out\n\n    auxdata: 0xa264697066735822122019d4850d80060b70e2b5e5188e789c5a3b7cf85f959558f5295d0ec2d97be24864736f6c63430008180033\n}\n",
				"bytecode": {
					"linkReferences": {},
					"object": "608060405234801561000f575f80fd5b506109298061001d5f395ff3fe608060405234801561000f575f80fd5b5060043610610060575f3560e01c80632e64cec1146100645780632ebce631146100825780633bc035d2146100b35780636057361d146100d15780636f760f41146100ed578063b2ac62ef14610109575b5f80fd5b61006c610139565b60405161007991906102d6565b60405180910390f35b61009c6004803603810190610097919061032a565b610141565b6040516100aa9291906103df565b60405180910390f35b6100bb6101f6565b6040516100c891906102d6565b60405180910390f35b6100eb60048036038101906100e6919061032a565b6101fb565b005b61010760048036038101906101029190610539565b61020d565b005b610123600480360381019061011e9190610593565b610291565b60405161013091906102d6565b60405180910390f35b5f8054905090565b60028181548110610150575f80fd5b905f5260205f2090600202015f91509050805f01549080600101805461017590610607565b80601f01602080910402602001604051908101604052809291908181526020018280546101a190610607565b80156101ec5780601f106101c3576101008083540402835291602001916101ec565b820191905f5260205f20905b8154815290600101906020018083116101cf57829003601f168201915b5050505050905082565b5f5481565b805f81905550610209610139565b5050565b8060038360405161021e9190610671565b9081526020016040518091039020819055506002604051806040016040528083815260200184815250908060018154018082558091505060019003905f5260205f2090600202015f909190919091505f820151815f0155602082015181600101908161028a9190610824565b5050505050565b6003818051602081018201805184825260208301602085012081835280955050505050505f915090505481565b5f819050919050565b6102d0816102be565b82525050565b5f6020820190506102e95f8301846102c7565b92915050565b5f604051905090565b5f80fd5b5f80fd5b610309816102be565b8114610313575f80fd5b50565b5f8135905061032481610300565b92915050565b5f6020828403121561033f5761033e6102f8565b5b5f61034c84828501610316565b91505092915050565b5f81519050919050565b5f82825260208201905092915050565b5f5b8381101561038c578082015181840152602081019050610371565b5f8484015250505050565b5f601f19601f8301169050919050565b5f6103b182610355565b6103bb818561035f565b93506103cb81856020860161036f565b6103d481610397565b840191505092915050565b5f6040820190506103f25f8301856102c7565b818103602083015261040481846103a7565b90509392505050565b5f80fd5b5f80fd5b7f4e487b71000000000000000000000000000000000000000000000000000000005f52604160045260245ffd5b61044b82610397565b810181811067ffffffffffffffff8211171561046a57610469610415565b5b80604052505050565b5f61047c6102ef565b90506104888282610442565b919050565b5f67ffffffffffffffff8211156104a7576104a6610415565b5b6104b082610397565b9050602081019050919050565b828183375f83830152505050565b5f6104dd6104d88461048d565b610473565b9050828152602081018484840111156104f9576104f8610411565b5b6105048482856104bd565b509392505050565b5f82601f8301126105205761051f61040d565b5b81356105308482602086016104cb565b91505092915050565b5f806040838503121561054f5761054e6102f8565b5b5f83013567ffffffffffffffff81111561056c5761056b6102fc565b5b6105788582860161050c565b925050602061058985828601610316565b9150509250929050565b5f602082840312156105a8576105a76102f8565b5b5f82013567ffffffffffffffff8111156105c5576105c46102fc565b5b6105d18482850161050c565b91505092915050565b7f4e487b71000000000000000000000000000000000000000000000000000000005f52602260045260245ffd5b5f600282049050600182168061061e57607f821691505b602082108103610631576106306105da565b5b50919050565b5f81905092915050565b5f61064b82610355565b6106558185610637565b935061066581856020860161036f565b80840191505092915050565b5f61067c8284610641565b915081905092915050565b5f819050815f5260205f209050919050565b5f6020601f8301049050919050565b5f82821b905092915050565b5f600883026106e37fffffffffffffffffffffffffffffffffffffffffffffffffffffffffffffffff826106a8565b6106ed86836106a8565b95508019841693508086168417925050509392505050565b5f819050919050565b5f61072861072361071e846102be565b610705565b6102be565b9050919050565b5f819050919050565b6107418361070e565b61075561074d8261072f565b8484546106b4565b825550505050565b5f90565b61076961075d565b610774818484610738565b505050565b5b818110156107975761078c5f82610761565b60018101905061077a565b5050565b601f8211156107dc576107ad81610687565b6107b684610699565b810160208510156107c5578190505b6107d96107d185610699565b830182610779565b50505b505050565b5f82821c905092915050565b5f6107fc5f19846008026107e1565b1980831691505092915050565b5f61081483836107ed565b9150826002028217905092915050565b61082d82610355565b67ffffffffffffffff81111561084657610845610415565b5b6108508254610607565b61085b82828561079b565b5f60209050601f83116001811461088c575f841561087a578287015190505b6108848582610809565b8655506108eb565b601f19841661089a86610687565b5f5b828110156108c15784890151825560018201915060208501945060208101905061089c565b868310156108de57848901516108da601f8916826107ed565b8355505b6001600288020188555050505b50505050505056fea264697066735822122019d4850d80060b70e2b5e5188e789c5a3b7cf85f959558f5295d0ec2d97be24864736f6c63430008180033",
					"opcodes": "PUSH1 0x80 PUSH1 0x40 MSTORE CALLVALUE DUP1 ISZERO PUSH2 0xF JUMPI PUSH0 DUP1 REVERT JUMPDEST POP PUSH2 0x929 DUP1 PUSH2 0x1D PUSH0 CODECOPY PUSH0 RETURN INVALID PUSH1 0x80 PUSH1 0x40 MSTORE CALLVALUE DUP1 ISZERO PUSH2 0xF JUMPI PUSH0 DUP1 REVERT JUMPDEST POP PUSH1 0x4 CALLDATASIZE LT PUSH2 0x60 JUMPI PUSH0 CALLDATALOAD PUSH1 0xE0 SHR DUP1 PUSH4 0x2E64CEC1 EQ PUSH2 0x64 JUMPI DUP1 PUSH4 0x2EBCE631 EQ PUSH2 0x82 JUMPI DUP1 PUSH4 0x3BC035D2 EQ PUSH2 0xB3 JUMPI DUP1 PUSH4 0x6057361D EQ PUSH2 0xD1 JUMPI DUP1 PUSH4 0x6F760F41 EQ PUSH2 0xED JUMPI DUP1 PUSH4 0xB2AC62EF EQ PUSH2 0x109 JUMPI JUMPDEST PUSH0 DUP1 REVERT JUMPDEST PUSH2 0x6C PUSH2 0x139 JUMP JUMPDEST PUSH1 0x40 MLOAD PUSH2 0x79 SWAP2 SWAP1 PUSH2 0x2D6 JUMP JUMPDEST PUSH1 0x40 MLOAD DUP1 SWAP2 SUB SWAP1 RETURN JUMPDEST PUSH2 0x9C PUSH1 0x4 DUP1 CALLDATASIZE SUB DUP2 ADD SWAP1 PUSH2 0x97 SWAP2 SWAP1 PUSH2 0x32A JUMP JUMPDEST PUSH2 0x141 JUMP JUMPDEST PUSH1 0x40 MLOAD PUSH2 0xAA SWAP3 SWAP2 SWAP1 PUSH2 0x3DF JUMP JUMPDEST PUSH1 0x40 MLOAD DUP1 SWAP2 SUB SWAP1 RETURN JUMPDEST PUSH2 0xBB PUSH2 0x1F6 JUMP JUMPDEST PUSH1 0x40 MLOAD PUSH2 0xC8 SWAP2 SWAP1 PUSH2 0x2D6 JUMP JUMPDEST PUSH1 0x40 MLOAD DUP1 SWAP2 SUB SWAP1 RETURN JUMPDEST PUSH2 0xEB PUSH1 0x4 DUP1 CALLDATASIZE SUB DUP2 ADD SWAP1 PUSH2 0xE6 SWAP2 SWAP1 PUSH2 0x32A JUMP JUMPDEST PUSH2 0x1FB JUMP JUMPDEST STOP JUMPDEST PUSH2 0x107 PUSH1 0x4 DUP1 CALLDATASIZE SUB DUP2 ADD SWAP1 PUSH2 0x102 SWAP2 SWAP1 PUSH2 0x539 JUMP JUMPDEST PUSH2 0x20D JUMP JUMPDEST STOP JUMPDEST PUSH2 0x123 PUSH1 0x4 DUP1 CALLDATASIZE SUB DUP2 ADD SWAP1 PUSH2 0x11E SWAP2 SWAP1 PUSH2 0x593 JUMP JUMPDEST PUSH2 0x291 JUMP JUMPDEST PUSH1 0x40 MLOAD PUSH2 0x130 SWAP2 SWAP1 PUSH2 0x2D6 JUMP JUMPDEST PUSH1 0x40 MLOAD DUP1 SWAP2 SUB SWAP1 RETURN JUMPDEST PUSH0 DUP1 SLOAD SWAP1 POP SWAP1 JUMP JUMPDEST PUSH1 0x2 DUP2 DUP2 SLOAD DUP2 LT PUSH2 0x150 JUMPI PUSH0 DUP1 REVERT JUMPDEST SWAP1 PUSH0 MSTORE PUSH1 0x20 PUSH0 KECCAK256 SWAP1 PUSH1 0x2 MUL ADD PUSH0 SWAP2 POP SWAP1 POP DUP1 PUSH0 ADD SLOAD SWAP1 DUP1 PUSH1 0x1 ADD DUP1 SLOAD PUSH2 0x175 SWAP1 PUSH2 0x607 JUMP JUMPDEST DUP1 PUSH1 0x1F ADD PUSH1 0x20 DUP1 SWAP2 DIV MUL PUSH1 0x20 ADD PUSH1 0x40 MLOAD SWAP1 DUP2 ADD PUSH1 0x40 MSTORE DUP1 SWAP3 SWAP2 SWAP1 DUP2 DUP2 MSTORE PUSH1 0x20 ADD DUP3 DUP1 SLOAD PUSH2 0x1A1 SWAP1 PUSH2 0x607 JUMP JUMPDEST DUP1 ISZERO PUSH2 0x1EC JUMPI DUP1 PUSH1 0x1F LT PUSH2 0x1C3 JUMPI PUSH2 0x100 DUP1 DUP4 SLOAD DIV MUL DUP4 MSTORE SWAP2 PUSH1 0x20 ADD SWAP2 PUSH2 0x1EC JUMP JUMPDEST DUP3 ADD SWAP2 SWAP1 PUSH0 MSTORE PUSH1 0x20 PUSH0 KECCAK256 SWAP1 JUMPDEST DUP2 SLOAD DUP2 MSTORE SWAP1 PUSH1 0x1 ADD SWAP1 PUSH1 0x20 ADD DUP1 DUP4 GT PUSH2 0x1CF JUMPI DUP3 SWAP1 SUB PUSH1 0x1F AND DUP3 ADD SWAP2 JUMPDEST POP POP POP POP POP SWAP1 POP DUP3 JUMP JUMPDEST PUSH0 SLOAD DUP2 JUMP JUMPDEST DUP1 PUSH0 DUP2 SWAP1 SSTORE POP PUSH2 0x209 PUSH2 0x139 JUMP JUMPDEST POP POP JUMP JUMPDEST DUP1 PUSH1 0x3 DUP4 PUSH1 0x40 MLOAD PUSH2 0x21E SWAP2 SWAP1 PUSH2 0x671 JUMP JUMPDEST SWAP1 DUP2 MSTORE PUSH1 0x20 ADD PUSH1 0x40 MLOAD DUP1 SWAP2 SUB SWAP1 KECCAK256 DUP2 SWAP1 SSTORE POP PUSH1 0x2 PUSH1 0x40 MLOAD DUP1 PUSH1 0x40 ADD PUSH1 0x40 MSTORE DUP1 DUP4 DUP2 MSTORE PUSH1 0x20 ADD DUP5 DUP2 MSTORE POP SWAP1 DUP1 PUSH1 0x1 DUP2 SLOAD ADD DUP1 DUP3 SSTORE DUP1 SWAP2 POP POP PUSH1 0x1 SWAP1 SUB SWAP1 PUSH0 MSTORE PUSH1 0x20 PUSH0 KECCAK256 SWAP1 PUSH1 0x2 MUL ADD PUSH0 SWAP1 SWAP2 SWAP1 SWAP2 SWAP1 SWAP2 POP PUSH0 DUP3 ADD MLOAD DUP2 PUSH0 ADD SSTORE PUSH1 0x20 DUP3 ADD MLOAD DUP2 PUSH1 0x1 ADD SWAP1 DUP2 PUSH2 0x28A SWAP2 SWAP1 PUSH2 0x824 JUMP JUMPDEST POP POP POP POP POP JUMP JUMPDEST PUSH1 0x3 DUP2 DUP1 MLOAD PUSH1 0x20 DUP2 ADD DUP3 ADD DUP1 MLOAD DUP5 DUP3 MSTORE PUSH1 0x20 DUP4 ADD PUSH1 0x20 DUP6 ADD KECCAK256 DUP2 DUP4 MSTORE DUP1 SWAP6 POP POP POP POP POP POP PUSH0 SWAP2 POP SWAP1 POP SLOAD DUP2 JUMP JUMPDEST PUSH0 DUP2 SWAP1 POP SWAP2 SWAP1 POP JUMP JUMPDEST PUSH2 0x2D0 DUP2 PUSH2 0x2BE JUMP JUMPDEST DUP3 MSTORE POP POP JUMP JUMPDEST PUSH0 PUSH1 0x20 DUP3 ADD SWAP1 POP PUSH2 0x2E9 PUSH0 DUP4 ADD DUP5 PUSH2 0x2C7 JUMP JUMPDEST SWAP3 SWAP2 POP POP JUMP JUMPDEST PUSH0 PUSH1 0x40 MLOAD SWAP1 POP SWAP1 JUMP JUMPDEST PUSH0 DUP1 REVERT JUMPDEST PUSH0 DUP1 REVERT JUMPDEST PUSH2 0x309 DUP2 PUSH2 0x2BE JUMP JUMPDEST DUP2 EQ PUSH2 0x313 JUMPI PUSH0 DUP1 REVERT JUMPDEST POP JUMP JUMPDEST PUSH0 DUP2 CALLDATALOAD SWAP1 POP PUSH2 0x324 DUP2 PUSH2 0x300 JUMP JUMPDEST SWAP3 SWAP2 POP POP JUMP JUMPDEST PUSH0 PUSH1 0x20 DUP3 DUP5 SUB SLT ISZERO PUSH2 0x33F JUMPI PUSH2 0x33E PUSH2 0x2F8 JUMP JUMPDEST JUMPDEST PUSH0 PUSH2 0x34C DUP5 DUP3 DUP6 ADD PUSH2 0x316 JUMP JUMPDEST SWAP2 POP POP SWAP3 SWAP2 POP POP JUMP JUMPDEST PUSH0 DUP2 MLOAD SWAP1 POP SWAP2 SWAP1 POP JUMP JUMPDEST PUSH0 DUP3 DUP3 MSTORE PUSH1 0x20 DUP3 ADD SWAP1 POP SWAP3 SWAP2 POP POP JUMP JUMPDEST PUSH0 JUMPDEST DUP4 DUP2 LT ISZERO PUSH2 0x38C JUMPI DUP1 DUP3 ADD MLOAD DUP2 DUP5 ADD MSTORE PUSH1 0x20 DUP2 ADD SWAP1 POP PUSH2 0x371 JUMP JUMPDEST PUSH0 DUP5 DUP5 ADD MSTORE POP POP POP POP JUMP JUMPDEST PUSH0 PUSH1 0x1F NOT PUSH1 0x1F DUP4 ADD AND SWAP1 POP SWAP2 SWAP1 POP JUMP JUMPDEST PUSH0 PUSH2 0x3B1 DUP3 PUSH2 0x355 JUMP JUMPDEST PUSH2 0x3BB DUP2 DUP6 PUSH2 0x35F JUMP JUMPDEST SWAP4 POP PUSH2 0x3CB DUP2 DUP6 PUSH1 0x20 DUP7 ADD PUSH2 0x36F JUMP JUMPDEST PUSH2 0x3D4 DUP2 PUSH2 0x397 JUMP JUMPDEST DUP5 ADD SWAP2 POP POP SWAP3 SWAP2 POP POP JUMP JUMPDEST PUSH0 PUSH1 0x40 DUP3 ADD SWAP1 POP PUSH2 0x3F2 PUSH0 DUP4 ADD DUP6 PUSH2 0x2C7 JUMP JUMPDEST DUP2 DUP2 SUB PUSH1 0x20 DUP4 ADD MSTORE PUSH2 0x404 DUP2 DUP5 PUSH2 0x3A7 JUMP JUMPDEST SWAP1 POP SWAP4 SWAP3 POP POP POP JUMP JUMPDEST PUSH0 DUP1 REVERT JUMPDEST PUSH0 DUP1 REVERT JUMPDEST PUSH32 0x4E487B7100000000000000000000000000000000000000000000000000000000 PUSH0 MSTORE PUSH1 0x41 PUSH1 0x4 MSTORE PUSH1 0x24 PUSH0 REVERT JUMPDEST PUSH2 0x44B DUP3 PUSH2 0x397 JUMP JUMPDEST DUP2 ADD DUP2 DUP2 LT PUSH8 0xFFFFFFFFFFFFFFFF DUP3 GT OR ISZERO PUSH2 0x46A JUMPI PUSH2 0x469 PUSH2 0x415 JUMP JUMPDEST JUMPDEST DUP1 PUSH1 0x40 MSTORE POP POP POP JUMP JUMPDEST PUSH0 PUSH2 0x47C PUSH2 0x2EF JUMP JUMPDEST SWAP1 POP PUSH2 0x488 DUP3 DUP3 PUSH2 0x442 JUMP JUMPDEST SWAP2 SWAP1 POP JUMP JUMPDEST PUSH0 PUSH8 0xFFFFFFFFFFFFFFFF DUP3 GT ISZERO PUSH2 0x4A7 JUMPI PUSH2 0x4A6 PUSH2 0x415 JUMP JUMPDEST JUMPDEST PUSH2 0x4B0 DUP3 PUSH2 0x397 JUMP JUMPDEST SWAP1 POP PUSH1 0x20 DUP2 ADD SWAP1 POP SWAP2 SWAP1 POP JUMP JUMPDEST DUP3 DUP2 DUP4 CALLDATACOPY PUSH0 DUP4 DUP4 ADD MSTORE POP POP POP JUMP JUMPDEST PUSH0 PUSH2 0x4DD PUSH2 0x4D8 DUP5 PUSH2 0x48D JUMP JUMPDEST PUSH2 0x473 JUMP JUMPDEST SWAP1 POP DUP3 DUP2 MSTORE PUSH1 0x20 DUP2 ADD DUP5 DUP5 DUP5 ADD GT ISZERO PUSH2 0x4F9 JUMPI PUSH2 0x4F8 PUSH2 0x411 JUMP JUMPDEST JUMPDEST PUSH2 0x504 DUP5 DUP3 DUP6 PUSH2 0x4BD JUMP JUMPDEST POP SWAP4 SWAP3 POP POP POP JUMP JUMPDEST PUSH0 DUP3 PUSH1 0x1F DUP4 ADD SLT PUSH2 0x520 JUMPI PUSH2 0x51F PUSH2 0x40D JUMP JUMPDEST JUMPDEST DUP2 CALLDATALOAD PUSH2 0x530 DUP5 DUP3 PUSH1 0x20 DUP7 ADD PUSH2 0x4CB JUMP JUMPDEST SWAP2 POP POP SWAP3 SWAP2 POP POP JUMP JUMPDEST PUSH0 DUP1 PUSH1 0x40 DUP4 DUP6 SUB SLT ISZERO PUSH2 0x54F JUMPI PUSH2 0x54E PUSH2 0x2F8 JUMP JUMPDEST JUMPDEST PUSH0 DUP4 ADD CALLDATALOAD PUSH8 0xFFFFFFFFFFFFFFFF DUP2 GT ISZERO PUSH2 0x56C JUMPI PUSH2 0x56B PUSH2 0x2FC JUMP JUMPDEST JUMPDEST PUSH2 0x578 DUP6 DUP3 DUP7 ADD PUSH2 0x50C JUMP JUMPDEST SWAP3 POP POP PUSH1 0x20 PUSH2 0x589 DUP6 DUP3 DUP7 ADD PUSH2 0x316 JUMP JUMPDEST SWAP2 POP POP SWAP3 POP SWAP3 SWAP1 POP JUMP JUMPDEST PUSH0 PUSH1 0x20 DUP3 DUP5 SUB SLT ISZERO PUSH2 0x5A8 JUMPI PUSH2 0x5A7 PUSH2 0x2F8 JUMP JUMPDEST JUMPDEST PUSH0 DUP3 ADD CALLDATALOAD PUSH8 0xFFFFFFFFFFFFFFFF DUP2 GT ISZERO PUSH2 0x5C5 JUMPI PUSH2 0x5C4 PUSH2 0x2FC JUMP JUMPDEST JUMPDEST PUSH2 0x5D1 DUP5 DUP3 DUP6 ADD PUSH2 0x50C JUMP JUMPDEST SWAP2 POP POP SWAP3 SWAP2 POP POP JUMP JUMPDEST PUSH32 0x4E487B7100000000000000000000000000000000000000000000000000000000 PUSH0 MSTORE PUSH1 0x22 PUSH1 0x4 MSTORE PUSH1 0x24 PUSH0 REVERT JUMPDEST PUSH0 PUSH1 0x2 DUP3 DIV SWAP1 POP PUSH1 0x1 DUP3 AND DUP1 PUSH2 0x61E JUMPI PUSH1 0x7F DUP3 AND SWAP2 POP JUMPDEST PUSH1 0x20 DUP3 LT DUP2 SUB PUSH2 0x631 JUMPI PUSH2 0x630 PUSH2 0x5DA JUMP JUMPDEST JUMPDEST POP SWAP2 SWAP1 POP JUMP JUMPDEST PUSH0 DUP2 SWAP1 POP SWAP3 SWAP2 POP POP JUMP JUMPDEST PUSH0 PUSH2 0x64B DUP3 PUSH2 0x355 JUMP JUMPDEST PUSH2 0x655 DUP2 DUP6 PUSH2 0x637 JUMP JUMPDEST SWAP4 POP PUSH2 0x665 DUP2 DUP6 PUSH1 0x20 DUP7 ADD PUSH2 0x36F JUMP JUMPDEST DUP1 DUP5 ADD SWAP2 POP POP SWAP3 SWAP2 POP POP JUMP JUMPDEST PUSH0 PUSH2 0x67C DUP3 DUP5 PUSH2 0x641 JUMP JUMPDEST SWAP2 POP DUP2 SWAP1 POP SWAP3 SWAP2 POP POP JUMP JUMPDEST PUSH0 DUP2 SWAP1 POP DUP2 PUSH0 MSTORE PUSH1 0x20 PUSH0 KECCAK256 SWAP1 POP SWAP2 SWAP1 POP JUMP JUMPDEST PUSH0 PUSH1 0x20 PUSH1 0x1F DUP4 ADD DIV SWAP1 POP SWAP2 SWAP1 POP JUMP JUMPDEST PUSH0 DUP3 DUP3 SHL SWAP1 POP SWAP3 SWAP2 POP POP JUMP JUMPDEST PUSH0 PUSH1 0x8 DUP4 MUL PUSH2 0x6E3 PUSH32 0xFFFFFFFFFFFFFFFFFFFFFFFFFFFFFFFFFFFFFFFFFFFFFFFFFFFFFFFFFFFFFFFF DUP3 PUSH2 0x6A8 JUMP JUMPDEST PUSH2 0x6ED DUP7 DUP4 PUSH2 0x6A8 JUMP JUMPDEST SWAP6 POP DUP1 NOT DUP5 AND SWAP4 POP DUP1 DUP7 AND DUP5 OR SWAP3 POP POP POP SWAP4 SWAP3 POP POP POP JUMP JUMPDEST PUSH0 DUP2 SWAP1 POP SWAP2 SWAP1 POP JUMP JUMPDEST PUSH0 PUSH2 0x728 PUSH2 0x723 PUSH2 0x71E DUP5 PUSH2 0x2BE JUMP JUMPDEST PUSH2 0x705 JUMP JUMPDEST PUSH2 0x2BE JUMP JUMPDEST SWAP1 POP SWAP2 SWAP1 POP JUMP JUMPDEST PUSH0 DUP2 SWAP1 POP SWAP2 SWAP1 POP JUMP JUMPDEST PUSH2 0x741 DUP4 PUSH2 0x70E JUMP JUMPDEST PUSH2 0x755 PUSH2 0x74D DUP3 PUSH2 0x72F JUMP JUMPDEST DUP5 DUP5 SLOAD PUSH2 0x6B4 JUMP JUMPDEST DUP3 SSTORE POP POP POP POP JUMP JUMPDEST PUSH0 SWAP1 JUMP JUMPDEST PUSH2 0x769 PUSH2 0x75D JUMP JUMPDEST PUSH2 0x774 DUP2 DUP5 DUP5 PUSH2 0x738 JUMP JUMPDEST POP POP POP JUMP JUMPDEST JUMPDEST DUP2 DUP2 LT ISZERO PUSH2 0x797 JUMPI PUSH2 0x78C PUSH0 DUP3 PUSH2 0x761 JUMP JUMPDEST PUSH1 0x1 DUP2 ADD SWAP1 POP PUSH2 0x77A JUMP JUMPDEST POP POP JUMP JUMPDEST PUSH1 0x1F DUP3 GT ISZERO PUSH2 0x7DC JUMPI PUSH2 0x7AD DUP2 PUSH2 0x687 JUMP JUMPDEST PUSH2 0x7B6 DUP5 PUSH2 0x699 JUMP JUMPDEST DUP2 ADD PUSH1 0x20 DUP6 LT ISZERO PUSH2 0x7C5 JUMPI DUP2 SWAP1 POP JUMPDEST PUSH2 0x7D9 PUSH2 0x7D1 DUP6 PUSH2 0x699 JUMP JUMPDEST DUP4 ADD DUP3 PUSH2 0x779 JUMP JUMPDEST POP POP JUMPDEST POP POP POP JUMP JUMPDEST PUSH0 DUP3 DUP3 SHR SWAP1 POP SWAP3 SWAP2 POP POP JUMP JUMPDEST PUSH0 PUSH2 0x7FC PUSH0 NOT DUP5 PUSH1 0x8 MUL PUSH2 0x7E1 JUMP JUMPDEST NOT DUP1 DUP4 AND SWAP2 POP POP SWAP3 SWAP2 POP POP JUMP JUMPDEST PUSH0 PUSH2 0x814 DUP4 DUP4 PUSH2 0x7ED JUMP JUMPDEST SWAP2 POP DUP3 PUSH1 0x2 MUL DUP3 OR SWAP1 POP SWAP3 SWAP2 POP POP JUMP JUMPDEST PUSH2 0x82D DUP3 PUSH2 0x355 JUMP JUMPDEST PUSH8 0xFFFFFFFFFFFFFFFF DUP2 GT ISZERO PUSH2 0x846 JUMPI PUSH2 0x845 PUSH2 0x415 JUMP JUMPDEST JUMPDEST PUSH2 0x850 DUP3 SLOAD PUSH2 0x607 JUMP JUMPDEST PUSH2 0x85B DUP3 DUP3 DUP6 PUSH2 0x79B JUMP JUMPDEST PUSH0 PUSH1 0x20 SWAP1 POP PUSH1 0x1F DUP4 GT PUSH1 0x1 DUP2 EQ PUSH2 0x88C JUMPI PUSH0 DUP5 ISZERO PUSH2 0x87A JUMPI DUP3 DUP8 ADD MLOAD SWAP1 POP JUMPDEST PUSH2 0x884 DUP6 DUP3 PUSH2 0x809 JUMP JUMPDEST DUP7 SSTORE POP PUSH2 0x8EB JUMP JUMPDEST PUSH1 0x1F NOT DUP5 AND PUSH2 0x89A DUP7 PUSH2 0x687 JUMP JUMPDEST PUSH0 JUMPDEST DUP3 DUP2 LT ISZERO PUSH2 0x8C1 JUMPI DUP5 DUP10 ADD MLOAD DUP3 SSTORE PUSH1 0x1 DUP3 ADD SWAP2 POP PUSH1 0x20 DUP6 ADD SWAP5 POP PUSH1 0x20 DUP2 ADD SWAP1 POP PUSH2 0x89C JUMP JUMPDEST DUP7 DUP4 LT ISZERO PUSH2 0x8DE JUMPI DUP5 DUP10 ADD MLOAD PUSH2 0x8DA PUSH1 0x1F DUP10 AND DUP3 PUSH2 0x7ED JUMP JUMPDEST DUP4 SSTORE POP JUMPDEST PUSH1 0x1 PUSH1 0x2 DUP9 MUL ADD DUP9 SSTORE POP POP POP JUMPDEST POP POP POP POP POP POP JUMP INVALID LOG2 PUSH5 0x6970667358 0x22 SLT KECCAK256 NOT 0xD4 DUP6 0xD DUP1 MOD SIGNEXTEND PUSH17 0xE2B5E5188E789C5A3B7CF85F959558F529 TSTORE 0xE 0xC2 0xD9 PUSH28 0xE24864736F6C63430008180033000000000000000000000000000000 "
				},
				"gasEstimates": {
					"creation": {
						"codeDepositCost": "469000",
						"executionCost": "503",
						"totalCost": "469503"
					},
					"external": {
						"addPerson(string,uint256)": "infinite",
						"listOfPeople(uint256)": "infinite",
						"myfavouriteNumber()": "2446",
						"nameToFavouriteNumber(string)": "infinite",
						"retrieve()": "2410",
						"store(uint256)": "24697"
					}
				},
				"methodIdentifiers": {
					"addPerson(string,uint256)": "6f760f41",
					"listOfPeople(uint256)": "2ebce631",
					"myfavouriteNumber()": "3bc035d2",
					"nameToFavouriteNumber(string)": "b2ac62ef",
					"retrieve()": "2e64cec1",
					"store(uint256)": "6057361d"
				}
			},
			"storageLayout": {
				"storage": [
					{
						"astId": 3,
						"contract": "contracts/SimpleStorage.sol:SimpleStorage",
						"label": "myfavouriteNumber",
						"offset": 0,
						"slot": "0",
						"type": "t_uint256"
					},
					{
						"astId": 24,
						"contract": "contracts/SimpleStorage.sol:SimpleStorage",
						"label": "listOfFavouriteNumbers",
						"offset": 0,
						"slot": "1",
						"type": "t_array(t_uint256)dyn_storage"
					},
					{
						"astId": 28,
						"contract": "contracts/SimpleStorage.sol:SimpleStorage",
						"label": "listOfPeople",
						"offset": 0,
						"slot": "2",
						"type": "t_array(t_struct(Person)21_storage)dyn_storage"
					},
					{
						"astId": 40,
						"contract": "contracts/SimpleStorage.sol:SimpleStorage",
						"label": "nameToFavouriteNumber",
						"offset": 0,
						"slot": "3",
						"type": "t_mapping(t_string_memory_ptr,t_uint256)"
					}
				],
				"types": {
					"t_array(t_struct(Person)21_storage)dyn_storage": {
						"base": "t_struct(Person)21_storage",
						"encoding": "dynamic_array",
						"label": "struct SimpleStorage.Person[]",
						"numberOfBytes": "32"
					},
					"t_array(t_uint256)dyn_storage": {
						"base": "t_uint256",
						"encoding": "dynamic_array",
						"label": "uint256[]",
						"numberOfBytes": "32"
					},
					"t_mapping(t_string_memory_ptr,t_uint256)": {
						"encoding": "mapping",
						"key": "t_string_memory_ptr",
						"label": "mapping(string => uint256)",
						"numberOfBytes": "32",
						"value": "t_uint256"
					},
					"t_string_memory_ptr": {
						"encoding": "bytes",
						"label": "string",
						"numberOfBytes": "32"
					},
					"t_string_storage": {
						"encoding": "bytes",
						"label": "string",
						"numberOfBytes": "32"
					},
					"t_struct(Person)21_storage": {
						"encoding": "inplace",
						"label": "struct SimpleStorage.Person",
						"members": [
							{
								"astId": 18,
								"contract": "contracts/SimpleStorage.sol:SimpleStorage",
								"label": "favouriteNumber",
								"offset": 0,
								"slot": "0",
								"type": "t_uint256"
							},
							{
								"astId": 20,
								"contract": "contracts/SimpleStorage.sol:SimpleStorage",
								"label": "name",
								"offset": 0,
								"slot": "1",
								"type": "t_string_storage"
							}
						],
						"numberOfBytes": "64"
					},
					"t_uint256": {
						"encoding": "inplace",
						"label": "uint256",
						"numberOfBytes": "32"
					}
				}
			},
			"userdoc": {
				"kind": "user",
				"methods": {},
				"version": 1
			}
		}
	}
}